{
  "contractName": "UniswapScheme",
  "abi": [
    {
      "anonymous": false,
      "inputs": [
        {
          "indexed": true,
          "internalType": "bytes32",
          "name": "proposalId",
          "type": "bytes32"
        },
        {
          "indexed": false,
          "internalType": "enum UniswapScheme.ProposalKind",
          "name": "kind",
          "type": "uint8"
        }
      ],
      "name": "NewProposal",
      "type": "event"
    },
    {
      "anonymous": false,
      "inputs": [
        {
          "indexed": true,
          "internalType": "bytes32",
          "name": "proposalId",
          "type": "bytes32"
        },
        {
          "indexed": false,
          "internalType": "address",
          "name": "from",
          "type": "address"
        },
        {
          "indexed": false,
          "internalType": "address",
          "name": "to",
          "type": "address"
        },
        {
          "indexed": false,
          "internalType": "uint256",
          "name": "amount",
          "type": "uint256"
        },
        {
          "indexed": false,
          "internalType": "uint256",
          "name": "expected",
          "type": "uint256"
        }
      ],
      "name": "NewSwapProposal",
      "type": "event"
    },
    {
      "anonymous": false,
      "inputs": [
        {
          "indexed": true,
          "internalType": "bytes32",
          "name": "proposalId",
          "type": "bytes32"
        }
      ],
      "name": "ProposalDeleted",
      "type": "event"
    },
    {
      "anonymous": false,
      "inputs": [
        {
          "indexed": true,
          "internalType": "bytes32",
          "name": "proposalId",
          "type": "bytes32"
        }
      ],
      "name": "ProposalExecuted",
      "type": "event"
    },
    {
      "anonymous": false,
      "inputs": [
        {
          "indexed": true,
          "internalType": "bytes32",
          "name": "proposalId",
          "type": "bytes32"
        },
        {
          "indexed": false,
          "internalType": "int256",
          "name": "decision",
          "type": "int256"
        }
      ],
      "name": "ProposalExecutedByVotingMachine",
      "type": "event"
    },
    {
      "anonymous": false,
      "inputs": [
        {
          "indexed": true,
          "internalType": "bytes32",
          "name": "proposalId",
          "type": "bytes32"
        },
        {
          "indexed": false,
          "internalType": "address",
          "name": "from",
          "type": "address"
        },
        {
          "indexed": false,
          "internalType": "address",
          "name": "to",
          "type": "address"
        },
        {
          "indexed": false,
          "internalType": "uint256",
          "name": "amount",
          "type": "uint256"
        },
        {
          "indexed": false,
          "internalType": "uint256",
          "name": "expected",
          "type": "uint256"
        },
        {
          "indexed": false,
          "internalType": "uint256",
          "name": "returned",
          "type": "uint256"
        }
      ],
      "name": "SwapProposalExecuted",
      "type": "event"
    },
    {
      "constant": true,
      "inputs": [],
      "name": "avatar",
      "outputs": [
        {
          "internalType": "contract Avatar",
          "name": "",
          "type": "address"
        }
      ],
      "payable": false,
      "stateMutability": "view",
      "type": "function"
    },
    {
      "constant": true,
      "inputs": [
        {
          "internalType": "contract IERC20",
          "name": "_stakingToken",
          "type": "address"
        },
        {
          "internalType": "bytes32",
          "name": "_proposalId",
          "type": "bytes32"
        }
      ],
      "name": "balanceOfStakingToken",
      "outputs": [
        {
          "internalType": "uint256",
          "name": "",
          "type": "uint256"
        }
      ],
      "payable": false,
      "stateMutability": "view",
      "type": "function"
    },
    {
      "constant": false,
      "inputs": [
        {
          "internalType": "uint256",
          "name": "_amount",
          "type": "uint256"
        },
        {
          "internalType": "address",
          "name": "_beneficiary",
          "type": "address"
        },
        {
          "internalType": "bytes32",
          "name": "_proposalId",
          "type": "bytes32"
        }
      ],
      "name": "burnReputation",
      "outputs": [
        {
          "internalType": "bool",
          "name": "",
          "type": "bool"
        }
      ],
      "payable": false,
      "stateMutability": "nonpayable",
      "type": "function"
    },
    {
      "constant": true,
      "inputs": [
        {
          "internalType": "bytes32",
          "name": "_proposalId",
          "type": "bytes32"
        }
      ],
      "name": "getTotalReputationSupply",
      "outputs": [
        {
          "internalType": "uint256",
          "name": "",
          "type": "uint256"
        }
      ],
      "payable": false,
      "stateMutability": "view",
      "type": "function"
    },
    {
      "constant": true,
      "inputs": [],
      "name": "initialized",
      "outputs": [
        {
          "internalType": "bool",
          "name": "",
          "type": "bool"
        }
      ],
      "payable": false,
      "stateMutability": "view",
      "type": "function"
    },
    {
      "constant": false,
      "inputs": [
        {
          "internalType": "uint256",
          "name": "_amount",
          "type": "uint256"
        },
        {
          "internalType": "address",
          "name": "_beneficiary",
          "type": "address"
        },
        {
          "internalType": "bytes32",
          "name": "_proposalId",
          "type": "bytes32"
        }
      ],
      "name": "mintReputation",
      "outputs": [
        {
          "internalType": "bool",
          "name": "",
          "type": "bool"
        }
      ],
      "payable": false,
      "stateMutability": "nonpayable",
      "type": "function"
    },
    {
      "constant": true,
      "inputs": [
        {
          "internalType": "bytes32",
          "name": "",
          "type": "bytes32"
        }
      ],
      "name": "proposals",
      "outputs": [
        {
          "internalType": "bool",
          "name": "exists",
          "type": "bool"
        },
        {
          "internalType": "bool",
          "name": "passed",
          "type": "bool"
        },
        {
          "internalType": "enum UniswapScheme.ProposalKind",
          "name": "kind",
          "type": "uint8"
        }
      ],
      "payable": false,
      "stateMutability": "view",
      "type": "function"
    },
    {
      "constant": true,
      "inputs": [
        {
          "internalType": "address",
          "name": "",
          "type": "address"
        },
        {
          "internalType": "bytes32",
          "name": "",
          "type": "bytes32"
        }
      ],
      "name": "proposalsInfo",
      "outputs": [
        {
          "internalType": "uint256",
          "name": "blockNumber",
          "type": "uint256"
        },
        {
          "internalType": "contract Avatar",
          "name": "avatar",
          "type": "address"
        }
      ],
      "payable": false,
      "stateMutability": "view",
      "type": "function"
    },
    {
      "constant": true,
      "inputs": [
        {
          "internalType": "address",
          "name": "_owner",
          "type": "address"
        },
        {
          "internalType": "bytes32",
          "name": "_proposalId",
          "type": "bytes32"
        }
      ],
      "name": "reputationOf",
      "outputs": [
        {
          "internalType": "uint256",
          "name": "",
          "type": "uint256"
        }
      ],
      "payable": false,
      "stateMutability": "view",
      "type": "function"
    },
    {
      "constant": true,
      "inputs": [],
      "name": "router",
      "outputs": [
        {
          "internalType": "contract IUniswapV2Router02",
          "name": "",
          "type": "address"
        }
      ],
      "payable": false,
      "stateMutability": "view",
      "type": "function"
    },
    {
      "constant": true,
      "inputs": [
        {
          "internalType": "bytes32",
          "name": "",
          "type": "bytes32"
        }
      ],
      "name": "seedProposals",
      "outputs": [
        {
          "internalType": "address",
          "name": "token1",
          "type": "address"
        },
        {
          "internalType": "address",
          "name": "token2",
          "type": "address"
        }
      ],
      "payable": false,
      "stateMutability": "view",
      "type": "function"
    },
    {
      "constant": false,
      "inputs": [
        {
          "internalType": "contract IERC20",
          "name": "_stakingToken",
          "type": "address"
        },
        {
          "internalType": "address",
          "name": "_beneficiary",
          "type": "address"
        },
        {
          "internalType": "uint256",
          "name": "_amount",
          "type": "uint256"
        },
        {
          "internalType": "bytes32",
          "name": "_proposalId",
          "type": "bytes32"
        }
      ],
      "name": "stakingTokenTransfer",
      "outputs": [
        {
          "internalType": "bool",
          "name": "",
          "type": "bool"
        }
      ],
      "payable": false,
      "stateMutability": "nonpayable",
      "type": "function"
    },
    {
      "constant": true,
      "inputs": [
        {
          "internalType": "bytes32",
          "name": "",
          "type": "bytes32"
        }
      ],
      "name": "swapProposals",
      "outputs": [
        {
          "internalType": "address",
          "name": "from",
          "type": "address"
        },
        {
          "internalType": "address",
          "name": "to",
          "type": "address"
        },
        {
          "internalType": "uint256",
          "name": "amount",
          "type": "uint256"
        },
        {
          "internalType": "uint256",
          "name": "expected",
          "type": "uint256"
        }
      ],
      "payable": false,
      "stateMutability": "view",
      "type": "function"
    },
    {
      "constant": true,
      "inputs": [],
      "name": "voteParams",
      "outputs": [
        {
          "internalType": "bytes32",
          "name": "",
          "type": "bytes32"
        }
      ],
      "payable": false,
      "stateMutability": "view",
      "type": "function"
    },
    {
      "constant": true,
      "inputs": [],
      "name": "votingMachine",
      "outputs": [
        {
          "internalType": "contract IntVoteInterface",
          "name": "",
          "type": "address"
        }
      ],
      "payable": false,
      "stateMutability": "view",
      "type": "function"
    },
    {
      "constant": false,
      "inputs": [
        {
          "internalType": "contract Avatar",
          "name": "_avatar",
          "type": "address"
        },
        {
          "internalType": "contract IntVoteInterface",
          "name": "_votingMachine",
          "type": "address"
        },
        {
          "internalType": "bytes32",
          "name": "_voteParams",
          "type": "bytes32"
        },
        {
          "internalType": "contract IUniswapV2Router02",
          "name": "_router",
          "type": "address"
        }
      ],
      "name": "initialize",
      "outputs": [],
      "payable": false,
      "stateMutability": "nonpayable",
      "type": "function"
    },
    {
      "constant": false,
      "inputs": [
        {
          "internalType": "address",
          "name": "_from",
          "type": "address"
        },
        {
          "internalType": "address",
          "name": "_to",
          "type": "address"
        },
        {
          "internalType": "uint256",
          "name": "_amount",
          "type": "uint256"
        },
        {
          "internalType": "uint256",
          "name": "_expected",
          "type": "uint256"
        }
      ],
      "name": "swap",
      "outputs": [
        {
          "internalType": "bytes32",
          "name": "",
          "type": "bytes32"
        }
      ],
      "payable": false,
      "stateMutability": "nonpayable",
      "type": "function"
    },
    {
      "constant": false,
      "inputs": [
        {
          "internalType": "bytes32",
          "name": "_proposalId",
          "type": "bytes32"
        },
        {
          "internalType": "int256",
          "name": "_decision",
          "type": "int256"
        }
      ],
      "name": "executeProposal",
      "outputs": [
        {
          "internalType": "bool",
          "name": "",
          "type": "bool"
        }
      ],
      "payable": false,
      "stateMutability": "nonpayable",
      "type": "function"
    },
    {
      "constant": false,
      "inputs": [
        {
          "internalType": "bytes32",
          "name": "_proposalId",
          "type": "bytes32"
        }
      ],
      "name": "execute",
      "outputs": [],
      "payable": false,
      "stateMutability": "nonpayable",
      "type": "function"
    }
  ],
  "bytecode": "0x608060405234801561001057600080fd5b50612470806100206000396000f3fe608060405234801561001057600080fd5b50600436106100f15760003560e01c8063158ef93e146100f657806332ed5b12146101125780633edf7ca1146101655780634cf34b1c146101895780635aef7de6146101cc57806360bdbb3f146101d45780636b8eb403146102215780639588378e1461025f5780639d4c162d1461028b578063a31ee5b0146102ae578063b551c373146102ec578063bea75f2814610309578063d29b5d2f14610345578063e43e858f14610377578063e5e21164146103c6578063e751f271146103ce578063f81f8bf6146103eb578063f887ea401461041d578063fe02915614610425575b600080fd5b6100fe610461565b604080519115158252519081900360200190f35b61012f6004803603602081101561012857600080fd5b503561046a565b604080518415158152831515602082015290810182600181111561014f57fe5b60ff168152602001935050505060405180910390f35b61016d610492565b604080516001600160a01b039092168252519081900360200190f35b6101a66004803603602081101561019f57600080fd5b50356104a1565b604080516001600160a01b03938416815291909216602082015281519081900390910190f35b61016d6104c7565b610200600480360360408110156101ea57600080fd5b506001600160a01b0381351690602001356104db565b604080519283526001600160a01b0390911660208301528051918290030190f35b61024d6004803603604081101561023757600080fd5b506001600160a01b038135169060200135610505565b60408051918252519081900360200190f35b61024d6004803603604081101561027557600080fd5b506001600160a01b0381351690602001356105c5565b6100fe600480360360408110156102a157600080fd5b50803590602001356106d3565b6102ea600480360360808110156102c457600080fd5b506001600160a01b03813581169160208101358216916040820135916060013516610846565b005b61024d6004803603602081101561030257600080fd5b5035610924565b6100fe6004803603608081101561031f57600080fd5b506001600160a01b03813581169160208101359091169060408101359060600135610a5e565b6100fe6004803603606081101561035b57600080fd5b508035906001600160a01b036020820135169060400135610c00565b6103946004803603602081101561038d57600080fd5b5035610d99565b604080516001600160a01b03958616815293909416602084015282840191909152606082015290519081900360800190f35b61024d610dcd565b6102ea600480360360208110156103e457600080fd5b5035610dd3565b6100fe6004803603606081101561040157600080fd5b508035906001600160a01b036020820135169060400135610ecf565b61016d611030565b61024d6004803603608081101561043b57600080fd5b506001600160a01b0381358116916020810135909116906040810135906060013561103f565b60015460ff1681565b60056020526000908152604090205460ff808216916101008104821691620100009091041683565b6002546001600160a01b031681565b600760205260009081526040902080546001909101546001600160a01b03918216911682565b60015461010090046001600160a01b031681565b6000602081815292815260408082209093529081522080546001909101546001600160a01b031682565b336000908152602081815260408083208484529091528120600101546001600160a01b0316806105395760009150506105bf565b836001600160a01b03166370a08231826040518263ffffffff1660e01b815260040180826001600160a01b03166001600160a01b0316815260200191505060206040518083038186803b15801561058f57600080fd5b505afa1580156105a3573d6000803e3d6000fd5b505050506040513d60208110156105b957600080fd5b50519150505b92915050565b60006105cf6122eb565b5033600090815260208181526040808320858452825291829020825180840190935280548352600101546001600160a01b03169082018190526106165760009150506105bf565b80602001516001600160a01b03166389ae1c906040518163ffffffff1660e01b815260040160206040518083038186803b15801561065357600080fd5b505afa158015610667573d6000803e3d6000fd5b505050506040513d602081101561067d57600080fd5b505181516040805163277166bf60e11b81526001600160a01b038881166004830152602482019390935290519190921691634ee2cd7e916044808301926020929190829003018186803b15801561058f57600080fd5b3360009081526020818152604080832085845290915281206001015483906001600160a01b0316610740576040805162461bcd60e51b81526020600482015260126024820152716f6e6c7920566f74696e674d616368696e6560701b604482015290519081900360640190fd5b6000848152600560205260409020805460ff1661078e5760405162461bcd60e51b81526004018080602001828103825260268152602001806123e66026913960400191505060405180910390fd5b8054610100900460ff16156107d45760405162461bcd60e51b81526004018080602001828103825260268152602001806123c06026913960400191505060405180910390fd5b60408051858152905186917fe03a9047d2647ba513689fe86f20dfb187d4a3710aacc44cda022d7900a7f967919081900360200190a2836001141561082557805461ff00191661010017815561083b565b805461083b90869062010000900460ff16611398565b506001949350505050565b60015460ff16156108885760405162461bcd60e51b81526004018080602001828103825260298152602001806123976029913960400191505060405180910390fd5b6001600160a01b0384166108cd5760405162461bcd60e51b81526004018080602001828103825260248152602001806123036024913960400191505060405180910390fd5b600180546001600160a01b0395861661010002610100600160a81b031960ff19909216831791909116179055600280549385166001600160a01b031994851617905560039190915560048054919093169116179055565b600061092e6122eb565b5033600090815260208181526040808320858452825291829020825180840190935280548352600101546001600160a01b0316908201819052610975576000915050610a59565b80602001516001600160a01b03166389ae1c906040518163ffffffff1660e01b815260040160206040518083038186803b1580156109b257600080fd5b505afa1580156109c6573d6000803e3d6000fd5b505050506040513d60208110156109dc57600080fd5b5051815160408051630981b24d60e41b81526004810192909252516001600160a01b039092169163981b24d091602480820192602092909190829003018186803b158015610a2957600080fd5b505afa158015610a3d573d6000803e3d6000fd5b505050506040513d6020811015610a5357600080fd5b50519150505b919050565b3360009081526020818152604080832084845290915281206001015482906001600160a01b0316610acb576040805162461bcd60e51b81526020600482015260126024820152716f6e6c7920566f74696e674d616368696e6560701b604482015290519081900360640190fd5b336000908152602081815260408083208684529091529020600101546001600160a01b031680610aff576000925050610bf7565b806001600160a01b0316638da5cb5b6040518163ffffffff1660e01b815260040160206040518083038186803b158015610b3857600080fd5b505afa158015610b4c573d6000803e3d6000fd5b505050506040513d6020811015610b6257600080fd5b50516040805163b9a04cdd60e01b81526001600160a01b038a8116600483015289811660248301526044820189905284811660648301529151919092169163b9a04cdd9160848083019260209291908290030181600087803b158015610bc757600080fd5b505af1158015610bdb573d6000803e3d6000fd5b505050506040513d6020811015610bf157600080fd5b50519250505b50949350505050565b3360009081526020818152604080832084845290915281206001015482906001600160a01b0316610c6d576040805162461bcd60e51b81526020600482015260126024820152716f6e6c7920566f74696e674d616368696e6560701b604482015290519081900360640190fd5b336000908152602081815260408083208684529091529020600101546001600160a01b031680610ca1576000925050610d91565b806001600160a01b0316638da5cb5b6040518163ffffffff1660e01b815260040160206040518083038186803b158015610cda57600080fd5b505afa158015610cee573d6000803e3d6000fd5b505050506040513d6020811015610d0457600080fd5b50516040805163757cca5960e11b8152600481018990526001600160a01b03888116602483015284811660448301529151919092169163eaf994b29160648083019260209291908290030181600087803b158015610d6157600080fd5b505af1158015610d75573d6000803e3d6000fd5b505050506040513d6020811015610d8b57600080fd5b50519250505b509392505050565b60066020526000908152604090208054600182015460028301546003909301546001600160a01b0392831693919092169184565b60035481565b6000818152600560205260409020805460ff16610e215760405162461bcd60e51b81526004018080602001828103825260268152602001806123e66026913960400191505060405180910390fd5b8054610100900460ff16610e665760405162461bcd60e51b815260040180806020018281038252602981526020018061236e6029913960400191505060405180910390fd5b805460ff191681556000815462010000900460ff166001811115610e8657fe5b1415610ecb57610e9582611469565b60405182907f7b1bcf1ccf901a11589afff5504d59fd0a53780eed2a952adade0348985139e090600090a2610ecb826000611398565b5050565b3360009081526020818152604080832084845290915281206001015482906001600160a01b0316610f3c576040805162461bcd60e51b81526020600482015260126024820152716f6e6c7920566f74696e674d616368696e6560701b604482015290519081900360640190fd5b336000908152602081815260408083208684529091529020600101546001600160a01b031680610f70576000925050610d91565b806001600160a01b0316638da5cb5b6040518163ffffffff1660e01b815260040160206040518083038186803b158015610fa957600080fd5b505afa158015610fbd573d6000803e3d6000fd5b505050506040513d6020811015610fd357600080fd5b505160408051630dd29a4f60e31b8152600481018990526001600160a01b038881166024830152848116604483015291519190921691636e94d2789160648083019260209291908290030181600087803b158015610d6157600080fd5b6004546001600160a01b031681565b60015460009060ff166110835760405162461bcd60e51b81526004018080602001828103825260258152602001806123496025913960400191505060405180910390fd5b600083116110c25760405162461bcd60e51b81526004018080602001828103825260228152602001806123276022913960400191505060405180910390fd5b836001600160a01b0316856001600160a01b03161415611129576040805162461bcd60e51b815260206004820181905260248201527f556e6973776170536368656d653a20696e76616c696420737761702070616972604482015290519081900360640190fd5b6002805460035460015460408051634439bdaf60e11b81526004810195909552602485019290925233604485015261010090046001600160a01b039081166064850152905160009391909216916388737b5e9160848082019260209290919082900301818787803b15801561119d57600080fd5b505af11580156111b1573d6000803e3d6000fd5b505050506040513d60208110156111c757600080fd5b505160408051606081018252600181526000602082018190529293509190820152600082815260056020908152604091829020835181549285015115156101000261ff001991151560ff19909416939093171691909117808255918301519091829062ff000019166201000083600181111561123f57fe5b021790555050604080516080810182526001600160a01b03898116825288811660208084019182528385018a8152606085018a8152600089815260068452878120965187546001600160a01b031990811691881691909117885594516001808901805488169289169290921790915592516002808901919091559151600390970196909655865180880188524381528254610100900486168185019081529154861687528684528787208a88528452878720905181559051910180549093169316929092179055825191825291518493507f85e60845834c8c7a0822add39454e5c6c0cb6b694aa61d34046de9847285b27a929181900390910190a2604080516001600160a01b0380891682528716602082015280820186905260608101859052905182917f3310690bc8a83a583debf1e7ce760041f809b1bf285389261c07171938fd23db919081900360800190a295945050505050565b6000828152600560205260408120805462ffffff191690558160018111156113bc57fe5b14156113fb57600082815260066020526040812080546001600160a01b031990811682556001820180549091169055600281018290556003015561143a565b600181600181111561140957fe5b141561143a57600082815260076020526040902080546001600160a01b031990811682556001909101805490911690555b60405182907f9e70f82b2c39ff8db1802828219639b786b0098beba2eb2a02ff366923ad9b2d90600090a25050565b600081815260066020526040812080549091906001600160a01b03161580159061149f575060018201546001600160a01b031615155b156114b4576114ad8261155c565b90506114ea565b81546001600160a01b03166114cc576114ad82611bc4565b60018201546001600160a01b03166114ea576114e782611e88565b90505b8154600183015460028401546003850154604080516001600160a01b03958616815293909416602084015282840191909152606082015260808101839052905184917f6bcb90160d223e436cab2dfdbed626817bea9a5921b1125100400d989965b87d919081900360a00190a2505050565b6000806001809054906101000a90046001600160a01b03166001600160a01b0316638da5cb5b6040518163ffffffff1660e01b815260040160206040518083038186803b1580156115ac57600080fd5b505afa1580156115c0573d6000803e3d6000fd5b505050506040513d60208110156115d657600080fd5b505160408051600280825260608083018452939450600092849291906020830190803883395050875482519293506001600160a01b03169183915060009061161a57fe5b6001600160a01b0392831660209182029290920101526001808801548351921691839190811061164657fe5b6001600160a01b0392831660209182029290920181019190915287546004805460028b0154604080519287166024808501919091526044808501939093528151808503840181526064948501835296870180516001600160e01b031663095ea7b360e01b17815260015492516368db844d60e11b8152968916958701868152610100909304891693870184905260009487018590526080918701918252875160848801528751988d169863d1b7089a98969794959460a4019190808383885b8381101561171d578181015183820152602001611705565b50505050905090810190601f16801561174a5780820380516001836020036101000a031916815260200191505b5095505050505050600060405180830381600087803b15801561176c57600080fd5b505af1158015611780573d6000803e3d6000fd5b505050506040513d6000823e601f3d908101601f1916820160409081528110156117a957600080fd5b815160208301805160405192949293830192919084600160201b8211156117cf57600080fd5b9083019060208201858111156117e457600080fd5b8251600160201b8111828201881017156117fd57600080fd5b82525081516020918201929091019080838360005b8381101561182a578181015183820152602001611812565b50505050905090810190601f1680156118575780820380516001836020036101000a031916815260200191505b506040525050508094508193505050816118a25760405162461bcd60e51b815260040180806020018281038252603081526020018061240c6030913960400191505060405180910390fd5b6004546002870154600388015460015460405160248101848152604482018490526001600160a01b036101009093048316608483018190524260a4840181905260a060648501908152895160c486015289518d87169963d1b7089a999716976338ed173960e01b979690958c9594939092909160e401906020878101910280838360005b8381101561193e578181015183820152602001611926565b505050509050019650505050505050604051602081830303815290604052906001600160e01b0319166020820180516001600160e01b0383818316178352505050506001809054906101000a90046001600160a01b031660006040518563ffffffff1660e01b815260040180856001600160a01b03166001600160a01b0316815260200180602001846001600160a01b03166001600160a01b03168152602001838152602001828103825285818151815260200191508051906020019080838360005b83811015611a19578181015183820152602001611a01565b50505050905090810190601f168015611a465780820380516001836020036101000a031916815260200191505b5095505050505050600060405180830381600087803b158015611a6857600080fd5b505af1158015611a7c573d6000803e3d6000fd5b505050506040513d6000823e601f3d908101601f191682016040908152811015611aa557600080fd5b815160208301805160405192949293830192919084600160201b821115611acb57600080fd5b908301906020820185811115611ae057600080fd5b8251600160201b811182820188101715611af957600080fd5b82525081516020918201929091019080838360005b83811015611b26578181015183820152602001611b0e565b50505050905090810190601f168015611b535780820380516001836020036101000a031916815260200191505b50604052505050809450819350505081611bb1576040805162461bcd60e51b815260206004820152601a602482015279155b9a5cddd85c14d8da195b594e881cddd85c0819985a5b195960321b604482015290519081900360640190fd5b611bba836122e4565b9695505050505050565b6000806001809054906101000a90046001600160a01b03166001600160a01b0316638da5cb5b6040518163ffffffff1660e01b815260040160206040518083038186803b158015611c1457600080fd5b505afa158015611c28573d6000803e3d6000fd5b505050506040513d6020811015611c3e57600080fd5b50516040805160028082526060808301845293945060009284929190602083019080388339505060048054604080516315ab88c960e31b815290519495506001600160a01b039091169363ad5c4648935081830192602092829003018186803b158015611caa57600080fd5b505afa158015611cbe573d6000803e3d6000fd5b505050506040513d6020811015611cd457600080fd5b505181518290600090611ce357fe5b6001600160a01b03928316602091820292909201015260018088015483519216918391908110611d0f57fe5b6001600160a01b039283166020918202929092018101919091526004546003890154600154604051602481018381526101009092048616606482018190524260848301819052608060448401908152895160a485015289518d8a169963d1b7089a99981697637ff36ab560e01b97968c9690939260c490910191878101910280838360005b83811015611dac578181015183820152602001611d94565b5050505090500195505050505050604051602081830303815290604052906001600160e01b0319166020820180516001600160e01b0383818316178352505050506001809054906101000a90046001600160a01b03168a600201546040518563ffffffff1660e01b815260040180856001600160a01b03166001600160a01b0316815260200180602001846001600160a01b03166001600160a01b031681526020018381526020018281038252858181518152602001915080519060200190808383600083811015611a19578181015183820152602001611a01565b6000806001809054906101000a90046001600160a01b03166001600160a01b0316638da5cb5b6040518163ffffffff1660e01b815260040160206040518083038186803b158015611ed857600080fd5b505afa158015611eec573d6000803e3d6000fd5b505050506040513d6020811015611f0257600080fd5b505160408051600280825260608083018452939450600092849291906020830190803883395050875482519293506001600160a01b031691839150600090611f4657fe5b60200260200101906001600160a01b031690816001600160a01b031681525050600460009054906101000a90046001600160a01b03166001600160a01b031663ad5c46486040518163ffffffff1660e01b815260040160206040518083038186803b158015611fb457600080fd5b505afa158015611fc8573d6000803e3d6000fd5b505050506040513d6020811015611fde57600080fd5b5051815182906001908110611fef57fe5b6001600160a01b0392831660209182029290920181019190915287546004805460028b0154604080519287166024808501919091526044808501939093528151808503840181526064948501835296870180516001600160e01b031663095ea7b360e01b17815260015492516368db844d60e11b8152968916958701868152610100909304891693870184905260009487018590526080918701918252875160848801528751988d169863d1b7089a98969794959460a4019190808383885b838110156120c65781810151838201526020016120ae565b50505050905090810190601f1680156120f35780820380516001836020036101000a031916815260200191505b5095505050505050600060405180830381600087803b15801561211557600080fd5b505af1158015612129573d6000803e3d6000fd5b505050506040513d6000823e601f3d908101601f19168201604090815281101561215257600080fd5b815160208301805160405192949293830192919084600160201b82111561217857600080fd5b90830190602082018581111561218d57600080fd5b8251600160201b8111828201881017156121a657600080fd5b82525081516020918201929091019080838360005b838110156121d35781810151838201526020016121bb565b50505050905090810190601f1680156122005780820380516001836020036101000a031916815260200191505b5060405250505080945081935050508161224b5760405162461bcd60e51b815260040180806020018281038252603081526020018061240c6030913960400191505060405180910390fd5b6004546002870154600388015460015460405160248101848152604482018490526001600160a01b036101009093048316608483018190524260a4840181905260a060648501908152895160c486015289518d87169963d1b7089a999716976318cbafe560e01b979690958c9594939092909160e40190602087810191028083836000831561193e578181015183820152602001611926565b6080015190565b60408051808201909152600080825260208201529056fe556e6973776170536368656d653a206176617461722063616e6e6f74206265206e756c6c556e6973776170536368656d653a20696e76616c6964207377617020616d6f756e74556e6973776170536368656d653a20736368656d65206e6f7420696e697469616c697a6564556e6973776170536368656d653a2070726f706f73616c206973206e6f742070617373656420796574556e6973776170536368656d653a20736368656d6520616c726561647920696e697469616c697a6564556e6973776170536368656d653a2070726f706f73616c20616c726561647920706173736564556e6973776170536368656d653a2070726f706f73616c20646f6573206e6f74206578697374556e6973776170536368656d653a20455243323020617070726f76616c206661696c6564206265666f72652073776170a265627a7a72315820e891c3f4902b97844148d4508c0951a371a57d166d4d1bdb95edf9b2b41c6bbd64736f6c634300050d0032",
  "source": "pragma solidity >=0.5.13;\n\nimport \"@daostack/infra/contracts/votingMachines/ProposalExecuteInterface.sol\";\nimport \"@daostack/arc/contracts/votingMachines/VotingMachineCallbacks.sol\";\nimport \"openzeppelin-solidity/contracts/token/ERC20/ERC20.sol\";\nimport './uniswap/IUniswapV2Router02.sol';\n\n/**\n * @title A UniswapV2 scheme made with  for the necDAO folks\n * @dev   We'll tell when we know\n */\ncontract UniswapScheme is VotingMachineCallbacks, ProposalExecuteInterface {\n    // use safeERC20 ? does it work when used through generic call ?\n    enum ProposalKind { Swap, Seed }\n\n    struct Proposal {\n      bool         exists;\n      bool         passed;\n      ProposalKind kind;\n    }\n\n    struct SwapProposal {\n      address from;\n      address to;\n      uint256 amount;\n      uint256 expected;\n    }\n\n    struct SeedProposal {\n      address token1;\n      address token2;\n    }\n\n    bool                             public initialized;\n    Avatar                           public avatar;\n    IntVoteInterface                 public votingMachine;\n    bytes32                          public voteParams;\n    IUniswapV2Router02               public router;\n    mapping(bytes32 => Proposal)     public proposals;\n    mapping(bytes32 => SwapProposal) public swapProposals;\n    mapping(bytes32 => SeedProposal) public seedProposals;\n\n    // generic events\n    event NewProposal                    (bytes32 indexed proposalId, ProposalKind kind);\n    event ProposalExecutedByVotingMachine(bytes32 indexed proposalId, int256 decision);\n    event ProposalExecuted               (bytes32 indexed proposalId);\n    event ProposalDeleted                (bytes32 indexed proposalId);\n    // swap events\n    event NewSwapProposal                (bytes32 indexed proposalId, address from, address to, uint256 amount, uint256 expected);\n    event SwapProposalExecuted           (bytes32 indexed proposalId, address from, address to, uint256 amount, uint256 expected, uint256 returned);\n    // seed events\n    // TODO\n\n    modifier isInitialized () {\n      require(initialized, \"UniswapScheme: scheme not initialized\");\n      _;\n    }\n\n    modifier isNotInitialized () {\n      require(!initialized, \"UniswapScheme: scheme already initialized\");\n      _;\n    }\n\n    /**\n     * @dev                  Initialize scheme.\n     * @param _avatar        The address of the Avatar on behalf of which this scheme interacts with UniswapV2.\n     * @param _votingMachine The address of the voting machine controlling this scheme.\n     * @param _voteParams    The parameters of the voting machine controlling this scheme.\n     * @param _router        The address of the Uniswap router through which this scheme will interact with UniswapV2.\n     */\n    function initialize(Avatar _avatar, IntVoteInterface _votingMachine, bytes32 _voteParams, IUniswapV2Router02 _router) external isNotInitialized {\n        require(_avatar != Avatar(0), \"UniswapScheme: avatar cannot be null\");\n\n        initialized = true;\n        avatar = _avatar;\n        votingMachine = _votingMachine;\n        voteParams = _voteParams;\n        router = _router;\n    }\n\n    /**\n     * @dev             Submit a proposal to swap tokens.\n     * @param _from     The address of the token to swap from [address(0) for ETH].\n     * @param _to       The address of the token to swap to [address(0) for ETH].\n     * @param _amount   The amount of `_from` token to swap.\n     * @param _expected The minimum amount of `_to` token to expect in return for the swap [reverts otherwise]\n     */\n    function swap(address _from, address _to, uint256 _amount, uint256 _expected) public isInitialized returns (bytes32) {\n      require(_amount > 0,  \"UniswapScheme: invalid swap amount\");\n      require(_from != _to, \"UniswapScheme: invalid swap pair\");\n\n      bytes32 proposalId = votingMachine.propose(2, voteParams, msg.sender, address(avatar));\n\n      proposals[proposalId] = Proposal({ exists: true, passed: false, kind: ProposalKind.Swap });\n      swapProposals[proposalId] = SwapProposal({ from: _from, to: _to, amount: _amount, expected: _expected });\n      proposalsInfo[address(votingMachine)][proposalId] = ProposalInfo({ blockNumber: block.number, avatar: avatar });\n\n      emit NewProposal(proposalId, ProposalKind.Swap);\n      emit NewSwapProposal(proposalId, _from, _to, _amount, _expected);\n\n      return proposalId;\n    }\n\n    /**\n     * @dev               Update the state of the proposal depending on wether it has been accepted or rejected by the voting machine. Can only be called by the voting machine in which the vote is held.\n     * @param _proposalId The id of the proposal in the voting machine.\n     * @param _decision   The voting result. 1 for 'yes' and 2 for 'no'.\n     * @return            True [reverts otherwise].\n     */\n    function executeProposal(bytes32 _proposalId, int256 _decision) external onlyVotingMachine(_proposalId) returns (bool) {\n      Proposal storage proposal = proposals[_proposalId];\n\n      require(proposal.exists,  \"UniswapScheme: proposal does not exist\");\n      require(!proposal.passed, \"UniswapScheme: proposal already passed\");\n\n      emit ProposalExecutedByVotingMachine(_proposalId, _decision);\n\n      if (_decision == 1) {\n        proposal.passed = true;\n      } else {\n        _delete(_proposalId, proposal.kind);\n      }\n\n      return true;\n    }\n\n    /**\n     * @dev               Execute the proposal if it has been accepted by the voting machine and is still pending [reverts otherwise].\n     * @param _proposalId The id of the proposal in the voting machine.\n     */\n    function execute(bytes32 _proposalId) public {\n      Proposal storage proposal = proposals[_proposalId];\n      require(proposal.exists, \"UniswapScheme: proposal does not exist\");\n      require(proposal.passed, \"UniswapScheme: proposal is not passed yet\");\n      // update states upfront to circumvent reentrancy attacks // _swap or _seed functions [and thus state updates] reverts in case of failure anyhow\n      proposal.exists = false;\n\n      if (proposal.kind == ProposalKind.Swap) {\n        _swap(_proposalId);\n        emit ProposalExecuted(_proposalId);\n        _delete(_proposalId, ProposalKind.Swap);\n      }\n    }\n\n    /* internal state-modifying functions */\n\n    function _swap(bytes32 _proposalId) internal {\n      SwapProposal storage proposal = swapProposals[_proposalId];\n      uint256 returned;\n\n      if (proposal.from != address(0) && proposal.to != address(0)) {\n        returned = _swapERC20s(proposal);\n      } else if (proposal.from == address(0)) {\n        returned = _swapFromETH(proposal);\n      } else if (proposal.to == address(0)) {\n        returned = _swapToETH(proposal);\n      }\n      emit SwapProposalExecuted(_proposalId, proposal.from, proposal.to, proposal.amount, proposal.expected, returned);\n    }\n\n    function _swapERC20s(SwapProposal storage _proposal) internal returns (uint256) {\n      Controller controller = Controller(avatar.owner());\n      // to be used later to store return values of `genericCall`\n      bytes memory returned;\n      bool success;\n      // prepare parameters\n      address[] memory path = new address[](2);\n      path[0] = _proposal.from;\n      path[1] = _proposal.to;\n      // approve ERC20 `transferFrom`\n      (success, returned) = controller.genericCall(_proposal.from, abi.encodeWithSelector(ERC20(_proposal.from).approve.selector, address(router), _proposal.amount), avatar, 0);\n      require(success, 'UniswapScheme: ERC20 approval failed before swap');\n      // swap\n      (success, returned) = controller.genericCall(address(router), abi.encodeWithSelector(router.swapExactTokensForTokens.selector, _proposal.amount, _proposal.expected, path, avatar, block.timestamp), avatar, 0);\n      require(success, 'UniswapScheme: swap failed');\n\n      return _parseSwapReturnAmount(returned);\n    }\n\n    function _swapFromETH(SwapProposal storage _proposal) internal returns (uint256) {\n      Controller controller = Controller(avatar.owner());\n      // to be used later to store return values of `genericCall`\n      bytes memory returned;\n      bool success;\n      // prepare parameters\n      address[] memory path = new address[](2);\n      path[0] = router.WETH();\n      path[1] = _proposal.to;\n      // swap\n      (success, returned) = controller.genericCall(address(router), abi.encodeWithSelector(router.swapExactETHForTokens.selector, _proposal.expected, path, avatar, block.timestamp), avatar, _proposal.amount);\n      require(success, 'UniswapScheme: swap failed');\n\n      return _parseSwapReturnAmount(returned);\n    }\n\n    function _swapToETH(SwapProposal storage _proposal) internal returns (uint256) {\n      Controller controller = Controller(avatar.owner());\n      // to be used later to store return values of `genericCall`\n      bytes memory returned;\n      bool success;\n      // prepare parameters\n      address[] memory path = new address[](2);\n      path[0] = _proposal.from;\n      path[1] = router.WETH();\n      // approve ERC20 `transferFrom`\n      (success, returned) = controller.genericCall(_proposal.from, abi.encodeWithSelector(ERC20(_proposal.from).approve.selector, address(router), _proposal.amount), avatar, 0);\n      require(success, 'UniswapScheme: ERC20 approval failed before swap');\n      // swap\n      (success, returned) = controller.genericCall(address(router), abi.encodeWithSelector(router.swapExactTokensForETH.selector, _proposal.amount, _proposal.expected, path, avatar, block.timestamp), avatar, 0);\n      require(success, 'UniswapScheme: swap failed');\n\n      return _parseSwapReturnAmount(returned);\n    }\n\n    /* internal utility functions */\n\n    function _delete(bytes32 _proposalId, ProposalKind _kind) internal {\n      delete proposals[_proposalId];\n\n      if (_kind == ProposalKind.Swap) {\n        delete swapProposals[_proposalId];\n      } else if (_kind == ProposalKind.Seed) {\n        delete seedProposals[_proposalId];\n      }\n\n      emit ProposalDeleted(_proposalId);\n    }\n\n    function _parseSwapReturnAmount(bytes memory data) internal pure returns (uint256 amount) {\n      assembly {\n        amount := mload(add(data, 128))\n      }\n    }\n}\n",
  "sourcePath": "/Users/osarrouy/Code/@curvelabs/necDAO-uniswap/contracts/UniswapScheme.sol",
  "compiler": {
    "name": "solc",
    "version": "0.5.13+commit.5b0b510c.Emscripten.clang"
  },
  "schemaVersion": "3.2.2",
  "updatedAt": "2020-07-23T14:14:38.586Z",
  "devdoc": {
    "details": "We'll tell when we know",
    "methods": {
      "execute(bytes32)": {
        "details": "Execute the proposal if it has been accepted by the voting machine and is still pending [reverts otherwise].",
        "params": {
          "_proposalId": "The id of the proposal in the voting machine."
        }
      },
      "executeProposal(bytes32,int256)": {
        "details": "Update the state of the proposal depending on wether it has been accepted or rejected by the voting machine. Can only be called by the voting machine in which the vote is held.",
        "params": {
          "_decision": "The voting result. 1 for 'yes' and 2 for 'no'.",
          "_proposalId": "The id of the proposal in the voting machine."
        },
        "return": "True [reverts otherwise]."
      },
      "initialize(address,address,bytes32,address)": {
        "details": "Initialize scheme.",
        "params": {
          "_avatar": "The address of the Avatar on behalf of which this scheme interacts with UniswapV2.",
          "_router": "The address of the Uniswap router through which this scheme will interact with UniswapV2.",
          "_voteParams": "The parameters of the voting machine controlling this scheme.",
          "_votingMachine": "The address of the voting machine controlling this scheme."
        }
      },
      "swap(address,address,uint256,uint256)": {
        "details": "Submit a proposal to swap tokens.",
        "params": {
          "_amount": "The amount of `_from` token to swap.",
          "_expected": "The minimum amount of `_to` token to expect in return for the swap [reverts otherwise]",
          "_from": "The address of the token to swap from [address(0) for ETH].",
          "_to": "The address of the token to swap to [address(0) for ETH]."
        }
      }
    },
    "title": "A UniswapV2 scheme made with  for the necDAO folks"
  },
  "userdoc": {
    "methods": {}
  }
}