{
  "contractName": "UniswapProxy",
  "abi": [
    {
      "anonymous": false,
      "inputs": [
        {
          "indexed": false,
          "internalType": "address",
          "name": "from",
          "type": "address"
        },
        {
          "indexed": false,
          "internalType": "address",
          "name": "to",
          "type": "address"
        },
        {
          "indexed": false,
          "internalType": "uint256",
          "name": "amount",
          "type": "uint256"
        },
        {
          "indexed": false,
          "internalType": "uint256",
          "name": "expected",
          "type": "uint256"
        },
        {
          "indexed": false,
          "internalType": "uint256",
          "name": "returned",
          "type": "uint256"
        }
      ],
      "name": "Swap",
      "type": "event"
    },
    {
      "constant": true,
      "inputs": [],
      "name": "avatar",
      "outputs": [
        {
          "internalType": "contract Avatar",
          "name": "",
          "type": "address"
        }
      ],
      "payable": false,
      "stateMutability": "view",
      "type": "function"
    },
    {
      "constant": true,
      "inputs": [],
      "name": "initialized",
      "outputs": [
        {
          "internalType": "bool",
          "name": "",
          "type": "bool"
        }
      ],
      "payable": false,
      "stateMutability": "view",
      "type": "function"
    },
    {
      "constant": true,
      "inputs": [],
      "name": "router",
      "outputs": [
        {
          "internalType": "contract IUniswapV2Router02",
          "name": "",
          "type": "address"
        }
      ],
      "payable": false,
      "stateMutability": "view",
      "type": "function"
    },
    {
      "constant": false,
      "inputs": [
        {
          "internalType": "contract Avatar",
          "name": "_avatar",
          "type": "address"
        },
        {
          "internalType": "contract IUniswapV2Router02",
          "name": "_router",
          "type": "address"
        }
      ],
      "name": "initialize",
      "outputs": [],
      "payable": false,
      "stateMutability": "nonpayable",
      "type": "function"
    },
    {
      "constant": false,
      "inputs": [
        {
          "internalType": "address",
          "name": "_from",
          "type": "address"
        },
        {
          "internalType": "address",
          "name": "_to",
          "type": "address"
        },
        {
          "internalType": "uint256",
          "name": "_amount",
          "type": "uint256"
        },
        {
          "internalType": "uint256",
          "name": "_expected",
          "type": "uint256"
        }
      ],
      "name": "swap",
      "outputs": [],
      "payable": false,
      "stateMutability": "nonpayable",
      "type": "function"
    }
  ],
  "bytecode": "0x608060405234801561001057600080fd5b50610b8c806100206000396000f3fe608060405234801561001057600080fd5b50600436106100575760003560e01c8063158ef93e1461005c578063485cc955146100785780635aef7de6146100a8578063f887ea40146100cc578063fe029156146100d4575b600080fd5b610064610110565b604080519115158252519081900360200190f35b6100a66004803603604081101561008e57600080fd5b506001600160a01b0381358116916020013516610119565b005b6100b06101e1565b604080516001600160a01b039092168252519081900360200190f35b6100b06101f5565b6100a6600480360360808110156100ea57600080fd5b506001600160a01b03813581169160208101359091169060408101359060600135610204565b60005460ff1681565b60005460ff161561015b5760405162461bcd60e51b8152600401808060200182810382526029815260200180610b006029913960400191505060405180910390fd5b6001600160a01b0382166101a05760405162461bcd60e51b8152600401808060200182810382526024815260200180610a956024913960400191505060405180910390fd5b60008054600160ff199091168117610100600160a81b0319166101006001600160a01b03958616021790915580546001600160a01b03191691909216179055565b60005461010090046001600160a01b031681565b6001546001600160a01b031681565b60005460ff166102455760405162461bcd60e51b8152600401808060200182810382526025815260200180610adb6025913960400191505060405180910390fd5b600082116102845760405162461bcd60e51b8152600401808060200182810382526022815260200180610ab96022913960400191505060405180910390fd5b826001600160a01b0316846001600160a01b031614156102eb576040805162461bcd60e51b815260206004820181905260248201527f556e6973776170536368656d653a20696e76616c696420737761702070616972604482015290519081900360640190fd5b6102f7848484846102fd565b50505050565b60008060019054906101000a90046001600160a01b03166001600160a01b0316638da5cb5b6040518163ffffffff1660e01b815260040160206040518083038186803b15801561034c57600080fd5b505afa158015610360573d6000803e3d6000fd5b505050506040513d602081101561037657600080fd5b5051604080516002808252606080830184529394509091602083019080388339019050509050606060006001600160a01b038816158015906103c057506001600160a01b03871615155b15610a1f5787836000815181106103d357fe5b60200260200101906001600160a01b031690816001600160a01b031681525050868360018151811061040157fe5b60200260200101906001600160a01b031690816001600160a01b031681525050836001600160a01b031663d1b7089a898a6001600160a01b031663095ea7b3905060e01b600160009054906101000a90046001600160a01b03168a60405160240180836001600160a01b03166001600160a01b0316815260200182815260200192505050604051602081830303815290604052906001600160e01b0319166020820180516001600160e01b038381831617835250505050600060019054906101000a90046001600160a01b031660006040518563ffffffff1660e01b815260040180856001600160a01b03166001600160a01b0316815260200180602001846001600160a01b03166001600160a01b03168152602001838152602001828103825285818151815260200191508051906020019080838360005b8381101561055257818101518382015260200161053a565b50505050905090810190601f16801561057f5780820380516001836020036101000a031916815260200191505b5095505050505050600060405180830381600087803b1580156105a157600080fd5b505af11580156105b5573d6000803e3d6000fd5b505050506040513d6000823e601f3d908101601f1916820160409081528110156105de57600080fd5b815160208301805160405192949293830192919084600160201b82111561060457600080fd5b90830190602082018581111561061957600080fd5b8251600160201b81118282018810171561063257600080fd5b82525081516020918201929091019080838360005b8381101561065f578181015183820152602001610647565b50505050905090810190601f16801561068c5780820380516001836020036101000a031916815260200191505b506040525050508093508192505050806106d75760405162461bcd60e51b815260040180806020018281038252602f815260200180610b29602f913960400191505060405180910390fd5b836001600160a01b031663d1b7089a600160009054906101000a90046001600160a01b0316600160009054906101000a90046001600160a01b03166001600160a01b03166338ed1739905060e01b898988600060019054906101000a90046001600160a01b0316426040516024018086815260200185815260200180602001846001600160a01b03166001600160a01b03168152602001838152602001828103825285818151815260200191508051906020019060200280838360005b838110156107ac578181015183820152602001610794565b505050509050019650505050505050604051602081830303815290604052906001600160e01b0319166020820180516001600160e01b038381831617835250505050600060019054906101000a90046001600160a01b031660006040518563ffffffff1660e01b815260040180856001600160a01b03166001600160a01b0316815260200180602001846001600160a01b03166001600160a01b03168152602001838152602001828103825285818151815260200191508051906020019080838360005b83811015610888578181015183820152602001610870565b50505050905090810190601f1680156108b55780820380516001836020036101000a031916815260200191505b5095505050505050600060405180830381600087803b1580156108d757600080fd5b505af11580156108eb573d6000803e3d6000fd5b505050506040513d6000823e601f3d908101601f19168201604090815281101561091457600080fd5b815160208301805160405192949293830192919084600160201b82111561093a57600080fd5b90830190602082018581111561094f57600080fd5b8251600160201b81118282018810171561096857600080fd5b82525081516020918201929091019080838360005b8381101561099557818101518382015260200161097d565b50505050905090810190601f1680156109c25780820380516001836020036101000a031916815260200191505b50604052505050809350819250505080610a1f576040805162461bcd60e51b8152602060048201526019602482015278155b9a5cddd85c141c9bde1e4e881cddd85c0819985a5b1959603a1b604482015290519081900360640190fd5b7f9734819749a91fc3be03ea83205f924ee08479bd3f0da48efc91d94d050cac1e88888888610a4d87610a8d565b604080516001600160a01b039687168152949095166020850152838501929092526060830152608082015290519081900360a00190a15050505050505050565b608001519056fe556e6973776170536368656d653a206176617461722063616e6e6f74206265206e756c6c556e6973776170536368656d653a20696e76616c6964207377617020616d6f756e74556e6973776170536368656d653a20736368656d65206e6f7420696e697469616c697a6564556e6973776170536368656d653a20736368656d6520616c726561647920696e697469616c697a6564556e697377617050726f78793a20455243323020617070726f76616c206661696c6564206265666f72652073776170a265627a7a72315820439a2898ecf1b8ce13bc8a067d362edb911772f53e63374c90d2c8a3021b8ec964736f6c634300050d0032",
  "source": "pragma solidity >=0.5.13;\n\nimport \"@daostack/arc/contracts/controller/Avatar.sol\";\nimport \"@daostack/arc/contracts/controller/Controller.sol\";\nimport \"openzeppelin-solidity/contracts/token/ERC20/ERC20.sol\";\nimport './uniswap/IUniswapV2Router02.sol';\n\n/**\n * @title A UniswapV2 proxy made with ❤️ for the necDAO folks\n * @dev   We'll tell when we know\n */\ncontract UniswapProxy {\n  bool               public initialized;\n  Avatar             public avatar;\n  IUniswapV2Router02 public router;\n\n  event Swap (address from, address to, uint256 amount, uint256 expected, uint256 returned);\n\n  modifier isInitialized () {\n    require(initialized, \"UniswapScheme: scheme not initialized\");\n    _;\n  }\n\n  modifier isNotInitialized () {\n    require(!initialized, \"UniswapScheme: scheme already initialized\");\n    _;\n  }\n\n  /**\n    * @dev           Initialize scheme.\n    * @param _avatar The address of the Avatar controlling this scheme.\n    * @param _router The address of the Uniswap router through which this scheme will interact with UniswapV2.\n    */\n  function initialize(Avatar _avatar, IUniswapV2Router02 _router) external isNotInitialized {\n      require(_avatar != Avatar(0), \"UniswapScheme: avatar cannot be null\");\n\n      initialized = true;\n      avatar = _avatar;\n      router = _router;\n  }\n\n  /**\n    * @dev             Submit a proposal to swap tokens.\n    * @param _from     The address of the token to swap from [address(0) for ETH].\n    * @param _to       The address of the token to swap to [address(0) for ETH].\n    * @param _amount   The amount of `_from` token to swap.\n    * @param _expected The minimum amount of `_to` token to expect in return for the swap [reverts otherwise]\n    */\n  function swap(address _from, address _to, uint256 _amount, uint256 _expected) public isInitialized {\n    require(_amount > 0,  \"UniswapScheme: invalid swap amount\");\n    require(_from != _to, \"UniswapScheme: invalid swap pair\");\n\n    _swap(_from, _to, _amount, _expected);\n  }\n\n  /* internal state-modifying functions */\n\n  function _swap(address _from, address _to, uint256 _amount, uint256 _expected) internal {\n    Controller       controller = Controller(avatar.owner());\n    address[] memory path = new address[](2);\n    bytes     memory returned;\n    bool             success;\n\n    if (_from != address(0) && _to != address(0)) {\n      path[0] = _from;\n      path[1] = _to;\n      // swap\n      (success, returned) = controller.genericCall(_from, abi.encodeWithSelector(ERC20(_from).approve.selector, address(router), _amount), avatar, 0);\n      require(success, 'UniswapProxy: ERC20 approval failed before swap');\n      (success, returned) = controller.genericCall(address(router), abi.encodeWithSelector(router.swapExactTokensForTokens.selector, _amount, _expected, path, avatar, block.timestamp), avatar, 0);\n      require(success, 'UniswapProxy: swap failed');\n    } else if (_from == address(0)) {\n      // path[0] = router.WETH();\n      // path[1] = _to;\n      // returned = router.swapExactETHForTokens.value(_amount)(_expected, path, avatar, block.timestamp)[0];\n    } else if (_to == address(0)) {\n      // path[0] = _from;\n      // path[1] = router.WETH();\n      // returned = router.swapExactTokensForETH(_amount, _expected, path, avatar, block.timestamp)[0];\n    }\n    emit Swap(_from, _to, _amount, _expected, _parseSwapReturnAmount(returned));\n  }\n\n  function _parseSwapReturnAmount(bytes memory data) internal pure returns (uint256 amount) {\n    assembly {\n      amount := mload(add(data, 128))\n    }\n  }\n}\n",
  "sourcePath": "/Users/osarrouy/Code/@curvelabs/necDAO-uniswap/packages/contracts/contracts/UniswapProxy.sol",
  "compiler": {
    "name": "solc",
    "version": "0.5.13+commit.5b0b510c.Emscripten.clang"
  },
  "schemaVersion": "3.2.3",
  "updatedAt": "2020-08-13T09:38:41.157Z",
  "devdoc": {
    "details": "We'll tell when we know",
    "methods": {
      "initialize(address,address)": {
        "details": "Initialize scheme.",
        "params": {
          "_avatar": "The address of the Avatar controlling this scheme.",
          "_router": "The address of the Uniswap router through which this scheme will interact with UniswapV2."
        }
      },
      "swap(address,address,uint256,uint256)": {
        "details": "Submit a proposal to swap tokens.",
        "params": {
          "_amount": "The amount of `_from` token to swap.",
          "_expected": "The minimum amount of `_to` token to expect in return for the swap [reverts otherwise]",
          "_from": "The address of the token to swap from [address(0) for ETH].",
          "_to": "The address of the token to swap to [address(0) for ETH]."
        }
      }
    },
    "title": "A UniswapV2 proxy made with ❤️ for the necDAO folks"
  },
  "userdoc": {
    "methods": {}
  }
}