{
  "abi": [
    {
      "anonymous": false,
      "inputs": [
        {
          "indexed": true,
          "internalType": "address",
          "name": "token1",
          "type": "address"
        },
        {
          "indexed": true,
          "internalType": "address",
          "name": "token2",
          "type": "address"
        },
        {
          "indexed": false,
          "internalType": "uint256",
          "name": "amount1",
          "type": "uint256"
        },
        {
          "indexed": false,
          "internalType": "uint256",
          "name": "amount2",
          "type": "uint256"
        },
        {
          "indexed": false,
          "internalType": "uint256",
          "name": "min1",
          "type": "uint256"
        },
        {
          "indexed": false,
          "internalType": "uint256",
          "name": "min2",
          "type": "uint256"
        },
        {
          "indexed": false,
          "internalType": "uint256",
          "name": "pooled1",
          "type": "uint256"
        },
        {
          "indexed": false,
          "internalType": "uint256",
          "name": "pooled2",
          "type": "uint256"
        },
        {
          "indexed": false,
          "internalType": "uint256",
          "name": "returned",
          "type": "uint256"
        }
      ],
      "name": "Pool",
      "type": "event"
    },
    {
      "anonymous": false,
      "inputs": [
        {
          "indexed": true,
          "internalType": "address",
          "name": "from",
          "type": "address"
        },
        {
          "indexed": true,
          "internalType": "address",
          "name": "to",
          "type": "address"
        },
        {
          "indexed": false,
          "internalType": "uint256",
          "name": "amount",
          "type": "uint256"
        },
        {
          "indexed": false,
          "internalType": "uint256",
          "name": "expected",
          "type": "uint256"
        },
        {
          "indexed": false,
          "internalType": "uint256",
          "name": "returned",
          "type": "uint256"
        }
      ],
      "name": "Swap",
      "type": "event"
    },
    {
      "anonymous": false,
      "inputs": [
        {
          "indexed": true,
          "internalType": "address",
          "name": "token1",
          "type": "address"
        },
        {
          "indexed": true,
          "internalType": "address",
          "name": "token2",
          "type": "address"
        },
        {
          "indexed": false,
          "internalType": "uint256",
          "name": "amount",
          "type": "uint256"
        },
        {
          "indexed": false,
          "internalType": "uint256",
          "name": "expected1",
          "type": "uint256"
        },
        {
          "indexed": false,
          "internalType": "uint256",
          "name": "expected2",
          "type": "uint256"
        },
        {
          "indexed": false,
          "internalType": "uint256",
          "name": "returned1",
          "type": "uint256"
        },
        {
          "indexed": false,
          "internalType": "uint256",
          "name": "returned2",
          "type": "uint256"
        }
      ],
      "name": "Unpool",
      "type": "event"
    },
    {
      "constant": true,
      "inputs": [],
      "name": "avatar",
      "outputs": [
        {
          "internalType": "contract Avatar",
          "name": "",
          "type": "address"
        }
      ],
      "payable": false,
      "stateMutability": "view",
      "type": "function"
    },
    {
      "constant": false,
      "inputs": [
        {
          "internalType": "contract Avatar",
          "name": "_avatar",
          "type": "address"
        },
        {
          "internalType": "contract IUniswapV2Router02",
          "name": "_router",
          "type": "address"
        }
      ],
      "name": "initialize",
      "outputs": [],
      "payable": false,
      "stateMutability": "nonpayable",
      "type": "function"
    },
    {
      "constant": true,
      "inputs": [],
      "name": "initialized",
      "outputs": [
        {
          "internalType": "bool",
          "name": "",
          "type": "bool"
        }
      ],
      "payable": false,
      "stateMutability": "view",
      "type": "function"
    },
    {
      "constant": false,
      "inputs": [
        {
          "internalType": "address",
          "name": "_token1",
          "type": "address"
        },
        {
          "internalType": "address",
          "name": "_token2",
          "type": "address"
        },
        {
          "internalType": "uint256",
          "name": "_amount1",
          "type": "uint256"
        },
        {
          "internalType": "uint256",
          "name": "_amount2",
          "type": "uint256"
        },
        {
          "internalType": "uint256",
          "name": "_slippage",
          "type": "uint256"
        }
      ],
      "name": "pool",
      "outputs": [],
      "payable": false,
      "stateMutability": "nonpayable",
      "type": "function"
    },
    {
      "constant": true,
      "inputs": [],
      "name": "router",
      "outputs": [
        {
          "internalType": "contract IUniswapV2Router02",
          "name": "",
          "type": "address"
        }
      ],
      "payable": false,
      "stateMutability": "view",
      "type": "function"
    },
    {
      "constant": false,
      "inputs": [
        {
          "internalType": "address",
          "name": "_from",
          "type": "address"
        },
        {
          "internalType": "address",
          "name": "_to",
          "type": "address"
        },
        {
          "internalType": "uint256",
          "name": "_amount",
          "type": "uint256"
        },
        {
          "internalType": "uint256",
          "name": "_expected",
          "type": "uint256"
        }
      ],
      "name": "swap",
      "outputs": [],
      "payable": false,
      "stateMutability": "nonpayable",
      "type": "function"
    },
    {
      "constant": false,
      "inputs": [
        {
          "internalType": "address",
          "name": "_token1",
          "type": "address"
        },
        {
          "internalType": "address",
          "name": "_token2",
          "type": "address"
        },
        {
          "internalType": "uint256",
          "name": "_amount",
          "type": "uint256"
        },
        {
          "internalType": "uint256",
          "name": "_expected1",
          "type": "uint256"
        },
        {
          "internalType": "uint256",
          "name": "_expected2",
          "type": "uint256"
        }
      ],
      "name": "unpool",
      "outputs": [],
      "payable": false,
      "stateMutability": "nonpayable",
      "type": "function"
    }
  ],
  "address": "0x56b67eb60E281e8b9F8E250C6347eCdf0eC97DDF",
  "args": [],
  "solcInputHash": "0xb3c6683dc85aaf90b4f36a3b00cf975f966815373e705ec02c808047141b9759",
  "bytecode": "0x608060405234801561001057600080fd5b506131b3806100206000396000f3fe608060405234801561001057600080fd5b506004361061006d5760003560e01c8063158ef93e14610072578063485cc9551461008e5780635aef7de6146100be5780638f847b12146100e2578063ed7f8b7b14610124578063f887ea4014610166578063fe0291561461016e575b600080fd5b61007a6101aa565b604080519115158252519081900360200190f35b6100bc600480360360408110156100a457600080fd5b506001600160a01b03813581169160200135166101b3565b005b6100c66102c4565b604080516001600160a01b039092168252519081900360200190f35b6100bc600480360360a08110156100f857600080fd5b506001600160a01b038135811691602081013590911690604081013590606081013590608001356102d8565b6100bc600480360360a081101561013a57600080fd5b506001600160a01b0381358116916020810135909116906040810135906060810135906080013561051c565b6100c66106b2565b6100bc6004803603608081101561018457600080fd5b506001600160a01b038135811691602081013590911690604081013590606001356106c1565b60005460ff1681565b60005460ff16156101f55760405162461bcd60e51b815260040180806020018281038252602181526020018061311e6021913960400191505060405180910390fd5b6000805460ff191660011790556001600160a01b0382166102475760405162461bcd60e51b81526004018080602001828103825260238152602001806130536023913960400191505060405180910390fd5b6001600160a01b03811661028c5760405162461bcd60e51b81526004018080602001828103825260238152602001806130da6023913960400191505060405180910390fd5b60008054610100600160a81b0319166101006001600160a01b0394851602179055600180546001600160a01b03191691909216179055565b60005461010090046001600160a01b031681565b60005460ff1661031d576040805162461bcd60e51b815260206004820152601d602482015260008051602061313f833981519152604482015290519081900360640190fd5b60005461010090046001600160a01b0316331461036b5760405162461bcd60e51b81526004018080602001828103825260218152602001806130b96021913960400191505060405180910390fd5b836001600160a01b0316856001600160a01b031614156040518060400160405280601a815260200160008051602061315f8339815191528152509061042e5760405162461bcd60e51b81526004018080602001828103825283818151815260200191508051906020019080838360005b838110156103f35781810151838201526020016103db565b50505050905090810190601f1680156104205780820380516001836020036101000a031916815260200191505b509250505060405180910390fd5b5060008311801561043f5750600082115b6040518060400160405280601c8152602001600080516020613076833981519152815250906104af5760405162461bcd60e51b81526020600482018181528351602484015283519092839260449091019190850190808383600083156103f35781810151838201526020016103db565b50620f4240811115610508576040805162461bcd60e51b815260206004820152601e60248201527f556e697377617050726f78793a20696e76616c696420736c6970706167650000604482015290519081900360640190fd5b610515858585858561085c565b5050505050565b60005460ff16610561576040805162461bcd60e51b815260206004820152601d602482015260008051602061313f833981519152604482015290519081900360640190fd5b60005461010090046001600160a01b031633146105af5760405162461bcd60e51b81526004018080602001828103825260218152602001806130b96021913960400191505060405180910390fd5b836001600160a01b0316856001600160a01b031614156040518060400160405280601a815260200160008051602061315f833981519152815250906106355760405162461bcd60e51b81526020600482018181528351602484015283519092839260449091019190850190808383600083156103f35781810151838201526020016103db565b5060408051808201909152601c81526000805160206130768339815191526020820152836106a45760405162461bcd60e51b81526020600482018181528351602484015283519092839260449091019190850190808383600083156103f35781810151838201526020016103db565b506105158585858585611164565b6001546001600160a01b031681565b60005460ff16610706576040805162461bcd60e51b815260206004820152601d602482015260008051602061313f833981519152604482015290519081900360640190fd5b60005461010090046001600160a01b031633146107545760405162461bcd60e51b81526004018080602001828103825260218152602001806130b96021913960400191505060405180910390fd5b826001600160a01b0316846001600160a01b031614156040518060400160405280601a815260200160008051602061315f833981519152815250906107da5760405162461bcd60e51b81526020600482018181528351602484015283519092839260449091019190850190808383600083156103f35781810151838201526020016103db565b5060408051808201909152601c81526000805160206130768339815191526020820152826108495760405162461bcd60e51b81526020600482018181528351602484015283519092839260449091019190850190808383600083156103f35781810151838201526020016103db565b50610856848484846119b7565b50505050565b60008060019054906101000a90046001600160a01b03166001600160a01b0316638da5cb5b6040518163ffffffff1660e01b815260040160206040518083038186803b1580156108ab57600080fd5b505afa1580156108bf573d6000803e3d6000fd5b505050506040513d60208110156108d557600080fd5b505190506060600080610911610904620f42406108f88a8963ffffffff61259716565b9063ffffffff6125f916565b889063ffffffff61263816565b9050600061092f610904620f42406108f88a8a63ffffffff61259716565b90506001600160a01b038a161580159061095157506001600160a01b03891615155b15610ce0576109608a8961267a565b61096a898861267a565b846001600160a01b031663d1b7089a600160009054906101000a90046001600160a01b0316600160009054906101000a90046001600160a01b03166001600160a01b031663e8e33700905060e01b8d8d8d8d8989600060019054906101000a90046001600160a01b03164260405160240180896001600160a01b03166001600160a01b03168152602001886001600160a01b03166001600160a01b03168152602001878152602001868152602001858152602001848152602001836001600160a01b03166001600160a01b0316815260200182815260200198505050505050505050604051602081830303815290604052906001600160e01b0319166020820180516001600160e01b038381831617835250505050600060019054906101000a90046001600160a01b031660006040518563ffffffff1660e01b815260040180856001600160a01b03166001600160a01b0316815260200180602001846001600160a01b03166001600160a01b03168152602001838152602001828103825285818151815260200191508051906020019080838360005b83811015610b19578181015183820152602001610b01565b50505050905090810190601f168015610b465780820380516001836020036101000a031916815260200191505b5095505050505050600060405180830381600087803b158015610b6857600080fd5b505af1158015610b7c573d6000803e3d6000fd5b505050506040513d6000823e601f3d908101601f191682016040908152811015610ba557600080fd5b815160208301805160405192949293830192919084600160201b821115610bcb57600080fd5b908301906020820185811115610be057600080fd5b8251600160201b811182820188101715610bf957600080fd5b82525081516020918201929091019080838360005b83811015610c26578181015183820152602001610c0e565b50505050905090810190601f168015610c535780820380516001836020036101000a031916815260200191505b50604081810190526019815278155b9a5cddd85c141c9bde1e4e881c1bdbdb0819985a5b1959603a1b6020820152939850939650919250859150610cda90505760405162461bcd60e51b81526020600482018181528351602484015283519092839260449091019190850190808383600083156103f35781810151838201526020016103db565b506110c5565b60006001600160a01b038b1615610cf7578a610cf9565b895b905060006001600160a01b038c1615610d125789610d14565b885b905060006001600160a01b038d1615610d2d5789610d2f565b8a5b905060006001600160a01b038e1615610d485785610d4a565b845b905060006001600160a01b038f1615610d635785610d65565b865b9050610d71858561267a565b896001600160a01b031663d1b7089a600160009054906101000a90046001600160a01b0316600160009054906101000a90046001600160a01b03166001600160a01b031663f305d719905060e01b88888787600060019054906101000a90046001600160a01b03164260405160240180876001600160a01b03166001600160a01b03168152602001868152602001858152602001848152602001836001600160a01b03166001600160a01b031681526020018281526020019650505050505050604051602081830303815290604052906001600160e01b0319166020820180516001600160e01b038381831617835250505050600060019054906101000a90046001600160a01b0316876040518563ffffffff1660e01b815260040180856001600160a01b03166001600160a01b0316815260200180602001846001600160a01b03166001600160a01b03168152602001838152602001828103825285818151815260200191508051906020019080838360005b83811015610efd578181015183820152602001610ee5565b50505050905090810190601f168015610f2a5780820380516001836020036101000a031916815260200191505b5095505050505050600060405180830381600087803b158015610f4c57600080fd5b505af1158015610f60573d6000803e3d6000fd5b505050506040513d6000823e601f3d908101601f191682016040908152811015610f8957600080fd5b815160208301805160405192949293830192919084600160201b821115610faf57600080fd5b908301906020820185811115610fc457600080fd5b8251600160201b811182820188101715610fdd57600080fd5b82525081516020918201929091019080838360005b8381101561100a578181015183820152602001610ff2565b50505050905090810190601f1680156110375780820380516001836020036101000a031916815260200191505b50604081810190526019815278155b9a5cddd85c141c9bde1e4e881c1bdbdb0819985a5b1959603a1b6020820152939d50939b509192508a91506110be90505760405162461bcd60e51b81526020600482018181528351602484015283519092839260449091019190850190808383600083156103f35781810151838201526020016103db565b5050505050505b60008060006110d48d88612c61565b9250925092508b6001600160a01b03168d6001600160a01b03167f27f55ceec107ee056ff12f76e7a286f1a72d04e85292dfe6611390c252102cf78d8d89898989896040518088815260200187815260200186815260200185815260200184815260200183815260200182815260200197505050505050505060405180910390a350505050505050505050505050565b60006111708686612ca7565b905060008060019054906101000a90046001600160a01b03166001600160a01b0316638da5cb5b6040518163ffffffff1660e01b815260040160206040518083038186803b1580156111c157600080fd5b505afa1580156111d5573d6000803e3d6000fd5b505050506040513d60208110156111eb57600080fd5b50519050606060006111fd848861267a565b6001600160a01b0389161580159061121d57506001600160a01b03881615155b1561159257826001600160a01b031663d1b7089a600160009054906101000a90046001600160a01b0316600160009054906101000a90046001600160a01b03166001600160a01b031663baa2abde905060e01b8c8c8c8c8c600060019054906101000a90046001600160a01b03164260405160240180886001600160a01b03166001600160a01b03168152602001876001600160a01b03166001600160a01b03168152602001868152602001858152602001848152602001836001600160a01b03166001600160a01b03168152602001828152602001975050505050505050604051602081830303815290604052906001600160e01b0319166020820180516001600160e01b038381831617835250505050600060019054906101000a90046001600160a01b031660006040518563ffffffff1660e01b815260040180856001600160a01b03166001600160a01b0316815260200180602001846001600160a01b03166001600160a01b03168152602001838152602001828103825285818151815260200191508051906020019080838360005b838110156113c95781810151838201526020016113b1565b50505050905090810190601f1680156113f65780820380516001836020036101000a031916815260200191505b5095505050505050600060405180830381600087803b15801561141857600080fd5b505af115801561142c573d6000803e3d6000fd5b505050506040513d6000823e601f3d908101601f19168201604090815281101561145557600080fd5b815160208301805160405192949293830192919084600160201b82111561147b57600080fd5b90830190602082018581111561149057600080fd5b8251600160201b8111828201881017156114a957600080fd5b82525081516020918201929091019080838360005b838110156114d65781810151838201526020016114be565b50505050905090810190601f1680156115035780820380516001836020036101000a031916815260200191505b5060408181019052601b81527a155b9a5cddd85c141c9bde1e4e881d5b9c1bdbdb0819985a5b1959602a1b602082015293965093945091925083915061158c90505760405162461bcd60e51b81526020600482018181528351602484015283519092839260449091019190850190808383600083156103f35781810151838201526020016103db565b50611938565b60006001600160a01b038a16156115a957896115ab565b885b905060006001600160a01b038b16156115c457876115c6565b865b905060006001600160a01b038c16156115df57876115e1565b885b9050856001600160a01b031663d1b7089a600160009054906101000a90046001600160a01b0316600160009054906101000a90046001600160a01b03166001600160a01b03166302751cec905060e01b868e8787600060019054906101000a90046001600160a01b03164260405160240180876001600160a01b03166001600160a01b03168152602001868152602001858152602001848152602001836001600160a01b03166001600160a01b031681526020018281526020019650505050505050604051602081830303815290604052906001600160e01b0319166020820180516001600160e01b038381831617835250505050600060019054906101000a90046001600160a01b031660006040518563ffffffff1660e01b815260040180856001600160a01b03166001600160a01b0316815260200180602001846001600160a01b03166001600160a01b03168152602001838152602001828103825285818151815260200191508051906020019080838360005b83811015611770578181015183820152602001611758565b50505050905090810190601f16801561179d5780820380516001836020036101000a031916815260200191505b5095505050505050600060405180830381600087803b1580156117bf57600080fd5b505af11580156117d3573d6000803e3d6000fd5b505050506040513d6000823e601f3d908101601f1916820160409081528110156117fc57600080fd5b815160208301805160405192949293830192919084600160201b82111561182257600080fd5b90830190602082018581111561183757600080fd5b8251600160201b81118282018810171561185057600080fd5b82525081516020918201929091019080838360005b8381101561187d578181015183820152602001611865565b50505050905090810190601f1680156118aa5780820380516001836020036101000a031916815260200191505b5060408181019052601b81527a155b9a5cddd85c141c9bde1e4e881d5b9c1bdbdb0819985a5b1959602a1b602082015293995093975091925086915061193390505760405162461bcd60e51b81526020600482018181528351602484015283519092839260449091019190850190808383600083156103f35781810151838201526020016103db565b505050505b6000806119458b85612f55565b604080518c8152602081018c90528082018b9052606081018490526080810183905290519294509092506001600160a01b03808d1692908e16917f5e9682d5e9f30cf788eeceee271e1ce3bba9a1656b09d22575cef15dda1daa03919081900360a00190a35050505050505050505050565b60008060019054906101000a90046001600160a01b03166001600160a01b0316638da5cb5b6040518163ffffffff1660e01b815260040160206040518083038186803b158015611a0657600080fd5b505afa158015611a1a573d6000803e3d6000fd5b505050506040513d6020811015611a3057600080fd5b5051604080516002808252606080830184529394509091602083019080388339019050509050606060006001600160a01b03881615801590611a7a57506001600160a01b03871615155b15611e5d578783600081518110611a8d57fe5b60200260200101906001600160a01b031690816001600160a01b0316815250508683600181518110611abb57fe5b60200260200101906001600160a01b031690816001600160a01b031681525050611ae5888761267a565b836001600160a01b031663d1b7089a600160009054906101000a90046001600160a01b0316600160009054906101000a90046001600160a01b03166001600160a01b03166338ed1739905060e01b898988600060019054906101000a90046001600160a01b0316426040516024018086815260200185815260200180602001846001600160a01b03166001600160a01b03168152602001838152602001828103825285818151815260200191508051906020019060200280838360005b83811015611bba578181015183820152602001611ba2565b505050509050019650505050505050604051602081830303815290604052906001600160e01b0319166020820180516001600160e01b038381831617835250505050600060019054906101000a90046001600160a01b031660006040518563ffffffff1660e01b815260040180856001600160a01b03166001600160a01b0316815260200180602001846001600160a01b03166001600160a01b03168152602001838152602001828103825285818151815260200191508051906020019080838360005b83811015611c96578181015183820152602001611c7e565b50505050905090810190601f168015611cc35780820380516001836020036101000a031916815260200191505b5095505050505050600060405180830381600087803b158015611ce557600080fd5b505af1158015611cf9573d6000803e3d6000fd5b505050506040513d6000823e601f3d908101601f191682016040908152811015611d2257600080fd5b815160208301805160405192949293830192919084600160201b821115611d4857600080fd5b908301906020820185811115611d5d57600080fd5b8251600160201b811182820188101715611d7657600080fd5b82525081516020918201929091019080838360005b83811015611da3578181015183820152602001611d8b565b50505050905090810190601f168015611dd05780820380516001836020036101000a031916815260200191505b50604081810190526019815278155b9a5cddd85c141c9bde1e4e881cddd85c0819985a5b1959603a1b6020820152939650939450919250839150611e5790505760405162461bcd60e51b81526020600482018181528351602484015283519092839260449091019190850190808383600083156103f35781810151838201526020016103db565b50612530565b6001600160a01b0388166120e757600160009054906101000a90046001600160a01b03166001600160a01b031663ad5c46486040518163ffffffff1660e01b815260040160206040518083038186803b158015611eb957600080fd5b505afa158015611ecd573d6000803e3d6000fd5b505050506040513d6020811015611ee357600080fd5b505183518490600090611ef257fe5b60200260200101906001600160a01b031690816001600160a01b0316815250508683600181518110611f2057fe5b60200260200101906001600160a01b031690816001600160a01b031681525050836001600160a01b031663d1b7089a600160009054906101000a90046001600160a01b0316600160009054906101000a90046001600160a01b03166001600160a01b0316637ff36ab5905060e01b8887600060019054906101000a90046001600160a01b0316426040516024018085815260200180602001846001600160a01b03166001600160a01b03168152602001838152602001828103825285818151815260200191508051906020019060200280838360005b8381101561200e578181015183820152602001611ff6565b5050505090500195505050505050604051602081830303815290604052906001600160e01b0319166020820180516001600160e01b038381831617835250505050600060019054906101000a90046001600160a01b03168a6040518563ffffffff1660e01b815260040180856001600160a01b03166001600160a01b0316815260200180602001846001600160a01b03166001600160a01b031681526020018381526020018281038252858181518152602001915080519060200190808383600083811015611c96578181015183820152602001611c7e565b6001600160a01b03871661253057878360008151811061210357fe5b6001600160a01b03928316602091820292909201810191909152600154604080516315ab88c960e31b81529051919093169263ad5c4648926004808301939192829003018186803b15801561215757600080fd5b505afa15801561216b573d6000803e3d6000fd5b505050506040513d602081101561218157600080fd5b505183518490600190811061219257fe5b60200260200101906001600160a01b031690816001600160a01b0316815250506121bc888761267a565b836001600160a01b031663d1b7089a600160009054906101000a90046001600160a01b0316600160009054906101000a90046001600160a01b03166001600160a01b03166318cbafe5905060e01b898988600060019054906101000a90046001600160a01b0316426040516024018086815260200185815260200180602001846001600160a01b03166001600160a01b03168152602001838152602001828103825285818151815260200191508051906020019060200280838360005b83811015612291578181015183820152602001612279565b505050509050019650505050505050604051602081830303815290604052906001600160e01b0319166020820180516001600160e01b038381831617835250505050600060019054906101000a90046001600160a01b031660006040518563ffffffff1660e01b815260040180856001600160a01b03166001600160a01b0316815260200180602001846001600160a01b03166001600160a01b03168152602001838152602001828103825285818151815260200191508051906020019080838360005b8381101561236d578181015183820152602001612355565b50505050905090810190601f16801561239a5780820380516001836020036101000a031916815260200191505b5095505050505050600060405180830381600087803b1580156123bc57600080fd5b505af11580156123d0573d6000803e3d6000fd5b505050506040513d6000823e601f3d908101601f1916820160409081528110156123f957600080fd5b815160208301805160405192949293830192919084600160201b82111561241f57600080fd5b90830190602082018581111561243457600080fd5b8251600160201b81118282018810171561244d57600080fd5b82525081516020918201929091019080838360005b8381101561247a578181015183820152602001612462565b50505050905090810190601f1680156124a75780820380516001836020036101000a031916815260200191505b50604081810190526019815278155b9a5cddd85c141c9bde1e4e881cddd85c0819985a5b1959603a1b602082015293965093945091925083915061252e90505760405162461bcd60e51b81526020600482018181528351602484015283519092839260449091019190850190808383600083156103f35781810151838201526020016103db565b505b866001600160a01b0316886001600160a01b03167f9734819749a91fc3be03ea83205f924ee08479bd3f0da48efc91d94d050cac1e888861257087612f8c565b60408051938452602084019290925282820152519081900360600190a35050505050505050565b6000826125a6575060006125f3565b828202828482816125b357fe5b04146125f05760405162461bcd60e51b81526004018080602001828103825260218152602001806130fd6021913960400191505060405180910390fd5b90505b92915050565b60006125f083836040518060400160405280601a815260200179536166654d6174683a206469766973696f6e206279207a65726f60301b815250612f93565b60006125f083836040518060400160405280601e81526020017f536166654d6174683a207375627472616374696f6e206f766572666c6f770000815250612ff8565b60008060019054906101000a90046001600160a01b03166001600160a01b0316638da5cb5b6040518163ffffffff1660e01b815260040160206040518083038186803b1580156126c957600080fd5b505afa1580156126dd573d6000803e3d6000fd5b505050506040513d60208110156126f357600080fd5b50516000805460015460408051636eb1769f60e11b81526101009093046001600160a01b0390811660048501529182166024840152519394509192839287169163dd62ed3e916044808301926020929190829003018186803b15801561275857600080fd5b505afa15801561276c573d6000803e3d6000fd5b505050506040513d602081101561278257600080fd5b505111156129f857600154604080516001600160a01b0392831660248083019190915260006044808401829052845180850382018152606494850186526020810180516001600160e01b031663095ea7b360e01b178152835496516368db844d60e11b81528c89166004820190815261010090980489169381018490529586018490526080948601948552815160848701528151978a169763d1b7089a978d9793969495949093909260a490910191808383885b8381101561284e578181015183820152602001612836565b50505050905090810190601f16801561287b5780820380516001836020036101000a031916815260200191505b5095505050505050600060405180830381600087803b15801561289d57600080fd5b505af11580156128b1573d6000803e3d6000fd5b505050506040513d6000823e601f3d908101601f1916820160409081528110156128da57600080fd5b815160208301805160405192949293830192919084600160201b82111561290057600080fd5b90830190602082018581111561291557600080fd5b8251600160201b81118282018810171561292e57600080fd5b82525081516020918201929091019080838360005b8381101561295b578181015183820152602001612943565b50505050905090810190601f1680156129885780820380516001836020036101000a031916815260200191505b50606081016040526023808252959650869590945092506130969150506020830139906129f65760405162461bcd60e51b81526020600482018181528351602484015283519092839260449091019190850190808383600083156103f35781810151838201526020016103db565b505b600154604080516001600160a01b039283166024808301919091526044808301889052835180840382018152606493840185526020810180516001600160e01b031663095ea7b360e01b1781526000805496516368db844d60e11b81528c89166004820190815261010090980489169481018590529586018190526080948601948552825160848701528251978a169763d1b7089a978d9794969294909360a490910191808383885b83811015612ab9578181015183820152602001612aa1565b50505050905090810190601f168015612ae65780820380516001836020036101000a031916815260200191505b5095505050505050600060405180830381600087803b158015612b0857600080fd5b505af1158015612b1c573d6000803e3d6000fd5b505050506040513d6000823e601f3d908101601f191682016040908152811015612b4557600080fd5b815160208301805160405192949293830192919084600160201b821115612b6b57600080fd5b908301906020820185811115612b8057600080fd5b8251600160201b811182820188101715612b9957600080fd5b82525081516020918201929091019080838360005b83811015612bc6578181015183820152602001612bae565b50505050905090810190601f168015612bf35780820380516001836020036101000a031916815260200191505b50606081016040526023808252959650869590945092506130969150506020830139906105155760405162461bcd60e51b81526020600482018181528351602484015283519092839260449091019190850190808383600083156103f35781810151838201526020016103db565b600080806001600160a01b038516612c8d57602084015191506040840151925060608401519050612ca0565b5050506020810151604082015160608301515b9250925092565b6000806001600160a01b03841615612cbf5783612d3a565b600160009054906101000a90046001600160a01b03166001600160a01b031663ad5c46486040518163ffffffff1660e01b815260040160206040518083038186803b158015612d0d57600080fd5b505afa158015612d21573d6000803e3d6000fd5b505050506040513d6020811015612d3757600080fd5b50515b905060006001600160a01b03841615612d535783612dce565b600160009054906101000a90046001600160a01b03166001600160a01b031663ad5c46486040518163ffffffff1660e01b815260040160206040518083038186803b158015612da157600080fd5b505afa158015612db5573d6000803e3d6000fd5b505050506040513d6020811015612dcb57600080fd5b50515b90506000600160009054906101000a90046001600160a01b03166001600160a01b031663c45a01556040518163ffffffff1660e01b815260040160206040518083038186803b158015612e2057600080fd5b505afa158015612e34573d6000803e3d6000fd5b505050506040513d6020811015612e4a57600080fd5b50516040805163e6a4390560e01b81526001600160a01b038681166004830152858116602483015291519293506000929184169163e6a4390591604480820192602092909190829003018186803b158015612ea457600080fd5b505afa158015612eb8573d6000803e3d6000fd5b505050506040513d6020811015612ece57600080fd5b505160408051808201909152601a815260008051602061315f83398151915260208201529091506001600160a01b038216612f4a5760405162461bcd60e51b81526020600482018181528351602484015283519092839260449091019190850190808383600083156103f35781810151838201526020016103db565b509695505050505050565b6000806001600160a01b038416612f785750506020810151604082015190612f85565b5050602081015160408201515b9250929050565b6080015190565b60008183612fe25760405162461bcd60e51b81526020600482018181528351602484015283519092839260449091019190850190808383600083156103f35781810151838201526020016103db565b506000838581612fee57fe5b0495945050505050565b6000818484111561304a5760405162461bcd60e51b81526020600482018181528351602484015283519092839260449091019190850190808383600083156103f35781810151838201526020016103db565b50505090039056fe556e697377617050726f78793a206176617461722063616e6e6f74206265206e756c6c556e697377617050726f78793a20696e76616c696420616d6f756e7400000000556e697377617050726f78793a20455243323020617070726f76616c206661696c6564556e697377617050726f78793a2070726f746563746564206f7065726174696f6e556e697377617050726f78793a20726f757465722063616e6e6f74206265206e756c6c536166654d6174683a206d756c7469706c69636174696f6e206f766572666c6f77556e697377617050726f78793a20616c726561647920696e697469616c697a6564556e697377617050726f78793a206e6f7420696e697469616c697a6564000000556e697377617050726f78793a20696e76616c69642070616972000000000000a265627a7a72315820a26edaed6f15bfabe7a3f4051b7b74c1e568b86a6ea3ac0a558e28585ea9d65b64736f6c634300050d0032",
  "devdoc": {
    "details": "Enable necDAO to swap tokens and provide liquidity through UniswapV2 pairs.",
    "methods": {
      "initialize(address,address)": {
        "details": "Initialize proxy.",
        "params": {
          "_avatar": "The address of the Avatar which will control this proxy.",
          "_router": "The address of the UniswapV2 router through which this proxy will interact with UniswapV2."
        }
      },
      "pool(address,address,uint256,uint256,uint256)": {
        "details": "Pool tokens.",
        "params": {
          "_amount1": "The amount of `_token1` to pool.",
          "_amount2": "The amount of `_token2` to pool.",
          "_slippage": "The allowed price slippage [reverts otherwise].",
          "_token1": "The address of the pair's first token [address(0) for ETH].",
          "_token2": "The address of the pair's second token [address(0) for ETH]."
        }
      },
      "swap(address,address,uint256,uint256)": {
        "details": "Swap tokens.",
        "params": {
          "_amount": "The amount of `_from` token to swap.",
          "_expected": "The minimum amount of `_to` token to expect in return for the swap [reverts otherwise].",
          "_from": "The address of the token to swap from [address(0) for ETH].",
          "_to": "The address of the token to swap to [address(0) for ETH]."
        }
      },
      "unpool(address,address,uint256,uint256,uint256)": {
        "details": "Unpool tokens.",
        "params": {
          "_amount": "The amount of liquidity token to unpool.",
          "_expected1": "The minimum amount of `_token1` to expect in return for this transaction [reverts otherwise].",
          "_expected2": "The minimum amount of `_token2` to expect in return for this transaction [reverts otherwise].",
          "_token1": "The address of the pair's first token [address(0) for ETH].",
          "_token2": "The address of the pair's second token [address(0) for ETH]."
        }
      }
    },
    "title": "A UniswapV2 proxy made with  for the necDAO folks"
  },
  "userdoc": {
    "methods": {}
  },
  "storageLayout": {
    "storage": [
      {
        "astId": 8184,
        "contract": "contracts/UniswapProxy.sol:UniswapProxy",
        "label": "initialized",
        "offset": 0,
        "slot": "0",
        "type": "t_bool"
      },
      {
        "astId": 8186,
        "contract": "contracts/UniswapProxy.sol:UniswapProxy",
        "label": "avatar",
        "offset": 1,
        "slot": "0",
        "type": "t_contract(Avatar)279"
      },
      {
        "astId": 8188,
        "contract": "contracts/UniswapProxy.sol:UniswapProxy",
        "label": "router",
        "offset": 0,
        "slot": "1",
        "type": "t_contract(IUniswapV2Router02)9693"
      }
    ],
    "types": {
      "t_bool": {
        "encoding": "inplace",
        "label": "bool",
        "numberOfBytes": "1"
      },
      "t_contract(Avatar)279": {
        "encoding": "inplace",
        "label": "contract Avatar",
        "numberOfBytes": "20"
      },
      "t_contract(IUniswapV2Router02)9693": {
        "encoding": "inplace",
        "label": "contract IUniswapV2Router02",
        "numberOfBytes": "20"
      }
    }
  },
  "gasEstimates": {
    "creation": {
      "codeDepositCost": "2544600",
      "executionCost": "2748",
      "totalCost": "2547348"
    },
    "external": {
      "avatar()": "470",
      "initialize(address,address)": "infinite",
      "initialized()": "388",
      "pool(address,address,uint256,uint256,uint256)": "infinite",
      "router()": "525",
      "swap(address,address,uint256,uint256)": "infinite",
      "unpool(address,address,uint256,uint256,uint256)": "infinite"
    },
    "internal": {
      "_approve(address,uint256)": "infinite",
      "_pair(address,address)": "infinite",
      "_parsePoolReturn(address,bytes memory)": "infinite",
      "_parseSwapReturn(bytes memory)": "infinite",
      "_parseUnpoolReturn(address,bytes memory)": "infinite",
      "_pool(address,address,uint256,uint256,uint256)": "infinite",
      "_swap(address,address,uint256,uint256)": "infinite",
      "_unpool(address,address,uint256,uint256,uint256)": "infinite"
    }
  }
}