{
  "abi": [
    {
      "anonymous": false,
      "inputs": [
        {
          "indexed": true,
          "internalType": "address",
          "name": "token1",
          "type": "address"
        },
        {
          "indexed": true,
          "internalType": "address",
          "name": "token2",
          "type": "address"
        },
        {
          "indexed": false,
          "internalType": "uint256",
          "name": "amount1",
          "type": "uint256"
        },
        {
          "indexed": false,
          "internalType": "uint256",
          "name": "amount2",
          "type": "uint256"
        },
        {
          "indexed": false,
          "internalType": "uint256",
          "name": "min1",
          "type": "uint256"
        },
        {
          "indexed": false,
          "internalType": "uint256",
          "name": "min2",
          "type": "uint256"
        },
        {
          "indexed": false,
          "internalType": "uint256",
          "name": "pooled1",
          "type": "uint256"
        },
        {
          "indexed": false,
          "internalType": "uint256",
          "name": "pooled2",
          "type": "uint256"
        },
        {
          "indexed": false,
          "internalType": "uint256",
          "name": "returned",
          "type": "uint256"
        }
      ],
      "name": "Pool",
      "type": "event"
    },
    {
      "anonymous": false,
      "inputs": [
        {
          "indexed": true,
          "internalType": "address",
          "name": "from",
          "type": "address"
        },
        {
          "indexed": true,
          "internalType": "address",
          "name": "to",
          "type": "address"
        },
        {
          "indexed": false,
          "internalType": "uint256",
          "name": "amount",
          "type": "uint256"
        },
        {
          "indexed": false,
          "internalType": "uint256",
          "name": "expected",
          "type": "uint256"
        },
        {
          "indexed": false,
          "internalType": "uint256",
          "name": "returned",
          "type": "uint256"
        }
      ],
      "name": "Swap",
      "type": "event"
    },
    {
      "constant": true,
      "inputs": [],
      "name": "avatar",
      "outputs": [
        {
          "internalType": "contract Avatar",
          "name": "",
          "type": "address"
        }
      ],
      "payable": false,
      "stateMutability": "view",
      "type": "function"
    },
    {
      "constant": false,
      "inputs": [
        {
          "internalType": "contract Avatar",
          "name": "_avatar",
          "type": "address"
        },
        {
          "internalType": "contract IUniswapV2Router02",
          "name": "_router",
          "type": "address"
        }
      ],
      "name": "initialize",
      "outputs": [],
      "payable": false,
      "stateMutability": "nonpayable",
      "type": "function"
    },
    {
      "constant": true,
      "inputs": [],
      "name": "initialized",
      "outputs": [
        {
          "internalType": "bool",
          "name": "",
          "type": "bool"
        }
      ],
      "payable": false,
      "stateMutability": "view",
      "type": "function"
    },
    {
      "constant": false,
      "inputs": [
        {
          "internalType": "address",
          "name": "_token1",
          "type": "address"
        },
        {
          "internalType": "address",
          "name": "_token2",
          "type": "address"
        },
        {
          "internalType": "uint256",
          "name": "_amount1",
          "type": "uint256"
        },
        {
          "internalType": "uint256",
          "name": "_amount2",
          "type": "uint256"
        },
        {
          "internalType": "uint256",
          "name": "_slippage",
          "type": "uint256"
        }
      ],
      "name": "pool",
      "outputs": [],
      "payable": false,
      "stateMutability": "nonpayable",
      "type": "function"
    },
    {
      "constant": true,
      "inputs": [],
      "name": "router",
      "outputs": [
        {
          "internalType": "contract IUniswapV2Router02",
          "name": "",
          "type": "address"
        }
      ],
      "payable": false,
      "stateMutability": "view",
      "type": "function"
    },
    {
      "constant": false,
      "inputs": [
        {
          "internalType": "address",
          "name": "_from",
          "type": "address"
        },
        {
          "internalType": "address",
          "name": "_to",
          "type": "address"
        },
        {
          "internalType": "uint256",
          "name": "_amount",
          "type": "uint256"
        },
        {
          "internalType": "uint256",
          "name": "_expected",
          "type": "uint256"
        }
      ],
      "name": "swap",
      "outputs": [],
      "payable": false,
      "stateMutability": "nonpayable",
      "type": "function"
    }
  ],
  "address": "0x54dD3CBf19B4DCE882bD7c03F556D3275C9Bc0ec",
  "args": [],
  "solcInputHash": "0x7c138d99f8f4ad207bd1a7252ec4b007b8597a75141452d155326fdd1454fa9f",
  "bytecode": "0x608060405234801561001057600080fd5b50612498806100206000396000f3fe608060405234801561001057600080fd5b50600436106100625760003560e01c8063158ef93e14610067578063485cc955146100835780635aef7de6146100b35780638f847b12146100d7578063f887ea4014610119578063fe02915614610121575b600080fd5b61006f61015d565b604080519115158252519081900360200190f35b6100b16004803603604081101561009957600080fd5b506001600160a01b0381358116916020013516610166565b005b6100bb610277565b604080516001600160a01b039092168252519081900360200190f35b6100b1600480360360a08110156100ed57600080fd5b506001600160a01b0381358116916020810135909116906040810135906060810135906080013561028b565b6100bb6104ef565b6100b16004803603608081101561013757600080fd5b506001600160a01b038135811691602081013590911690604081013590606001356104fe565b60005460ff1681565b60005460ff16156101a85760405162461bcd60e51b81526004018080602001828103825260218152602001806124236021913960400191505060405180910390fd5b6000805460ff191660011790556001600160a01b0382166101fa5760405162461bcd60e51b81526004018080602001828103825260238152602001806123786023913960400191505060405180910390fd5b6001600160a01b03811661023f5760405162461bcd60e51b81526004018080602001828103825260238152602001806123df6023913960400191505060405180910390fd5b60008054610100600160a81b0319166101006001600160a01b0394851602179055600180546001600160a01b03191691909216179055565b60005461010090046001600160a01b031681565b60005460ff166102d0576040805162461bcd60e51b815260206004820152601d6024820152600080516020612444833981519152604482015290519081900360640190fd5b60005461010090046001600160a01b0316331461031e5760405162461bcd60e51b81526004018080602001828103825260218152602001806123be6021913960400191505060405180910390fd5b836001600160a01b0316856001600160a01b031614156040518060400160405280601a8152602001792ab734b9bbb0b8283937bc3c9d1034b73b30b634b2103830b4b960311b815250906103f05760405162461bcd60e51b81526004018080602001828103825283818151815260200191508051906020019080838360005b838110156103b557818101518382015260200161039d565b50505050905090810190601f1680156103e25780820380516001836020036101000a031916815260200191505b509250505060405180910390fd5b506000831180156104015750600082115b6040518060400160405280601c81526020017b155b9a5cddd85c141c9bde1e4e881a5b9d985b1a5908185b5bdd5b9d60221b815250906104825760405162461bcd60e51b81526020600482018181528351602484015283519092839260449091019190850190808383600083156103b557818101518382015260200161039d565b50620f42408111156104db576040805162461bcd60e51b815260206004820152601e60248201527f556e697377617050726f78793a20696e76616c696420736c6970706167650000604482015290519081900360640190fd5b6104e885858585856106b9565b5050505050565b6001546001600160a01b031681565b60005460ff16610543576040805162461bcd60e51b815260206004820152601d6024820152600080516020612444833981519152604482015290519081900360640190fd5b60005461010090046001600160a01b031633146105915760405162461bcd60e51b81526004018080602001828103825260218152602001806123be6021913960400191505060405180910390fd5b826001600160a01b0316846001600160a01b031614156040518060400160405280601a8152602001792ab734b9bbb0b8283937bc3c9d1034b73b30b634b2103830b4b960311b815250906106265760405162461bcd60e51b81526020600482018181528351602484015283519092839260449091019190850190808383600083156103b557818101518382015260200161039d565b5060408051808201909152601c81527b155b9a5cddd85c141c9bde1e4e881a5b9d985b1a5908185b5bdd5b9d60221b6020820152826106a65760405162461bcd60e51b81526020600482018181528351602484015283519092839260449091019190850190808383600083156103b557818101518382015260200161039d565b506106b384848484610fc1565b50505050565b60008060019054906101000a90046001600160a01b03166001600160a01b0316638da5cb5b6040518163ffffffff1660e01b815260040160206040518083038186803b15801561070857600080fd5b505afa15801561071c573d6000803e3d6000fd5b505050506040513d602081101561073257600080fd5b50519050606060008061076e610761620f42406107558a8963ffffffff611ba116565b9063ffffffff611c0316565b889063ffffffff611c4216565b9050600061078c610761620f42406107558a8a63ffffffff611ba116565b90506001600160a01b038a16158015906107ae57506001600160a01b03891615155b15610b3d576107bd8a89611c84565b6107c78988611c84565b846001600160a01b031663d1b7089a600160009054906101000a90046001600160a01b0316600160009054906101000a90046001600160a01b03166001600160a01b031663e8e33700905060e01b8d8d8d8d8989600060019054906101000a90046001600160a01b03164260405160240180896001600160a01b03166001600160a01b03168152602001886001600160a01b03166001600160a01b03168152602001878152602001868152602001858152602001848152602001836001600160a01b03166001600160a01b0316815260200182815260200198505050505050505050604051602081830303815290604052906001600160e01b0319166020820180516001600160e01b038381831617835250505050600060019054906101000a90046001600160a01b031660006040518563ffffffff1660e01b815260040180856001600160a01b03166001600160a01b0316815260200180602001846001600160a01b03166001600160a01b03168152602001838152602001828103825285818151815260200191508051906020019080838360005b8381101561097657818101518382015260200161095e565b50505050905090810190601f1680156109a35780820380516001836020036101000a031916815260200191505b5095505050505050600060405180830381600087803b1580156109c557600080fd5b505af11580156109d9573d6000803e3d6000fd5b505050506040513d6000823e601f3d908101601f191682016040908152811015610a0257600080fd5b815160208301805160405192949293830192919084600160201b821115610a2857600080fd5b908301906020820185811115610a3d57600080fd5b8251600160201b811182820188101715610a5657600080fd5b82525081516020918201929091019080838360005b83811015610a83578181015183820152602001610a6b565b50505050905090810190601f168015610ab05780820380516001836020036101000a031916815260200191505b50604081810190526019815278155b9a5cddd85c141c9bde1e4e881c1bdbdb0819985a5b1959603a1b6020820152939850939650919250859150610b3790505760405162461bcd60e51b81526020600482018181528351602484015283519092839260449091019190850190808383600083156103b557818101518382015260200161039d565b50610f22565b60006001600160a01b038b1615610b54578a610b56565b895b905060006001600160a01b038c1615610b6f5789610b71565b885b905060006001600160a01b038d1615610b8a5789610b8c565b8a5b905060006001600160a01b038e1615610ba55785610ba7565b845b905060006001600160a01b038f1615610bc05785610bc2565b865b9050610bce8585611c84565b896001600160a01b031663d1b7089a600160009054906101000a90046001600160a01b0316600160009054906101000a90046001600160a01b03166001600160a01b031663f305d719905060e01b88888787600060019054906101000a90046001600160a01b03164260405160240180876001600160a01b03166001600160a01b03168152602001868152602001858152602001848152602001836001600160a01b03166001600160a01b031681526020018281526020019650505050505050604051602081830303815290604052906001600160e01b0319166020820180516001600160e01b038381831617835250505050600060019054906101000a90046001600160a01b0316876040518563ffffffff1660e01b815260040180856001600160a01b03166001600160a01b0316815260200180602001846001600160a01b03166001600160a01b03168152602001838152602001828103825285818151815260200191508051906020019080838360005b83811015610d5a578181015183820152602001610d42565b50505050905090810190601f168015610d875780820380516001836020036101000a031916815260200191505b5095505050505050600060405180830381600087803b158015610da957600080fd5b505af1158015610dbd573d6000803e3d6000fd5b505050506040513d6000823e601f3d908101601f191682016040908152811015610de657600080fd5b815160208301805160405192949293830192919084600160201b821115610e0c57600080fd5b908301906020820185811115610e2157600080fd5b8251600160201b811182820188101715610e3a57600080fd5b82525081516020918201929091019080838360005b83811015610e67578181015183820152602001610e4f565b50505050905090810190601f168015610e945780820380516001836020036101000a031916815260200191505b50604081810190526019815278155b9a5cddd85c141c9bde1e4e881c1bdbdb0819985a5b1959603a1b6020820152939d50939b509192508a9150610f1b90505760405162461bcd60e51b81526020600482018181528351602484015283519092839260449091019190850190808383600083156103b557818101518382015260200161039d565b5050505050505b6000806000610f318d8861226b565b9250925092508b6001600160a01b03168d6001600160a01b03167f27f55ceec107ee056ff12f76e7a286f1a72d04e85292dfe6611390c252102cf78d8d89898989896040518088815260200187815260200186815260200185815260200184815260200183815260200182815260200197505050505050505060405180910390a350505050505050505050505050565b60008060019054906101000a90046001600160a01b03166001600160a01b0316638da5cb5b6040518163ffffffff1660e01b815260040160206040518083038186803b15801561101057600080fd5b505afa158015611024573d6000803e3d6000fd5b505050506040513d602081101561103a57600080fd5b5051604080516002808252606080830184529394509091602083019080388339019050509050606060006001600160a01b0388161580159061108457506001600160a01b03871615155b1561146757878360008151811061109757fe5b60200260200101906001600160a01b031690816001600160a01b03168152505086836001815181106110c557fe5b60200260200101906001600160a01b031690816001600160a01b0316815250506110ef8887611c84565b836001600160a01b031663d1b7089a600160009054906101000a90046001600160a01b0316600160009054906101000a90046001600160a01b03166001600160a01b03166338ed1739905060e01b898988600060019054906101000a90046001600160a01b0316426040516024018086815260200185815260200180602001846001600160a01b03166001600160a01b03168152602001838152602001828103825285818151815260200191508051906020019060200280838360005b838110156111c45781810151838201526020016111ac565b505050509050019650505050505050604051602081830303815290604052906001600160e01b0319166020820180516001600160e01b038381831617835250505050600060019054906101000a90046001600160a01b031660006040518563ffffffff1660e01b815260040180856001600160a01b03166001600160a01b0316815260200180602001846001600160a01b03166001600160a01b03168152602001838152602001828103825285818151815260200191508051906020019080838360005b838110156112a0578181015183820152602001611288565b50505050905090810190601f1680156112cd5780820380516001836020036101000a031916815260200191505b5095505050505050600060405180830381600087803b1580156112ef57600080fd5b505af1158015611303573d6000803e3d6000fd5b505050506040513d6000823e601f3d908101601f19168201604090815281101561132c57600080fd5b815160208301805160405192949293830192919084600160201b82111561135257600080fd5b90830190602082018581111561136757600080fd5b8251600160201b81118282018810171561138057600080fd5b82525081516020918201929091019080838360005b838110156113ad578181015183820152602001611395565b50505050905090810190601f1680156113da5780820380516001836020036101000a031916815260200191505b50604081810190526019815278155b9a5cddd85c141c9bde1e4e881cddd85c0819985a5b1959603a1b602082015293965093945091925083915061146190505760405162461bcd60e51b81526020600482018181528351602484015283519092839260449091019190850190808383600083156103b557818101518382015260200161039d565b50611b3a565b6001600160a01b0388166116f157600160009054906101000a90046001600160a01b03166001600160a01b031663ad5c46486040518163ffffffff1660e01b815260040160206040518083038186803b1580156114c357600080fd5b505afa1580156114d7573d6000803e3d6000fd5b505050506040513d60208110156114ed57600080fd5b5051835184906000906114fc57fe5b60200260200101906001600160a01b031690816001600160a01b031681525050868360018151811061152a57fe5b60200260200101906001600160a01b031690816001600160a01b031681525050836001600160a01b031663d1b7089a600160009054906101000a90046001600160a01b0316600160009054906101000a90046001600160a01b03166001600160a01b0316637ff36ab5905060e01b8887600060019054906101000a90046001600160a01b0316426040516024018085815260200180602001846001600160a01b03166001600160a01b03168152602001838152602001828103825285818151815260200191508051906020019060200280838360005b83811015611618578181015183820152602001611600565b5050505090500195505050505050604051602081830303815290604052906001600160e01b0319166020820180516001600160e01b038381831617835250505050600060019054906101000a90046001600160a01b03168a6040518563ffffffff1660e01b815260040180856001600160a01b03166001600160a01b0316815260200180602001846001600160a01b03166001600160a01b0316815260200183815260200182810382528581815181526020019150805190602001908083836000838110156112a0578181015183820152602001611288565b6001600160a01b038716611b3a57878360008151811061170d57fe5b6001600160a01b03928316602091820292909201810191909152600154604080516315ab88c960e31b81529051919093169263ad5c4648926004808301939192829003018186803b15801561176157600080fd5b505afa158015611775573d6000803e3d6000fd5b505050506040513d602081101561178b57600080fd5b505183518490600190811061179c57fe5b60200260200101906001600160a01b031690816001600160a01b0316815250506117c68887611c84565b836001600160a01b031663d1b7089a600160009054906101000a90046001600160a01b0316600160009054906101000a90046001600160a01b03166001600160a01b03166318cbafe5905060e01b898988600060019054906101000a90046001600160a01b0316426040516024018086815260200185815260200180602001846001600160a01b03166001600160a01b03168152602001838152602001828103825285818151815260200191508051906020019060200280838360005b8381101561189b578181015183820152602001611883565b505050509050019650505050505050604051602081830303815290604052906001600160e01b0319166020820180516001600160e01b038381831617835250505050600060019054906101000a90046001600160a01b031660006040518563ffffffff1660e01b815260040180856001600160a01b03166001600160a01b0316815260200180602001846001600160a01b03166001600160a01b03168152602001838152602001828103825285818151815260200191508051906020019080838360005b8381101561197757818101518382015260200161195f565b50505050905090810190601f1680156119a45780820380516001836020036101000a031916815260200191505b5095505050505050600060405180830381600087803b1580156119c657600080fd5b505af11580156119da573d6000803e3d6000fd5b505050506040513d6000823e601f3d908101601f191682016040908152811015611a0357600080fd5b815160208301805160405192949293830192919084600160201b821115611a2957600080fd5b908301906020820185811115611a3e57600080fd5b8251600160201b811182820188101715611a5757600080fd5b82525081516020918201929091019080838360005b83811015611a84578181015183820152602001611a6c565b50505050905090810190601f168015611ab15780820380516001836020036101000a031916815260200191505b50604081810190526019815278155b9a5cddd85c141c9bde1e4e881cddd85c0819985a5b1959603a1b6020820152939650939450919250839150611b3890505760405162461bcd60e51b81526020600482018181528351602484015283519092839260449091019190850190808383600083156103b557818101518382015260200161039d565b505b866001600160a01b0316886001600160a01b03167f9734819749a91fc3be03ea83205f924ee08479bd3f0da48efc91d94d050cac1e8888611b7a876122b1565b60408051938452602084019290925282820152519081900360600190a35050505050505050565b600082611bb057506000611bfd565b82820282848281611bbd57fe5b0414611bfa5760405162461bcd60e51b81526004018080602001828103825260218152602001806124026021913960400191505060405180910390fd5b90505b92915050565b6000611bfa83836040518060400160405280601a815260200179536166654d6174683a206469766973696f6e206279207a65726f60301b8152506122b8565b6000611bfa83836040518060400160405280601e81526020017f536166654d6174683a207375627472616374696f6e206f766572666c6f77000081525061231d565b60008060019054906101000a90046001600160a01b03166001600160a01b0316638da5cb5b6040518163ffffffff1660e01b815260040160206040518083038186803b158015611cd357600080fd5b505afa158015611ce7573d6000803e3d6000fd5b505050506040513d6020811015611cfd57600080fd5b50516000805460015460408051636eb1769f60e11b81526101009093046001600160a01b0390811660048501529182166024840152519394509192839287169163dd62ed3e916044808301926020929190829003018186803b158015611d6257600080fd5b505afa158015611d76573d6000803e3d6000fd5b505050506040513d6020811015611d8c57600080fd5b5051111561200257600154604080516001600160a01b0392831660248083019190915260006044808401829052845180850382018152606494850186526020810180516001600160e01b031663095ea7b360e01b178152835496516368db844d60e11b81528c89166004820190815261010090980489169381018490529586018490526080948601948552815160848701528151978a169763d1b7089a978d9793969495949093909260a490910191808383885b83811015611e58578181015183820152602001611e40565b50505050905090810190601f168015611e855780820380516001836020036101000a031916815260200191505b5095505050505050600060405180830381600087803b158015611ea757600080fd5b505af1158015611ebb573d6000803e3d6000fd5b505050506040513d6000823e601f3d908101601f191682016040908152811015611ee457600080fd5b815160208301805160405192949293830192919084600160201b821115611f0a57600080fd5b908301906020820185811115611f1f57600080fd5b8251600160201b811182820188101715611f3857600080fd5b82525081516020918201929091019080838360005b83811015611f65578181015183820152602001611f4d565b50505050905090810190601f168015611f925780820380516001836020036101000a031916815260200191505b506060810160405260238082529596508695909450925061239b9150506020830139906120005760405162461bcd60e51b81526020600482018181528351602484015283519092839260449091019190850190808383600083156103b557818101518382015260200161039d565b505b600154604080516001600160a01b039283166024808301919091526044808301889052835180840382018152606493840185526020810180516001600160e01b031663095ea7b360e01b1781526000805496516368db844d60e11b81528c89166004820190815261010090980489169481018590529586018190526080948601948552825160848701528251978a169763d1b7089a978d9794969294909360a490910191808383885b838110156120c35781810151838201526020016120ab565b50505050905090810190601f1680156120f05780820380516001836020036101000a031916815260200191505b5095505050505050600060405180830381600087803b15801561211257600080fd5b505af1158015612126573d6000803e3d6000fd5b505050506040513d6000823e601f3d908101601f19168201604090815281101561214f57600080fd5b815160208301805160405192949293830192919084600160201b82111561217557600080fd5b90830190602082018581111561218a57600080fd5b8251600160201b8111828201881017156121a357600080fd5b82525081516020918201929091019080838360005b838110156121d05781810151838201526020016121b8565b50505050905090810190601f1680156121fd5780820380516001836020036101000a031916815260200191505b506060810160405260238082529596508695909450925061239b9150506020830139906104e85760405162461bcd60e51b81526020600482018181528351602484015283519092839260449091019190850190808383600083156103b557818101518382015260200161039d565b600080806001600160a01b038516612297576020840151915060408401519250606084015190506122aa565b5050506020810151604082015160608301515b9250925092565b6080015190565b600081836123075760405162461bcd60e51b81526020600482018181528351602484015283519092839260449091019190850190808383600083156103b557818101518382015260200161039d565b50600083858161231357fe5b0495945050505050565b6000818484111561236f5760405162461bcd60e51b81526020600482018181528351602484015283519092839260449091019190850190808383600083156103b557818101518382015260200161039d565b50505090039056fe556e697377617050726f78793a206176617461722063616e6e6f74206265206e756c6c556e697377617050726f78793a20455243323020617070726f76616c206661696c6564556e697377617050726f78793a2070726f746563746564206f7065726174696f6e556e697377617050726f78793a20726f757465722063616e6e6f74206265206e756c6c536166654d6174683a206d756c7469706c69636174696f6e206f766572666c6f77556e697377617050726f78793a20616c726561647920696e697469616c697a6564556e697377617050726f78793a206e6f7420696e697469616c697a6564000000a265627a7a72315820078401f8a78c20b33a447208917c631b441212afbe5b662030933f247a7a514264736f6c634300050d0032",
  "devdoc": {
    "details": "Enable necDAO to swap tokens and provide liquidity through UniswapV2 pairs.",
    "methods": {
      "initialize(address,address)": {
        "details": "Initialize proxy.",
        "params": {
          "_avatar": "The address of the Avatar controlling this proxy.",
          "_router": "The address of the UniswapV2 router through which this proxy will interact with UniswapV2."
        }
      },
      "pool(address,address,uint256,uint256,uint256)": {
        "details": "Pool tokens.",
        "params": {
          "_amount1": "The amount of `_token1` to pool.",
          "_amount2": "The amount of `_token2` to pool.",
          "_slippage": "The allowed price slippage [reverts otherwise].",
          "_token1": "The address of the pair's first token [address(0) for ETH].",
          "_token2": "The address of the pair's second token [address(0) for ETH]."
        }
      },
      "swap(address,address,uint256,uint256)": {
        "details": "Swap tokens.",
        "params": {
          "_amount": "The amount of `_from` token to swap.",
          "_expected": "The minimum amount of `_to` token to expect in return for the swap [reverts otherwise].",
          "_from": "The address of the token to swap from [address(0) for ETH].",
          "_to": "The address of the token to swap to [address(0) for ETH]."
        }
      }
    },
    "title": "A UniswapV2 proxy made with  for the necDAO folks"
  },
  "userdoc": {
    "methods": {}
  },
  "storageLayout": {
    "storage": [
      {
        "astId": 8180,
        "contract": "contracts/UniswapProxy.sol:UniswapProxy",
        "label": "initialized",
        "offset": 0,
        "slot": "0",
        "type": "t_bool"
      },
      {
        "astId": 8182,
        "contract": "contracts/UniswapProxy.sol:UniswapProxy",
        "label": "avatar",
        "offset": 1,
        "slot": "0",
        "type": "t_contract(Avatar)279"
      },
      {
        "astId": 8184,
        "contract": "contracts/UniswapProxy.sol:UniswapProxy",
        "label": "router",
        "offset": 0,
        "slot": "1",
        "type": "t_contract(IUniswapV2Router02)9318"
      }
    ],
    "types": {
      "t_bool": {
        "encoding": "inplace",
        "label": "bool",
        "numberOfBytes": "1"
      },
      "t_contract(Avatar)279": {
        "encoding": "inplace",
        "label": "contract Avatar",
        "numberOfBytes": "20"
      },
      "t_contract(IUniswapV2Router02)9318": {
        "encoding": "inplace",
        "label": "contract IUniswapV2Router02",
        "numberOfBytes": "20"
      }
    }
  },
  "gasEstimates": {
    "creation": {
      "codeDepositCost": "1873600",
      "executionCost": "1976",
      "totalCost": "1875576"
    },
    "external": {
      "avatar()": "470",
      "initialize(address,address)": "infinite",
      "initialized()": "388",
      "pool(address,address,uint256,uint256,uint256)": "infinite",
      "router()": "503",
      "swap(address,address,uint256,uint256)": "infinite"
    },
    "internal": {
      "_approve(address,uint256)": "infinite",
      "_parsePoolReturn(address,bytes memory)": "infinite",
      "_parseSwapReturn(bytes memory)": "infinite",
      "_pool(address,address,uint256,uint256,uint256)": "infinite",
      "_swap(address,address,uint256,uint256)": "infinite"
    }
  }
}