{
  "abi": [
    {
      "anonymous": false,
      "inputs": [
        {
          "indexed": false,
          "internalType": "address",
          "name": "from",
          "type": "address"
        },
        {
          "indexed": false,
          "internalType": "address",
          "name": "to",
          "type": "address"
        },
        {
          "indexed": false,
          "internalType": "uint256",
          "name": "amount",
          "type": "uint256"
        },
        {
          "indexed": false,
          "internalType": "uint256",
          "name": "expected",
          "type": "uint256"
        },
        {
          "indexed": false,
          "internalType": "uint256",
          "name": "returned",
          "type": "uint256"
        }
      ],
      "name": "Swap",
      "type": "event"
    },
    {
      "constant": true,
      "inputs": [],
      "name": "avatar",
      "outputs": [
        {
          "internalType": "contract Avatar",
          "name": "",
          "type": "address"
        }
      ],
      "payable": false,
      "stateMutability": "view",
      "type": "function"
    },
    {
      "constant": false,
      "inputs": [
        {
          "internalType": "contract Avatar",
          "name": "_avatar",
          "type": "address"
        },
        {
          "internalType": "contract IUniswapV2Router02",
          "name": "_router",
          "type": "address"
        }
      ],
      "name": "initialize",
      "outputs": [],
      "payable": false,
      "stateMutability": "nonpayable",
      "type": "function"
    },
    {
      "constant": true,
      "inputs": [],
      "name": "initialized",
      "outputs": [
        {
          "internalType": "bool",
          "name": "",
          "type": "bool"
        }
      ],
      "payable": false,
      "stateMutability": "view",
      "type": "function"
    },
    {
      "constant": true,
      "inputs": [],
      "name": "router",
      "outputs": [
        {
          "internalType": "contract IUniswapV2Router02",
          "name": "",
          "type": "address"
        }
      ],
      "payable": false,
      "stateMutability": "view",
      "type": "function"
    },
    {
      "constant": false,
      "inputs": [
        {
          "internalType": "address",
          "name": "_from",
          "type": "address"
        },
        {
          "internalType": "address",
          "name": "_to",
          "type": "address"
        },
        {
          "internalType": "uint256",
          "name": "_amount",
          "type": "uint256"
        },
        {
          "internalType": "uint256",
          "name": "_expected",
          "type": "uint256"
        }
      ],
      "name": "swap",
      "outputs": [],
      "payable": false,
      "stateMutability": "nonpayable",
      "type": "function"
    }
  ],
  "address": "0xE115f06D1DF7526D4cdbcffb9395399Af0620039",
  "args": [],
  "solcInputHash": "0x454850b01023264a573239b7b66e0907d71c4546daa12ae42c7804710b084501",
  "bytecode": "0x608060405234801561001057600080fd5b5061128c806100206000396000f3fe608060405234801561001057600080fd5b50600436106100575760003560e01c8063158ef93e1461005c578063485cc955146100785780635aef7de6146100a8578063f887ea40146100cc578063fe029156146100d4575b600080fd5b610064610110565b604080519115158252519081900360200190f35b6100a66004803603604081101561008e57600080fd5b506001600160a01b0381358116916020013516610119565b005b6100b06101e1565b604080516001600160a01b039092168252519081900360200190f35b6100b06101f5565b6100a6600480360360808110156100ea57600080fd5b506001600160a01b03813581169160208101359091169060408101359060600135610204565b60005460ff1681565b60005460ff161561015b5760405162461bcd60e51b81526004018080602001828103825260278152602001806112316027913960400191505060405180910390fd5b6001600160a01b0382166101a05760405162461bcd60e51b81526004018080602001828103825260238152602001806111be6023913960400191505060405180910390fd5b60008054600160ff199091168117610100600160a81b0319166101006001600160a01b03958616021790915580546001600160a01b03191691909216179055565b60005461010090046001600160a01b031681565b6001546001600160a01b031681565b60005460ff166102455760405162461bcd60e51b815260040180806020018281038252602381526020018061119b6023913960400191505060405180910390fd5b60005461010090046001600160a01b031633146102a9576040805162461bcd60e51b815260206004820181905260248201527f556e697377617050726f78793a2070726f7465637465642066756e6374696f6e604482015290519081900360640190fd5b600082116102e85760405162461bcd60e51b81526004018080602001828103825260218152602001806111e16021913960400191505060405180910390fd5b826001600160a01b0316846001600160a01b0316141561034f576040805162461bcd60e51b815260206004820152601f60248201527f556e697377617050726f78793a20696e76616c69642073776170207061697200604482015290519081900360640190fd5b61035b84848484610361565b50505050565b60008060019054906101000a90046001600160a01b03166001600160a01b0316638da5cb5b6040518163ffffffff1660e01b815260040160206040518083038186803b1580156103b057600080fd5b505afa1580156103c4573d6000803e3d6000fd5b505050506040513d60208110156103da57600080fd5b5051604080516002808252606080830184529394509091602083019080388339019050509050606060006001600160a01b0388161580159061042457506001600160a01b03871615155b15610a8857878360008151811061043757fe5b60200260200101906001600160a01b031690816001600160a01b031681525050868360018151811061046557fe5b60200260200101906001600160a01b031690816001600160a01b031681525050836001600160a01b031663d1b7089a898a6001600160a01b031663095ea7b3905060e01b600160009054906101000a90046001600160a01b03168a60405160240180836001600160a01b03166001600160a01b0316815260200182815260200192505050604051602081830303815290604052906001600160e01b0319166020820180516001600160e01b038381831617835250505050600060019054906101000a90046001600160a01b031660006040518563ffffffff1660e01b815260040180856001600160a01b03166001600160a01b0316815260200180602001846001600160a01b03166001600160a01b03168152602001838152602001828103825285818151815260200191508051906020019080838360005b838110156105b657818101518382015260200161059e565b50505050905090810190601f1680156105e35780820380516001836020036101000a031916815260200191505b5095505050505050600060405180830381600087803b15801561060557600080fd5b505af1158015610619573d6000803e3d6000fd5b505050506040513d6000823e601f3d908101601f19168201604090815281101561064257600080fd5b815160208301805160405192949293830192919084600160201b82111561066857600080fd5b90830190602082018581111561067d57600080fd5b8251600160201b81118282018810171561069657600080fd5b82525081516020918201929091019080838360005b838110156106c35781810151838201526020016106ab565b50505050905090810190601f1680156106f05780820380516001836020036101000a031916815260200191505b5060405250505080935081925050508061073b5760405162461bcd60e51b815260040180806020018281038252602f815260200180611202602f913960400191505060405180910390fd5b836001600160a01b031663d1b7089a600160009054906101000a90046001600160a01b0316600160009054906101000a90046001600160a01b03166001600160a01b03166338ed1739905060e01b898988600060019054906101000a90046001600160a01b0316426040516024018086815260200185815260200180602001846001600160a01b03166001600160a01b03168152602001838152602001828103825285818151815260200191508051906020019060200280838360005b838110156108105781810151838201526020016107f8565b505050509050019650505050505050604051602081830303815290604052906001600160e01b0319166020820180516001600160e01b038381831617835250505050600060019054906101000a90046001600160a01b031660006040518563ffffffff1660e01b815260040180856001600160a01b03166001600160a01b0316815260200180602001846001600160a01b03166001600160a01b03168152602001838152602001828103825285818151815260200191508051906020019080838360005b838110156108ec5781810151838201526020016108d4565b50505050905090810190601f1680156109195780820380516001836020036101000a031916815260200191505b5095505050505050600060405180830381600087803b15801561093b57600080fd5b505af115801561094f573d6000803e3d6000fd5b505050506040513d6000823e601f3d908101601f19168201604090815281101561097857600080fd5b815160208301805160405192949293830192919084600160201b82111561099e57600080fd5b9083019060208201858111156109b357600080fd5b8251600160201b8111828201881017156109cc57600080fd5b82525081516020918201929091019080838360005b838110156109f95781810151838201526020016109e1565b50505050905090810190601f168015610a265780820380516001836020036101000a031916815260200191505b50604052505050809350819250505080610a83576040805162461bcd60e51b8152602060048201526019602482015278155b9a5cddd85c141c9bde1e4e881cddd85c0819985a5b1959603a1b604482015290519081900360640190fd5b611125565b6001600160a01b038816610d1257600160009054906101000a90046001600160a01b03166001600160a01b031663ad5c46486040518163ffffffff1660e01b815260040160206040518083038186803b158015610ae457600080fd5b505afa158015610af8573d6000803e3d6000fd5b505050506040513d6020811015610b0e57600080fd5b505183518490600090610b1d57fe5b60200260200101906001600160a01b031690816001600160a01b0316815250508683600181518110610b4b57fe5b60200260200101906001600160a01b031690816001600160a01b031681525050836001600160a01b031663d1b7089a600160009054906101000a90046001600160a01b0316600160009054906101000a90046001600160a01b03166001600160a01b0316637ff36ab5905060e01b8887600060019054906101000a90046001600160a01b0316426040516024018085815260200180602001846001600160a01b03166001600160a01b03168152602001838152602001828103825285818151815260200191508051906020019060200280838360005b83811015610c39578181015183820152602001610c21565b5050505090500195505050505050604051602081830303815290604052906001600160e01b0319166020820180516001600160e01b038381831617835250505050600060019054906101000a90046001600160a01b03168a6040518563ffffffff1660e01b815260040180856001600160a01b03166001600160a01b0316815260200180602001846001600160a01b03166001600160a01b0316815260200183815260200182810382528581815181526020019150805190602001908083836000838110156108ec5781810151838201526020016108d4565b6001600160a01b038716611125578783600081518110610d2e57fe5b6001600160a01b03928316602091820292909201810191909152600154604080516315ab88c960e31b81529051919093169263ad5c4648926004808301939192829003018186803b158015610d8257600080fd5b505afa158015610d96573d6000803e3d6000fd5b505050506040513d6020811015610dac57600080fd5b5051835184906001908110610dbd57fe5b60200260200101906001600160a01b031690816001600160a01b031681525050836001600160a01b031663d1b7089a600160009054906101000a90046001600160a01b0316600160009054906101000a90046001600160a01b03166001600160a01b03166318cbafe5905060e01b898988600060019054906101000a90046001600160a01b0316426040516024018086815260200185815260200180602001846001600160a01b03166001600160a01b03168152602001838152602001828103825285818151815260200191508051906020019060200280838360005b83811015610eb2578181015183820152602001610e9a565b505050509050019650505050505050604051602081830303815290604052906001600160e01b0319166020820180516001600160e01b038381831617835250505050600060019054906101000a90046001600160a01b031660006040518563ffffffff1660e01b815260040180856001600160a01b03166001600160a01b0316815260200180602001846001600160a01b03166001600160a01b03168152602001838152602001828103825285818151815260200191508051906020019080838360005b83811015610f8e578181015183820152602001610f76565b50505050905090810190601f168015610fbb5780820380516001836020036101000a031916815260200191505b5095505050505050600060405180830381600087803b158015610fdd57600080fd5b505af1158015610ff1573d6000803e3d6000fd5b505050506040513d6000823e601f3d908101601f19168201604090815281101561101a57600080fd5b815160208301805160405192949293830192919084600160201b82111561104057600080fd5b90830190602082018581111561105557600080fd5b8251600160201b81118282018810171561106e57600080fd5b82525081516020918201929091019080838360005b8381101561109b578181015183820152602001611083565b50505050905090810190601f1680156110c85780820380516001836020036101000a031916815260200191505b50604052505050809350819250505080611125576040805162461bcd60e51b8152602060048201526019602482015278155b9a5cddd85c141c9bde1e4e881cddd85c0819985a5b1959603a1b604482015290519081900360640190fd5b7f9734819749a91fc3be03ea83205f924ee08479bd3f0da48efc91d94d050cac1e8888888861115387611193565b604080516001600160a01b039687168152949095166020850152838501929092526060830152608082015290519081900360a00190a15050505050505050565b608001519056fe556e697377617050726f78793a2070726f7879206e6f7420696e697469616c697a6564556e697377617050726f78793a206176617461722063616e6e6f74206265206e756c6c556e697377617050726f78793a20696e76616c6964207377617020616d6f756e74556e697377617050726f78793a20455243323020617070726f76616c206661696c6564206265666f72652073776170556e697377617050726f78793a2070726f787920616c726561647920696e697469616c697a6564a265627a7a72315820f0512ccb2f813916ce343c7a87d81429c0fe16de093e6dd399df2ae520317def64736f6c634300050d0032",
  "devdoc": {
    "details": "We'll tell when we know",
    "methods": {
      "initialize(address,address)": {
        "details": "Initialize proxy.",
        "params": {
          "_avatar": "The address of the Avatar controlling this proxy.",
          "_router": "The address of the Uniswap router through which this proxy will interact with UniswapV2."
        }
      },
      "swap(address,address,uint256,uint256)": {
        "details": "Swap tokens.",
        "params": {
          "_amount": "The amount of `_from` token to swap.",
          "_expected": "The minimum amount of `_to` token to expect in return for the swap [reverts otherwise].",
          "_from": "The address of the token to swap from [address(0) for ETH].",
          "_to": "The address of the token to swap to [address(0) for ETH]."
        }
      }
    },
    "title": "A UniswapV2 proxy made with  for the necDAO folks"
  },
  "userdoc": {
    "methods": {}
  },
  "storageLayout": {
    "storage": [
      {
        "astId": 8400,
        "contract": "contracts/UniswapProxy.sol:UniswapProxy",
        "label": "initialized",
        "offset": 0,
        "slot": "0",
        "type": "t_bool"
      },
      {
        "astId": 8402,
        "contract": "contracts/UniswapProxy.sol:UniswapProxy",
        "label": "avatar",
        "offset": 1,
        "slot": "0",
        "type": "t_contract(Avatar)279"
      },
      {
        "astId": 8404,
        "contract": "contracts/UniswapProxy.sol:UniswapProxy",
        "label": "router",
        "offset": 0,
        "slot": "1",
        "type": "t_contract(IUniswapV2Router02)9501"
      }
    ],
    "types": {
      "t_bool": {
        "encoding": "inplace",
        "label": "bool",
        "numberOfBytes": "1"
      },
      "t_contract(Avatar)279": {
        "encoding": "inplace",
        "label": "contract Avatar",
        "numberOfBytes": "20"
      },
      "t_contract(IUniswapV2Router02)9501": {
        "encoding": "inplace",
        "label": "contract IUniswapV2Router02",
        "numberOfBytes": "20"
      }
    }
  },
  "gasEstimates": {
    "creation": {
      "codeDepositCost": "949600",
      "executionCost": "988",
      "totalCost": "950588"
    },
    "external": {
      "avatar()": "470",
      "initialize(address,address)": "infinite",
      "initialized()": "388",
      "router()": "481",
      "swap(address,address,uint256,uint256)": "infinite"
    },
    "internal": {
      "_parseSwapReturnAmount(bytes memory)": "infinite",
      "_swap(address,address,uint256,uint256)": "infinite"
    }
  }
}