{
  "contractName": "ControllerCreator",
  "abi": [
    {
      "constant": false,
      "inputs": [
        {
          "internalType": "contract Avatar",
          "name": "_avatar",
          "type": "address"
        }
      ],
      "name": "create",
      "outputs": [
        {
          "internalType": "address",
          "name": "",
          "type": "address"
        }
      ],
      "payable": false,
      "stateMutability": "nonpayable",
      "type": "function"
    }
  ],
  "bytecode": "0x608060405234801561001057600080fd5b50613d47806100206000396000f3fe608060405234801561001057600080fd5b506004361061002b5760003560e01c80639ed9331814610030575b600080fd5b6100566004803603602081101561004657600080fd5b50356001600160a01b0316610072565b604080516001600160a01b039092168252519081900360200190f35b60008082604051610082906101ca565b6001600160a01b03909116815260405190819003602001906000f0801580156100af573d6000803e3d6000fd5b506040805163e869d45f60e01b8152336004820152600060248201819052601f60e01b60448301526001600160a01b03878116606484015292519394509184169263e869d45f92608480840193602093929083900390910190829087803b15801561011957600080fd5b505af115801561012d573d6000803e3d6000fd5b505050506040513d602081101561014357600080fd5b50506040805163039de01d60e01b81523060048201526001600160a01b03858116602483015291519183169163039de01d916044808201926020929091908290030181600087803b15801561019757600080fd5b505af11580156101ab573d6000803e3d6000fd5b505050506040513d60208110156101c157600080fd5b50909392505050565b613b3b806101d88339019056fe60806040523480156200001157600080fd5b5060405162003b3b38038062003b3b833981810160405260208110156200003757600080fd5b5051600180546001600160a01b0319166001600160a01b038084169190911791829055604080517fe1758bd80000000000000000000000000000000000000000000000000000000081529051929091169163e1758bd891600480820192602092909190829003018186803b158015620000af57600080fd5b505afa158015620000c4573d6000803e3d6000fd5b505050506040513d6020811015620000db57600080fd5b5051600280546001600160a01b0319166001600160a01b03928316179055600154604080517f89ae1c90000000000000000000000000000000000000000000000000000000008152905191909216916389ae1c90916004808301926020929190829003018186803b1580156200015057600080fd5b505afa15801562000165573d6000803e3d6000fd5b505050506040513d60208110156200017c57600080fd5b5051600380546001600160a01b0319166001600160a01b0390921691909117905560408051808201825260008082527c1f0000000000000000000000000000000000000000000000000000000060208084019182523380845290839052848320935184559051600193909301805463ffffffff191660e09490941c939093179092559151909182917f546816e99403df442acb68ef69562682a50762c20a3fb6b472f7af9923736cfc9190a35061390280620002396000396000f3fe608060405234801561001057600080fd5b50600436106101755760003560e01c8063039de01d1461017a578063177eebb0146101bc5780631c4d5608146101fd5780633a02263c1461023d57806342427bf8146102615780634422d3721461028f5780634f52b5be146102cf57806351803cd8146102fd5780635aef7de614610339578063634965da146103415780636407e432146103755780636c525b13146103a95780636e94d278146103cf578063814784f614610403578063824f2f1f1461042957806389ae1c90146104685780638da03997146104705780639b51e35a146104965780639be2faed146104e1578063b9a04cdd1461050f578063c9b62eb11461054b578063d1b7089a146105c2578063db6149ce146106d2578063e08738da1461071a578063e1758bd814610748578063e4537a7414610750578063e869d45f14610786578063e8c98b22146107ca578063eaf994b2146107e7578063f76488be1461081b578063fb4856a214610849575b600080fd5b6101a86004803603604081101561019057600080fd5b506001600160a01b038135811691602001351661088f565b604080519115158252519081900360200190f35b6101e2600480360360208110156101d257600080fd5b50356001600160a01b0316610b83565b60408051921515835260208301919091528051918290030190f35b61022b6004803603604081101561021357600080fd5b506001600160a01b0381358116916020013516610ba2565b60408051918252519081900360200190f35b610245610be4565b604080516001600160a01b039092168252519081900360200190f35b6101a86004803603604081101561027757600080fd5b506001600160a01b0381358116916020013516610bf3565b6102ac600480360360208110156102a557600080fd5b50356110b5565b604080516001600160a01b03909316835260208301919091528051918290030190f35b6101a8600480360360408110156102e557600080fd5b506001600160a01b03813581169160200135166110ea565b6101a86004803603608081101561031357600080fd5b506001600160a01b038135811691602081013582169160408201359160600135166114e5565b6102456117c9565b6101a86004803603606081101561035757600080fd5b508035906001600160a01b03602082013581169160400135166117d8565b6101a86004803603606081101561038b57600080fd5b508035906001600160a01b0360208201358116916040013516611a9f565b6101a8600480360360208110156103bf57600080fd5b50356001600160a01b0316611d9e565b6101a8600480360360608110156103e557600080fd5b508035906001600160a01b0360208201358116916040013516611e13565b6101e26004803603602081101561041957600080fd5b50356001600160a01b0316612116565b61044f6004803603602081101561043f57600080fd5b50356001600160a01b0316612135565b6040805192835260208301919091528051918290030190f35b610245612167565b6102456004803603602081101561048657600080fd5b50356001600160a01b0316612176565b6104c4600480360360408110156104ac57600080fd5b506001600160a01b03813581169160200135166121a8565b604080516001600160e01b03199092168252519081900360200190f35b6101a8600480360360408110156104f757600080fd5b506001600160a01b03813581169160200135166121eb565b6101a86004803603608081101561052557600080fd5b506001600160a01b0381358116916020810135821691604082013591606001351661221b565b6101a86004803603604081101561056157600080fd5b810190602081018135600160201b81111561057b57600080fd5b82018360208201111561058d57600080fd5b803590602001918460018302840111600160201b831117156105ae57600080fd5b9193509150356001600160a01b03166124ed565b61064f600480360360808110156105d857600080fd5b6001600160a01b038235169190810190604081016020820135600160201b81111561060257600080fd5b82018360208201111561061457600080fd5b803590602001918460018302840111600160201b8311171561063557600080fd5b91935091506001600160a01b0381351690602001356125dd565b604051808315151515815260200180602001828103825283818151815260200191508051906020019080838360005b8381101561069657818101518382015260200161067e565b50505050905090810190601f1680156106c35780820380516001836020036101000a031916815260200191505b50935050505060405180910390f35b6106f8600480360360208110156106e857600080fd5b50356001600160a01b03166129ac565b604080519283526001600160e01b031990911660208301528051918290030190f35b61022b6004803603604081101561073057600080fd5b506001600160a01b03813581169160200135166129c8565b610245612a94565b6101a86004803603606081101561076657600080fd5b506001600160a01b03813581169160208101359160409091013516612aa3565b6101a86004803603608081101561079c57600080fd5b506001600160a01b0381358116916020810135916001600160e01b0319604083013516916060013516612e6f565b6102ac600480360360208110156107e057600080fd5b50356131ac565b6101a8600480360360608110156107fd57600080fd5b508035906001600160a01b03602082013581169160400135166131b9565b6101a86004803603604081101561083157600080fd5b506001600160a01b03813581169160200135166134bc565b6101a8600480360360a081101561085f57600080fd5b506001600160a01b038135811691602081013582169160408201358116916060810135916080909101351661351e565b3360009081526020819052604081206001015460e01b600160e11b908116146108b757600080fd5b6f756e7265676973746572536368656d6560801b60005b6005548110156109be57600581815481106108e557fe5b6000918252602090912060029091020154600580546001600160a01b039092169163c1786ab29133918590811061091857fe5b906000526020600020906002020160010154856040518463ffffffff1660e01b815260040180846001600160a01b03166001600160a01b031681526020018381526020018281526020019350505050602060405180830381600087803b15801561098157600080fd5b505af1158015610995573d6000803e3d6000fd5b505050506040513d60208110156109ab57600080fd5b50516109b657600080fd5b6001016108ce565b60015484906001600160a01b038083169116146109da57600080fd5b6109e386613807565b6109f05760009350610a85565b336000908152602081905260408082206001908101546001600160a01b038a168452919092209091015460e091821b19911b16601f60e01b1615610a3357600080fd5b6040516001600160a01b0387169033906000805160206138ae83398151915290600090a36001600160a01b03861660009081526020819052604081209081556001908101805463ffffffff1916905593505b50600090505b600654811015610b7b5760068181548110610aa257fe5b6000918252602090912060029091020154600680546001600160a01b0390921691638043154d91339185908110610ad557fe5b906000526020600020906002020160010154856040518463ffffffff1660e01b815260040180846001600160a01b03166001600160a01b031681526020018381526020018281526020019350505050602060405180830381600087803b158015610b3e57600080fd5b505af1158015610b52573d6000803e3d6000fd5b505050506040513d6020811015610b6857600080fd5b5051610b7357600080fd5b600101610a8b565b505092915050565b6007602052600090815260409020805460019091015460ff9091169082565b60015460009082906001600160a01b03808316911614610bc157600080fd5b6001600160a01b03841660009081526020819052604090205491505b5092915050565b6004546001600160a01b031681565b3360009081526020819052604081206001015460e01b600160e31b90811614610c1b57600080fd5b60015482906001600160a01b03808316911614610c3757600080fd5b6004546001600160a01b031615610c4d57600080fd5b6001600160a01b038416610c6057600080fd5b600480546001600160a01b0319166001600160a01b0386811691821783556001546040805163f2fde38b60e01b815294850193909352915191169163f2fde38b91602480830192600092919082900301818387803b158015610cc157600080fd5b505af1158015610cd5573d6000803e3d6000fd5b50505050836001600160a01b0316600160009054906101000a90046001600160a01b03166001600160a01b0316638da5cb5b6040518163ffffffff1660e01b815260040160206040518083038186803b158015610d3157600080fd5b505afa158015610d45573d6000803e3d6000fd5b505050506040513d6020811015610d5b57600080fd5b50516001600160a01b031614610d7057600080fd5b60025460408051638da5cb5b60e01b8152905130926001600160a01b031691638da5cb5b916004808301926020929190829003018186803b158015610db457600080fd5b505afa158015610dc8573d6000803e3d6000fd5b505050506040513d6020811015610dde57600080fd5b50516001600160a01b03161415610eec576002546040805163f2fde38b60e01b81526001600160a01b0387811660048301529151919092169163f2fde38b91602480830192600092919082900301818387803b158015610e3d57600080fd5b505af1158015610e51573d6000803e3d6000fd5b50505050836001600160a01b0316600260009054906101000a90046001600160a01b03166001600160a01b0316638da5cb5b6040518163ffffffff1660e01b815260040160206040518083038186803b158015610ead57600080fd5b505afa158015610ec1573d6000803e3d6000fd5b505050506040513d6020811015610ed757600080fd5b50516001600160a01b031614610eec57600080fd5b60035460408051638da5cb5b60e01b8152905130926001600160a01b031691638da5cb5b916004808301926020929190829003018186803b158015610f3057600080fd5b505afa158015610f44573d6000803e3d6000fd5b505050506040513d6020811015610f5a57600080fd5b50516001600160a01b03161415611068576003546040805163f2fde38b60e01b81526001600160a01b0387811660048301529151919092169163f2fde38b91602480830192600092919082900301818387803b158015610fb957600080fd5b505af1158015610fcd573d6000803e3d6000fd5b50505050836001600160a01b0316600360009054906101000a90046001600160a01b03166001600160a01b0316638da5cb5b6040518163ffffffff1660e01b815260040160206040518083038186803b15801561102957600080fd5b505afa15801561103d573d6000803e3d6000fd5b505050506040513d602081101561105357600080fd5b50516001600160a01b03161461106857600080fd5b600454604080516001600160a01b039290921682525130917fdb7cbacf8df312d794506c0cc9af07f64d29ca075796ea2e950a3832cc9a63dd919081900360200190a25060019392505050565b600581815481106110c257fe5b6000918252602090912060029091020180546001909101546001600160a01b03909116915082565b3360009081526020819052604081206001015460e01b600160e21b9081161461111257600080fd5b60015482906001600160a01b0380831691161461112e57600080fd5b611136613833565b61113e613833565b6000866001600160a01b031663e2b0caef6040518163ffffffff1660e01b8152600401602060405180830381600087803b15801561117b57600080fd5b505af115801561118f573d6000803e3d6000fd5b505050506040513d60208110156111a557600080fd5b505190506000808260028111156111b857fe5b14806111cf575060028260028111156111cd57fe5b145b15611313576001600160a01b0388166000908152600760209081526040918290208251808401909352805460ff1615801584526001909101549183019190915290945061131357600160058054905003846020015110156112d45760058054600019810190811061123c57fe5b60009182526020918290206040805180820190915260029092020180546001600160a01b03168252600101548183015290850151600580549295508592909190811061128457fe5b6000918252602080832084516002939093020180546001600160a01b0319166001600160a01b03938416178155938101516001948501558781015187519092168352600790526040909120909101555b60058054906112e790600019830161384a565b50506001600160a01b0387166000908152600760205260408120805460ff191681556001908101919091555b600182600281111561132157fe5b14806113385750600282600281111561133657fe5b145b1561147c576001600160a01b0388166000908152600860209081526040918290208251808401909352805460ff1615801584526001909101549183019190915290945061147c576001600680549050038460200151101561143d576006805460001981019081106113a557fe5b60009182526020918290206040805180820190915260029092020180546001600160a01b0316825260010154818301529085015160068054929550859290919081106113ed57fe5b6000918252602080832084516002939093020180546001600160a01b0319166001600160a01b03938416178155938101516001948501558781015187519092168352600890526040909120909101555b600680549061145090600019830161384a565b50506001600160a01b0387166000908152600860205260408120805460ff191681556001908101919091555b80156114da5760208401516001600160a01b038916907fcdf1a50ea6b7de555bd409f8a4a53ea43c6dc6b4caa961889da9e005f21bbaa99060008560028111156114c257fe5b60408051938452911460208301528051918290030190a25b979650505050505050565b3360009081526020819052604081206001015460e01b600160e01b9081161461150d57600080fd5b7f65787465726e616c546f6b656e496e637265617365417070726f76616c00000060005b600554811015611621576005818154811061154857fe5b6000918252602090912060029091020154600580546001600160a01b039092169163c1786ab29133918590811061157b57fe5b906000526020600020906002020160010154856040518463ffffffff1660e01b815260040180846001600160a01b03166001600160a01b031681526020018381526020018281526020019350505050602060405180830381600087803b1580156115e457600080fd5b505af11580156115f8573d6000803e3d6000fd5b505050506040513d602081101561160e57600080fd5b505161161957600080fd5b600101611531565b60015484906001600160a01b0380831691161461163d57600080fd5b6001546040805163ab751f7160e01b81526001600160a01b038b811660048301528a81166024830152604482018a90529151919092169163ab751f719160648083019260209291908290030181600087803b15801561169b57600080fd5b505af11580156116af573d6000803e3d6000fd5b505050506040513d60208110156116c557600080fd5b5051935050600090505b6006548110156117bf57600681815481106116e657fe5b6000918252602090912060029091020154600680546001600160a01b0390921691638043154d9133918590811061171957fe5b906000526020600020906002020160010154856040518463ffffffff1660e01b815260040180846001600160a01b03166001600160a01b031681526020018381526020018281526020019350505050602060405180830381600087803b15801561178257600080fd5b505af1158015611796573d6000803e3d6000fd5b505050506040513d60208110156117ac57600080fd5b50516117b757600080fd5b6001016116cf565b5050949350505050565b6001546001600160a01b031681565b3360009081526020819052604081206001015460e01b600160e01b9081161461180057600080fd5b6839b2b73222ba3432b960b91b60005b600554811015611900576005818154811061182757fe5b6000918252602090912060029091020154600580546001600160a01b039092169163c1786ab29133918590811061185a57fe5b906000526020600020906002020160010154856040518463ffffffff1660e01b815260040180846001600160a01b03166001600160a01b031681526020018381526020018281526020019350505050602060405180830381600087803b1580156118c357600080fd5b505af11580156118d7573d6000803e3d6000fd5b505050506040513d60208110156118ed57600080fd5b50516118f857600080fd5b600101611810565b60015484906001600160a01b0380831691161461191c57600080fd5b6001546040805163658b6a5160e11b8152600481018a90526001600160a01b0389811660248301529151919092169163cb16d4a29160448083019260209291908290030181600087803b15801561197257600080fd5b505af1158015611986573d6000803e3d6000fd5b505050506040513d602081101561199c57600080fd5b5051935050600090505b600654811015611a9657600681815481106119bd57fe5b6000918252602090912060029091020154600680546001600160a01b0390921691638043154d913391859081106119f057fe5b906000526020600020906002020160010154856040518463ffffffff1660e01b815260040180846001600160a01b03166001600160a01b031681526020018381526020018281526020019350505050602060405180830381600087803b158015611a5957600080fd5b505af1158015611a6d573d6000803e3d6000fd5b505050506040513d6020811015611a8357600080fd5b5051611a8e57600080fd5b6001016119a6565b50509392505050565b3360009081526020819052604081206001015460e01b600160e01b90811614611ac757600080fd5b696d696e74546f6b656e7360b01b60005b600554811015611bc85760058181548110611aef57fe5b6000918252602090912060029091020154600580546001600160a01b039092169163c1786ab291339185908110611b2257fe5b906000526020600020906002020160010154856040518463ffffffff1660e01b815260040180846001600160a01b03166001600160a01b031681526020018381526020018281526020019350505050602060405180830381600087803b158015611b8b57600080fd5b505af1158015611b9f573d6000803e3d6000fd5b505050506040513d6020811015611bb557600080fd5b5051611bc057600080fd5b600101611ad8565b60015484906001600160a01b03808316911614611be457600080fd5b6040805188815290516001600160a01b0388169133917f21f9c9a1a1f9a311a50f15fec5c1faa9e21fc9edf964f0fdecba5bd490484c5e9181900360200190a3600254604080516340c10f1960e01b81526001600160a01b038981166004830152602482018b9052915191909216916340c10f199160448083019260209291908290030181600087803b158015611c7a57600080fd5b505af1158015611c8e573d6000803e3d6000fd5b505050506040513d6020811015611ca457600080fd5b5051935050600090505b600654811015611a965760068181548110611cc557fe5b6000918252602090912060029091020154600680546001600160a01b0390921691638043154d91339185908110611cf857fe5b906000526020600020906002020160010154856040518463ffffffff1660e01b815260040180846001600160a01b03166001600160a01b031681526020018381526020018281526020019350505050602060405180830381600087803b158015611d6157600080fd5b505af1158015611d75573d6000803e3d6000fd5b505050506040513d6020811015611d8b57600080fd5b5051611d9657600080fd5b600101611cae565b60015460009082906001600160a01b03808316911614611dbd57600080fd5b611dc633613807565b611dd35760009150611e0d565b33600081815260208190526040808220828155600101805463ffffffff191690555182916000805160206138ae83398151915291a3600191505b50919050565b3360009081526020819052604081206001015460e01b600160e01b90811614611e3b57600080fd5b6d313ab9372932b83aba30ba34b7b760911b60005b600554811015611f405760058181548110611e6757fe5b6000918252602090912060029091020154600580546001600160a01b039092169163c1786ab291339185908110611e9a57fe5b906000526020600020906002020160010154856040518463ffffffff1660e01b815260040180846001600160a01b03166001600160a01b031681526020018381526020018281526020019350505050602060405180830381600087803b158015611f0357600080fd5b505af1158015611f17573d6000803e3d6000fd5b505050506040513d6020811015611f2d57600080fd5b5051611f3857600080fd5b600101611e50565b60015484906001600160a01b03808316911614611f5c57600080fd5b6040805188815290516001600160a01b0388169133917f186d8887e1b22f9d9b16849c36baa748950d09d9c9b67a4a6ea140eaad00c21c9181900360200190a360035460408051632770a7eb60e21b81526001600160a01b038981166004830152602482018b905291519190921691639dc29fac9160448083019260209291908290030181600087803b158015611ff257600080fd5b505af1158015612006573d6000803e3d6000fd5b505050506040513d602081101561201c57600080fd5b5051935050600090505b600654811015611a96576006818154811061203d57fe5b6000918252602090912060029091020154600680546001600160a01b0390921691638043154d9133918590811061207057fe5b906000526020600020906002020160010154856040518463ffffffff1660e01b815260040180846001600160a01b03166001600160a01b031681526020018381526020018281526020019350505050602060405180830381600087803b1580156120d957600080fd5b505af11580156120ed573d6000803e3d6000fd5b505050506040513d602081101561210357600080fd5b505161210e57600080fd5b600101612026565b6008602052600090815260409020805460019091015460ff9091169082565b600154600090819083906001600160a01b0380831691161461215657600080fd5b600554600654909350915050915091565b6003546001600160a01b031681565b60015460009082906001600160a01b0380831691161461219557600080fd5b50506003546001600160a01b0316919050565b60015460009082906001600160a01b038083169116146121c757600080fd5b5050506001600160a01b031660009081526020819052604090206001015460e01b90565b60015460009082906001600160a01b0380831691161461220a57600080fd5b61221384613807565b949350505050565b3360009081526020819052604081206001015460e01b600160e01b9081161461224357600080fd5b7432bc3a32b93730b62a37b5b2b72a3930b739b332b960591b60005b60055481101561234f576005818154811061227657fe5b6000918252602090912060029091020154600580546001600160a01b039092169163c1786ab2913391859081106122a957fe5b906000526020600020906002020160010154856040518463ffffffff1660e01b815260040180846001600160a01b03166001600160a01b031681526020018381526020018281526020019350505050602060405180830381600087803b15801561231257600080fd5b505af1158015612326573d6000803e3d6000fd5b505050506040513d602081101561233c57600080fd5b505161234757600080fd5b60010161225f565b60015484906001600160a01b0380831691161461236b57600080fd5b6001546040805163dab0efff60e01b81526001600160a01b038b811660048301528a81166024830152604482018a90529151919092169163dab0efff9160648083019260209291908290030181600087803b1580156123c957600080fd5b505af11580156123dd573d6000803e3d6000fd5b505050506040513d60208110156123f357600080fd5b5051935050600090505b6006548110156117bf576006818154811061241457fe5b6000918252602090912060029091020154600680546001600160a01b0390921691638043154d9133918590811061244757fe5b906000526020600020906002020160010154856040518463ffffffff1660e01b815260040180846001600160a01b03166001600160a01b031681526020018381526020018281526020019350505050602060405180830381600087803b1580156124b057600080fd5b505af11580156124c4573d6000803e3d6000fd5b505050506040513d60208110156124da57600080fd5b50516124e557600080fd5b6001016123fd565b3360009081526020819052604081206001015460e01b600160e41b9081161461251557600080fd5b60015482906001600160a01b0380831691161461253157600080fd5b600154604051632242b11b60e21b8152602060048201908152602482018790526001600160a01b039092169163890ac46c91889188918190604401848480828437600081840152601f19601f8201169050808301925050509350505050602060405180830381600087803b1580156125a857600080fd5b505af11580156125bc573d6000803e3d6000fd5b505050506040513d60208110156125d257600080fd5b505195945050505050565b3360009081526020819052604081206001015460609060e01b600160e41b9081161461260857600080fd5b6a19d95b995c9a58d0d85b1b60aa1b60005b60055481101561270a576005818154811061263157fe5b6000918252602090912060029091020154600580546001600160a01b039092169163c1786ab29133918590811061266457fe5b906000526020600020906002020160010154856040518463ffffffff1660e01b815260040180846001600160a01b03166001600160a01b031681526020018381526020018281526020019350505050602060405180830381600087803b1580156126cd57600080fd5b505af11580156126e1573d6000803e3d6000fd5b505050506040513d60208110156126f757600080fd5b505161270257600080fd5b60010161261a565b60015486906001600160a01b0380831691161461272657600080fd5b60015460405163057e2c8b60e31b81526001600160a01b038c811660048301908152604483018a9052606060248401908152606484018d90529190931692632bf16458928e928e928e928d9290608401858580828437600081840152601f19601f82011690508083019250505095505050505050600060405180830381600087803b1580156127b457600080fd5b505af11580156127c8573d6000803e3d6000fd5b505050506040513d6000823e601f3d908101601f1916820160409081528110156127f157600080fd5b815160208301805160405192949293830192919084600160201b82111561281757600080fd5b90830190602082018581111561282c57600080fd5b8251600160201b81118282018810171561284557600080fd5b82525081516020918201929091019080838360005b8381101561287257818101518382015260200161285a565b50505050905090810190601f16801561289f5780820380516001836020036101000a031916815260200191505b506040525050509450945050600090505b6006548110156129a057600681815481106128c757fe5b6000918252602090912060029091020154600680546001600160a01b0390921691638043154d913391859081106128fa57fe5b906000526020600020906002020160010154856040518463ffffffff1660e01b815260040180846001600160a01b03166001600160a01b031681526020018381526020018281526020019350505050602060405180830381600087803b15801561296357600080fd5b505af1158015612977573d6000803e3d6000fd5b505050506040513d602081101561298d57600080fd5b505161299857600080fd5b6001016128b0565b50509550959350505050565b6000602081905290815260409020805460019091015460e01b82565b60006129d2613833565b506001600160a01b0383166000908152600760209081526040918290208251808401909352805460ff16158015845260019091015491830191909152612a3d576005816020015181548110612a2357fe5b906000526020600020906002020160010154915050612a8e565b506001600160a01b0383166000908152600860209081526040918290208251808401909352805460ff16158015845260019091015491830191909152610bdd576006816020015181548110612a2357fe5b92915050565b6002546001600160a01b031681565b3360009081526020819052604081206001015460e01b600160e21b90811614612acb57600080fd5b60015482906001600160a01b03808316911614612ae757600080fd5b6000856001600160a01b031663e2b0caef6040518163ffffffff1660e01b8152600401602060405180830381600087803b158015612b2457600080fd5b505af1158015612b38573d6000803e3d6000fd5b505050506040513d6020811015612b4e57600080fd5b505190506000816002811115612b6057fe5b1480612b7757506002816002811115612b7557fe5b145b15612caf576001600160a01b03861660009081526007602052604090205460ff16612c6e576040805180820182526001600160a01b0388811680835260208084018a81526005805460018082018355600083815297517f036b6384b5eca791c62761152d0c79bb0604c104a5fb6f4eb0703f3154bb3db0600290930292830180546001600160a01b031916919098161790965591517f036b6384b5eca791c62761152d0c79bb0604c104a5fb6f4eb0703f3154bb3db190920191909155855180870187528481529054600019018183019081529285526007909152939092209251835460ff19169015151783559051910155612caf565b6001600160a01b038616600090815260076020526040902060010154600580548792908110612c9957fe5b9060005260206000209060020201600101819055505b6001816002811115612cbd57fe5b1480612cd457506002816002811115612cd257fe5b145b15612e0c576001600160a01b03861660009081526008602052604090205460ff16612dcb576040805180820182526001600160a01b0388811680835260208084018a81526006805460018082018355600083815297517ff652222313e28459528d920b65115c16c04f3efc82aaedc97be59f3f377c0d3f600290930292830180546001600160a01b031916919098161790965591517ff652222313e28459528d920b65115c16c04f3efc82aaedc97be59f3f377c0d4090920191909155855180870187528481529054600019018183019081529285526008909152939092209251835460ff19169015151783559051910155612e0c565b6001600160a01b038616600090815260086020526040902060010154600680548792908110612df657fe5b9060005260206000209060020201600101819055505b856001600160a01b03167f78800d7333b8d0174a0845569e3913b7ce4a3c03ca444dd9904172fc14f2fdad868360405180838152602001826002811115612e4f57fe5b60ff1681526020019250505060405180910390a250600195945050505050565b3360009081526020819052604081206001015460e01b600160e11b90811614612e9757600080fd5b6d7265676973746572536368656d6560901b60005b600554811015612f9c5760058181548110612ec357fe5b6000918252602090912060029091020154600580546001600160a01b039092169163c1786ab291339185908110612ef657fe5b906000526020600020906002020160010154856040518463ffffffff1660e01b815260040180846001600160a01b03166001600160a01b031681526020018381526020018281526020019350505050602060405180830381600087803b158015612f5f57600080fd5b505af1158015612f73573d6000803e3d6000fd5b505050506040513d6020811015612f8957600080fd5b5051612f9457600080fd5b600101612eac565b60015484906001600160a01b03808316911614612fb857600080fd5b612fc0613833565b506001600160a01b03881660009081526020818152604080832081518083018352815481526001918201546001600160e01b031960e091821b16828601908152338752948690529290942001549151891891901b1916601f60e01b161561302657600080fd5b336000908152602081815260409091206001015490820151601f60e01b60e09290921b1916161561305657600080fd5b6001600160a01b0389166000818152602081905260408082208b8155600101805463ffffffff1916600160e01b8c1760e01c1790555133917f546816e99403df442acb68ef69562682a50762c20a3fb6b472f7af9923736cfc91a3600194505050600090505b6006548110156117bf57600681815481106130d357fe5b6000918252602090912060029091020154600680546001600160a01b0390921691638043154d9133918590811061310657fe5b906000526020600020906002020160010154856040518463ffffffff1660e01b815260040180846001600160a01b03166001600160a01b031681526020018381526020018281526020019350505050602060405180830381600087803b15801561316f57600080fd5b505af1158015613183573d6000803e3d6000fd5b505050506040513d602081101561319957600080fd5b50516131a457600080fd5b6001016130bc565b600681815481106110c257fe5b3360009081526020819052604081206001015460e01b600160e01b908116146131e157600080fd5b6d36b4b73a2932b83aba30ba34b7b760911b60005b6005548110156132e6576005818154811061320d57fe5b6000918252602090912060029091020154600580546001600160a01b039092169163c1786ab29133918590811061324057fe5b906000526020600020906002020160010154856040518463ffffffff1660e01b815260040180846001600160a01b03166001600160a01b031681526020018381526020018281526020019350505050602060405180830381600087803b1580156132a957600080fd5b505af11580156132bd573d6000803e3d6000fd5b505050506040513d60208110156132d357600080fd5b50516132de57600080fd5b6001016131f6565b60015484906001600160a01b0380831691161461330257600080fd5b6040805188815290516001600160a01b0388169133917f837f2931e3df0592458212be4e470025f197feb7a8e39deb5b7f1f1d42e6f2629181900360200190a3600354604080516340c10f1960e01b81526001600160a01b038981166004830152602482018b9052915191909216916340c10f199160448083019260209291908290030181600087803b15801561339857600080fd5b505af11580156133ac573d6000803e3d6000fd5b505050506040513d60208110156133c257600080fd5b5051935050600090505b600654811015611a9657600681815481106133e357fe5b6000918252602090912060029091020154600680546001600160a01b0390921691638043154d9133918590811061341657fe5b906000526020600020906002020160010154856040518463ffffffff1660e01b815260040180846001600160a01b03166001600160a01b031681526020018381526020018281526020019350505050602060405180830381600087803b15801561347f57600080fd5b505af1158015613493573d6000803e3d6000fd5b505050506040513d60208110156134a957600080fd5b50516134b457600080fd5b6001016133cc565b60015460009082906001600160a01b038083169116146134db57600080fd5b6001600160a01b03841660009081526007602052604090205460ff168061221357505050506001600160a01b031660009081526008602052604090205460ff1690565b3360009081526020819052604081206001015460e01b600160e01b9081161461354657600080fd5b7865787465726e616c546f6b656e5472616e7366657246726f6d60381b60005b600554811015613656576005818154811061357d57fe5b6000918252602090912060029091020154600580546001600160a01b039092169163c1786ab2913391859081106135b057fe5b906000526020600020906002020160010154856040518463ffffffff1660e01b815260040180846001600160a01b03166001600160a01b031681526020018381526020018281526020019350505050602060405180830381600087803b15801561361957600080fd5b505af115801561362d573d6000803e3d6000fd5b505050506040513d602081101561364357600080fd5b505161364e57600080fd5b600101613566565b60015484906001600160a01b0380831691161461367257600080fd5b60015460408051635bab6ad160e11b81526001600160a01b038c811660048301528b811660248301528a81166044830152606482018a90529151919092169163b756d5a29160848083019260209291908290030181600087803b1580156136d857600080fd5b505af11580156136ec573d6000803e3d6000fd5b505050506040513d602081101561370257600080fd5b5051935050600090505b6006548110156137fc576006818154811061372357fe5b6000918252602090912060029091020154600680546001600160a01b0390921691638043154d9133918590811061375657fe5b906000526020600020906002020160010154856040518463ffffffff1660e01b815260040180846001600160a01b03166001600160a01b031681526020018381526020018281526020019350505050602060405180830381600087803b1580156137bf57600080fd5b505af11580156137d3573d6000803e3d6000fd5b505050506040513d60208110156137e957600080fd5b50516137f457600080fd5b60010161370c565b505095945050505050565b6001600160a01b03811660009081526020819052604090206001015460e01b600160e01b161515919050565b604080518082019091526000808252602082015290565b81548183558181111561387657600202816002028360005260206000209182019101613876919061387b565b505050565b6138aa91905b808211156138a65780546001600160a01b031916815560006001820155600201613881565b5090565b9056fe10bb2cf04cb8b902a8e736d494f1a51003be6d4b16ef6fb95ce62c38445023bfa265627a7a7231582040f10298edaa2d3b82cf45332ac5447031ac1a1b6478b1cda47de93965ed6ea764736f6c634300050d0032a265627a7a72315820aaa3168511cdb615ede57f1c554538687bdedb8cbd2e4fe7ac727e1ff759614f64736f6c634300050d0032",
  "source": "pragma solidity 0.5.13;\n\nimport \"./UniversalScheme.sol\";\nimport \"../controller/Controller.sol\";\nimport \"../utils/DAOTracker.sol\";\n\n\n/**\n * @title ControllerCreator for creating a single controller.\n */\ncontract ControllerCreator {\n\n    function create(Avatar _avatar) public returns(address) {\n        Controller controller = new Controller(_avatar);\n        controller.registerScheme(msg.sender, bytes32(0), bytes4(0x0000001f), address(_avatar));\n        controller.unregisterScheme(address(this), address(_avatar));\n        return address(controller);\n    }\n}\n\n/**\n * @title Genesis Scheme that creates organizations\n */\ncontract DaoCreator {\n\n    mapping(address=>address) public locks;\n\n    event NewOrg (address _avatar);\n    event InitialSchemesSet (address _avatar);\n\n    ControllerCreator private controllerCreator;\n    DAOTracker private daoTracker;\n\n    constructor(ControllerCreator _controllerCreator, DAOTracker _daoTracker) public {\n        require(_controllerCreator != ControllerCreator(0));\n        require(_daoTracker != DAOTracker(0));\n        controllerCreator = _controllerCreator;\n        daoTracker = _daoTracker;\n    }\n\n    /**\n      * @dev addFounders add founders to the organization.\n      *      this function can be called only after forgeOrg and before setSchemes\n      * @param _avatar the organization avatar\n      * @param _founders An array with the addresses of the founders of the organization\n      * @param _foundersTokenAmount An array of amount of tokens that the founders\n      *  receive in the new organization\n      * @param _foundersReputationAmount An array of amount of reputation that the\n      *   founders receive in the new organization\n      * @return bool true or false\n      */\n    function addFounders (\n        Avatar _avatar,\n        address[] calldata _founders,\n        uint[] calldata _foundersTokenAmount,\n        uint[] calldata _foundersReputationAmount\n    )\n    external\n    returns(bool)\n    {\n        require(_founders.length == _foundersTokenAmount.length);\n        require(_founders.length == _foundersReputationAmount.length);\n        require(_founders.length > 0);\n        require(locks[address(_avatar)] == msg.sender);\n        // Mint token and reputation for founders:\n        for (uint256 i = 0; i < _founders.length; i++) {\n            require(_founders[i] != address(0));\n            if (_foundersTokenAmount[i] > 0) {\n                Controller(\n                _avatar.owner()).mintTokens(_foundersTokenAmount[i], _founders[i], address(_avatar));\n            }\n            if (_foundersReputationAmount[i] > 0) {\n                Controller(\n                _avatar.owner()).mintReputation(_foundersReputationAmount[i], _founders[i], address(_avatar));\n            }\n        }\n        return true;\n    }\n\n  /**\n    * @dev Create a new organization\n    * @param _orgName The name of the new organization\n    * @param _tokenName The name of the token associated with the organization\n    * @param _tokenSymbol The symbol of the token\n    * @param _founders An array with the addresses of the founders of the organization\n    * @param _foundersTokenAmount An array of amount of tokens that the founders\n    *  receive in the new organization\n    * @param _foundersReputationAmount An array of amount of reputation that the\n    *   founders receive in the new organization\n    * @param  _cap token cap - 0 for no cap.\n    * @return The address of the avatar of the controller\n    */\n    function forgeOrg (\n        string calldata _orgName,\n        string calldata _tokenName,\n        string calldata _tokenSymbol,\n        address[] calldata _founders,\n        uint[] calldata _foundersTokenAmount,\n        uint[] calldata _foundersReputationAmount,\n        uint256 _cap\n    )\n    external\n    returns(address)\n    {\n        //The call for the private function is needed to bypass a deep stack issues\n        return _forgeOrg(\n            _orgName,\n            _tokenName,\n            _tokenSymbol,\n            _founders,\n            _foundersTokenAmount,\n            _foundersReputationAmount,\n            _cap);\n    }\n\n     /**\n      * @dev Set initial schemes for the organization.\n      * @param _avatar organization avatar (returns from forgeOrg)\n      * @param _schemes the schemes to register for the organization\n      * @param _params the schemes's params\n      * @param _permissions the schemes permissions.\n      * @param _metaData dao meta data hash\n      */\n    function setSchemes (\n        Avatar _avatar,\n        address[] calldata _schemes,\n        bytes32[] calldata _params,\n        bytes4[] calldata _permissions,\n        string calldata _metaData\n    )\n        external\n    {\n        // this action can only be executed by the account that holds the lock\n        // for this controller\n        require(locks[address(_avatar)] == msg.sender);\n        // register initial schemes:\n        Controller controller = Controller(_avatar.owner());\n        for (uint256 i = 0; i < _schemes.length; i++) {\n            controller.registerScheme(_schemes[i], _params[i], _permissions[i], address(_avatar));\n        }\n        controller.metaData(_metaData, _avatar);\n        // Unregister self:\n        controller.unregisterScheme(address(this), address(_avatar));\n        // Remove lock:\n        delete locks[address(_avatar)];\n        emit InitialSchemesSet(address(_avatar));\n    }\n\n    /**\n     * @dev Create a new organization\n     * @param _orgName The name of the new organization\n     * @param _tokenName The name of the token associated with the organization\n     * @param _tokenSymbol The symbol of the token\n     * @param _founders An array with the addresses of the founders of the organization\n     * @param _foundersTokenAmount An array of amount of tokens that the founders\n     *  receive in the new organization\n     * @param _foundersReputationAmount An array of amount of reputation that the\n     *   founders receive in the new organization\n     * @param  _cap token cap - 0 for no cap.\n     * @return The address of the avatar of the controller\n     */\n    function _forgeOrg (\n        string memory _orgName,\n        string memory _tokenName,\n        string memory _tokenSymbol,\n        address[] memory _founders,\n        uint[] memory _foundersTokenAmount,\n        uint[] memory _foundersReputationAmount,\n        uint256 _cap\n    ) private returns(address)\n    {\n        // Create Token, Reputation and Avatar:\n        require(_founders.length == _foundersTokenAmount.length);\n        require(_founders.length == _foundersReputationAmount.length);\n        require(_founders.length > 0);\n        DAOToken nativeToken = new DAOToken(_tokenName, _tokenSymbol, _cap);\n        Reputation nativeReputation = new Reputation();\n        Avatar avatar = new Avatar(_orgName, nativeToken, nativeReputation);\n\n\n        // Mint token and reputation for founders:\n        for (uint256 i = 0; i < _founders.length; i++) {\n            require(_founders[i] != address(0));\n            if (_foundersTokenAmount[i] > 0) {\n                nativeToken.mint(_founders[i], _foundersTokenAmount[i]);\n            }\n            if (_foundersReputationAmount[i] > 0) {\n                nativeReputation.mint(_founders[i], _foundersReputationAmount[i]);\n            }\n        }\n\n        Controller controller = Controller(controllerCreator.create(avatar));\n\n        // Add the DAO to the tracking registry\n        daoTracker.track(avatar, controller, \"\");\n\n        // Transfer ownership:\n        avatar.transferOwnership(address(controller));\n        nativeToken.transferOwnership(address(controller));\n        nativeReputation.transferOwnership(address(controller));\n\n        locks[address(avatar)] = msg.sender;\n\n        emit NewOrg (address(avatar));\n        return (address(avatar));\n    }\n}\n",
  "sourcePath": "@daostack/arc/contracts/universalSchemes/DaoCreator.sol",
  "compiler": {
    "name": "solc",
    "version": "0.5.13+commit.5b0b510c.Emscripten.clang"
  },
  "schemaVersion": "3.2.2",
  "updatedAt": "2020-07-19T21:26:26.698Z",
  "devdoc": {
    "methods": {},
    "title": "ControllerCreator for creating a single controller."
  },
  "userdoc": {
    "methods": {}
  }
}