{
  "contractName": "ERC20Burnable",
  "abi": [
    {
      "anonymous": false,
      "inputs": [
        {
          "indexed": true,
          "internalType": "address",
          "name": "owner",
          "type": "address"
        },
        {
          "indexed": true,
          "internalType": "address",
          "name": "spender",
          "type": "address"
        },
        {
          "indexed": false,
          "internalType": "uint256",
          "name": "value",
          "type": "uint256"
        }
      ],
      "name": "Approval",
      "type": "event"
    },
    {
      "anonymous": false,
      "inputs": [
        {
          "indexed": true,
          "internalType": "address",
          "name": "from",
          "type": "address"
        },
        {
          "indexed": true,
          "internalType": "address",
          "name": "to",
          "type": "address"
        },
        {
          "indexed": false,
          "internalType": "uint256",
          "name": "value",
          "type": "uint256"
        }
      ],
      "name": "Transfer",
      "type": "event"
    },
    {
      "constant": true,
      "inputs": [
        {
          "internalType": "address",
          "name": "owner",
          "type": "address"
        },
        {
          "internalType": "address",
          "name": "spender",
          "type": "address"
        }
      ],
      "name": "allowance",
      "outputs": [
        {
          "internalType": "uint256",
          "name": "",
          "type": "uint256"
        }
      ],
      "payable": false,
      "stateMutability": "view",
      "type": "function"
    },
    {
      "constant": false,
      "inputs": [
        {
          "internalType": "address",
          "name": "spender",
          "type": "address"
        },
        {
          "internalType": "uint256",
          "name": "amount",
          "type": "uint256"
        }
      ],
      "name": "approve",
      "outputs": [
        {
          "internalType": "bool",
          "name": "",
          "type": "bool"
        }
      ],
      "payable": false,
      "stateMutability": "nonpayable",
      "type": "function"
    },
    {
      "constant": true,
      "inputs": [
        {
          "internalType": "address",
          "name": "account",
          "type": "address"
        }
      ],
      "name": "balanceOf",
      "outputs": [
        {
          "internalType": "uint256",
          "name": "",
          "type": "uint256"
        }
      ],
      "payable": false,
      "stateMutability": "view",
      "type": "function"
    },
    {
      "constant": false,
      "inputs": [
        {
          "internalType": "address",
          "name": "spender",
          "type": "address"
        },
        {
          "internalType": "uint256",
          "name": "subtractedValue",
          "type": "uint256"
        }
      ],
      "name": "decreaseAllowance",
      "outputs": [
        {
          "internalType": "bool",
          "name": "",
          "type": "bool"
        }
      ],
      "payable": false,
      "stateMutability": "nonpayable",
      "type": "function"
    },
    {
      "constant": false,
      "inputs": [
        {
          "internalType": "address",
          "name": "spender",
          "type": "address"
        },
        {
          "internalType": "uint256",
          "name": "addedValue",
          "type": "uint256"
        }
      ],
      "name": "increaseAllowance",
      "outputs": [
        {
          "internalType": "bool",
          "name": "",
          "type": "bool"
        }
      ],
      "payable": false,
      "stateMutability": "nonpayable",
      "type": "function"
    },
    {
      "constant": true,
      "inputs": [],
      "name": "totalSupply",
      "outputs": [
        {
          "internalType": "uint256",
          "name": "",
          "type": "uint256"
        }
      ],
      "payable": false,
      "stateMutability": "view",
      "type": "function"
    },
    {
      "constant": false,
      "inputs": [
        {
          "internalType": "address",
          "name": "recipient",
          "type": "address"
        },
        {
          "internalType": "uint256",
          "name": "amount",
          "type": "uint256"
        }
      ],
      "name": "transfer",
      "outputs": [
        {
          "internalType": "bool",
          "name": "",
          "type": "bool"
        }
      ],
      "payable": false,
      "stateMutability": "nonpayable",
      "type": "function"
    },
    {
      "constant": false,
      "inputs": [
        {
          "internalType": "address",
          "name": "sender",
          "type": "address"
        },
        {
          "internalType": "address",
          "name": "recipient",
          "type": "address"
        },
        {
          "internalType": "uint256",
          "name": "amount",
          "type": "uint256"
        }
      ],
      "name": "transferFrom",
      "outputs": [
        {
          "internalType": "bool",
          "name": "",
          "type": "bool"
        }
      ],
      "payable": false,
      "stateMutability": "nonpayable",
      "type": "function"
    },
    {
      "constant": false,
      "inputs": [
        {
          "internalType": "uint256",
          "name": "amount",
          "type": "uint256"
        }
      ],
      "name": "burn",
      "outputs": [],
      "payable": false,
      "stateMutability": "nonpayable",
      "type": "function"
    },
    {
      "constant": false,
      "inputs": [
        {
          "internalType": "address",
          "name": "account",
          "type": "address"
        },
        {
          "internalType": "uint256",
          "name": "amount",
          "type": "uint256"
        }
      ],
      "name": "burnFrom",
      "outputs": [],
      "payable": false,
      "stateMutability": "nonpayable",
      "type": "function"
    }
  ],
  "bytecode": "0x6080604052610aa1806100136000396000f3fe608060405234801561001057600080fd5b506004361061008e5760003560e01c8063095ea7b31461009357806318160ddd146100d357806323b872dd146100ed578063395093511461012357806342966c681461014f57806370a082311461016e57806379cc679014610194578063a457c2d7146101c0578063a9059cbb146101ec578063dd62ed3e14610218575b600080fd5b6100bf600480360360408110156100a957600080fd5b506001600160a01b038135169060200135610246565b604080519115158252519081900360200190f35b6100db610263565b60408051918252519081900360200190f35b6100bf6004803603606081101561010357600080fd5b506001600160a01b03813581169160208101359091169060400135610269565b6100bf6004803603604081101561013957600080fd5b506001600160a01b0381351690602001356102f6565b61016c6004803603602081101561016557600080fd5b503561034a565b005b6100db6004803603602081101561018457600080fd5b50356001600160a01b031661035e565b61016c600480360360408110156101aa57600080fd5b506001600160a01b038135169060200135610379565b6100bf600480360360408110156101d657600080fd5b506001600160a01b038135169060200135610387565b6100bf6004803603604081101561020257600080fd5b506001600160a01b0381351690602001356103f5565b6100db6004803603604081101561022e57600080fd5b506001600160a01b0381358116916020013516610409565b600061025a610253610434565b8484610438565b50600192915050565b60025490565b6000610276848484610524565b6102ec84610282610434565b6102e785604051806060016040528060288152602001610972602891396001600160a01b038a166000908152600160205260408120906102c0610434565b6001600160a01b03168152602081019190915260400160002054919063ffffffff61066e16565b610438565b5060019392505050565b600061025a610303610434565b846102e78560016000610314610434565b6001600160a01b03908116825260208083019390935260409182016000908120918c16815292529020549063ffffffff61070516565b61035b610355610434565b82610764565b50565b6001600160a01b031660009081526020819052604090205490565b610383828261084e565b5050565b600061025a610394610434565b846102e785604051806060016040528060258152602001610a4860259139600160006103be610434565b6001600160a01b03908116825260208083019390935260409182016000908120918d1681529252902054919063ffffffff61066e16565b600061025a610402610434565b8484610524565b6001600160a01b03918216600090815260016020908152604080832093909416825291909152205490565b3390565b6001600160a01b03831661047d5760405162461bcd60e51b8152600401808060200182810382526024815260200180610a246024913960400191505060405180910390fd5b6001600160a01b0382166104c25760405162461bcd60e51b815260040180806020018281038252602281526020018061092a6022913960400191505060405180910390fd5b6001600160a01b03808416600081815260016020908152604080832094871680845294825291829020859055815185815291517f8c5be1e5ebec7d5bd14f71427d1e84f3dd0314c0f7b2291e5b200ac8c7c3b9259281900390910190a3505050565b6001600160a01b0383166105695760405162461bcd60e51b81526004018080602001828103825260258152602001806109ff6025913960400191505060405180910390fd5b6001600160a01b0382166105ae5760405162461bcd60e51b81526004018080602001828103825260238152602001806108e56023913960400191505060405180910390fd5b6105f18160405180606001604052806026815260200161094c602691396001600160a01b038616600090815260208190526040902054919063ffffffff61066e16565b6001600160a01b038085166000908152602081905260408082209390935590841681522054610626908263ffffffff61070516565b6001600160a01b038084166000818152602081815260409182902094909455805185815290519193928716926000805160206109be83398151915292918290030190a3505050565b600081848411156106fd5760405162461bcd60e51b81526004018080602001828103825283818151815260200191508051906020019080838360005b838110156106c25781810151838201526020016106aa565b50505050905090810190601f1680156106ef5780820380516001836020036101000a031916815260200191505b509250505060405180910390fd5b505050900390565b60008282018381101561075d576040805162461bcd60e51b815260206004820152601b60248201527a536166654d6174683a206164646974696f6e206f766572666c6f7760281b604482015290519081900360640190fd5b9392505050565b6001600160a01b0382166107a95760405162461bcd60e51b81526004018080602001828103825260218152602001806109de6021913960400191505060405180910390fd5b6107ec81604051806060016040528060228152602001610908602291396001600160a01b038516600090815260208190526040902054919063ffffffff61066e16565b6001600160a01b038316600090815260208190526040902055600254610818908263ffffffff6108a216565b6002556040805182815290516000916001600160a01b038516916000805160206109be8339815191529181900360200190a35050565b6108588282610764565b61038382610864610434565b6102e78460405180606001604052806024815260200161099a602491396001600160a01b0388166000908152600160205260408120906102c0610434565b600061075d83836040518060400160405280601e81526020017f536166654d6174683a207375627472616374696f6e206f766572666c6f77000081525061066e56fe45524332303a207472616e7366657220746f20746865207a65726f206164647265737345524332303a206275726e20616d6f756e7420657863656564732062616c616e636545524332303a20617070726f766520746f20746865207a65726f206164647265737345524332303a207472616e7366657220616d6f756e7420657863656564732062616c616e636545524332303a207472616e7366657220616d6f756e74206578636565647320616c6c6f77616e636545524332303a206275726e20616d6f756e74206578636565647320616c6c6f77616e6365ddf252ad1be2c89b69c2b068fc378daa952ba7f163c4a11628f55a4df523b3ef45524332303a206275726e2066726f6d20746865207a65726f206164647265737345524332303a207472616e736665722066726f6d20746865207a65726f206164647265737345524332303a20617070726f76652066726f6d20746865207a65726f206164647265737345524332303a2064656372656173656420616c6c6f77616e63652062656c6f77207a65726fa265627a7a72315820895acff82d380a5161189a45ec1aa43e9ccb3ddea7167c3802ba2c5040a851d264736f6c634300050d0032",
  "source": "pragma solidity ^0.5.0;\n\nimport \"../../GSN/Context.sol\";\nimport \"./ERC20.sol\";\n\n/**\n * @dev Extension of {ERC20} that allows token holders to destroy both their own\n * tokens and those that they have an allowance for, in a way that can be\n * recognized off-chain (via event analysis).\n */\ncontract ERC20Burnable is Context, ERC20 {\n    /**\n     * @dev Destroys `amount` tokens from the caller.\n     *\n     * See {ERC20-_burn}.\n     */\n    function burn(uint256 amount) public {\n        _burn(_msgSender(), amount);\n    }\n\n    /**\n     * @dev See {ERC20-_burnFrom}.\n     */\n    function burnFrom(address account, uint256 amount) public {\n        _burnFrom(account, amount);\n    }\n}\n",
  "sourcePath": "openzeppelin-solidity/contracts/token/ERC20/ERC20Burnable.sol",
  "compiler": {
    "name": "solc",
    "version": "0.5.13+commit.5b0b510c.Emscripten.clang"
  },
  "schemaVersion": "3.2.2",
  "updatedAt": "2020-07-19T21:26:26.988Z",
  "devdoc": {
    "details": "Extension of {ERC20} that allows token holders to destroy both their own tokens and those that they have an allowance for, in a way that can be recognized off-chain (via event analysis).",
    "methods": {
      "allowance(address,address)": {
        "details": "See {IERC20-allowance}."
      },
      "approve(address,uint256)": {
        "details": "See {IERC20-approve}.     * Requirements:     * - `spender` cannot be the zero address."
      },
      "balanceOf(address)": {
        "details": "See {IERC20-balanceOf}."
      },
      "burn(uint256)": {
        "details": "Destroys `amount` tokens from the caller.     * See {ERC20-_burn}."
      },
      "burnFrom(address,uint256)": {
        "details": "See {ERC20-_burnFrom}."
      },
      "decreaseAllowance(address,uint256)": {
        "details": "Atomically decreases the allowance granted to `spender` by the caller.     * This is an alternative to {approve} that can be used as a mitigation for problems described in {IERC20-approve}.     * Emits an {Approval} event indicating the updated allowance.     * Requirements:     * - `spender` cannot be the zero address. - `spender` must have allowance for the caller of at least `subtractedValue`."
      },
      "increaseAllowance(address,uint256)": {
        "details": "Atomically increases the allowance granted to `spender` by the caller.     * This is an alternative to {approve} that can be used as a mitigation for problems described in {IERC20-approve}.     * Emits an {Approval} event indicating the updated allowance.     * Requirements:     * - `spender` cannot be the zero address."
      },
      "totalSupply()": {
        "details": "See {IERC20-totalSupply}."
      },
      "transfer(address,uint256)": {
        "details": "See {IERC20-transfer}.     * Requirements:     * - `recipient` cannot be the zero address. - the caller must have a balance of at least `amount`."
      },
      "transferFrom(address,address,uint256)": {
        "details": "See {IERC20-transferFrom}.     * Emits an {Approval} event indicating the updated allowance. This is not required by the EIP. See the note at the beginning of {ERC20};     * Requirements: - `sender` and `recipient` cannot be the zero address. - `sender` must have a balance of at least `amount`. - the caller must have allowance for `sender`'s tokens of at least `amount`."
      }
    }
  },
  "userdoc": {
    "methods": {}
  }
}