{
  "contractName": "GenesisProtocol",
  "abi": [
    {
      "inputs": [
        {
          "internalType": "contract IERC20",
          "name": "_stakingToken",
          "type": "address"
        }
      ],
      "payable": false,
      "stateMutability": "nonpayable",
      "type": "constructor"
    },
    {
      "anonymous": false,
      "inputs": [
        {
          "indexed": true,
          "internalType": "bytes32",
          "name": "_proposalId",
          "type": "bytes32"
        },
        {
          "indexed": true,
          "internalType": "address",
          "name": "_organization",
          "type": "address"
        }
      ],
      "name": "CancelProposal",
      "type": "event"
    },
    {
      "anonymous": false,
      "inputs": [
        {
          "indexed": true,
          "internalType": "bytes32",
          "name": "_proposalId",
          "type": "bytes32"
        },
        {
          "indexed": true,
          "internalType": "address",
          "name": "_organization",
          "type": "address"
        },
        {
          "indexed": true,
          "internalType": "address",
          "name": "_voter",
          "type": "address"
        }
      ],
      "name": "CancelVoting",
      "type": "event"
    },
    {
      "anonymous": false,
      "inputs": [
        {
          "indexed": true,
          "internalType": "bytes32",
          "name": "_proposalId",
          "type": "bytes32"
        },
        {
          "indexed": false,
          "internalType": "uint256",
          "name": "_confidenceThreshold",
          "type": "uint256"
        }
      ],
      "name": "ConfidenceLevelChange",
      "type": "event"
    },
    {
      "anonymous": false,
      "inputs": [
        {
          "indexed": true,
          "internalType": "bytes32",
          "name": "_proposalId",
          "type": "bytes32"
        },
        {
          "indexed": true,
          "internalType": "address",
          "name": "_organization",
          "type": "address"
        },
        {
          "indexed": false,
          "internalType": "uint256",
          "name": "_decision",
          "type": "uint256"
        },
        {
          "indexed": false,
          "internalType": "uint256",
          "name": "_totalReputation",
          "type": "uint256"
        }
      ],
      "name": "ExecuteProposal",
      "type": "event"
    },
    {
      "anonymous": false,
      "inputs": [
        {
          "indexed": true,
          "internalType": "bytes32",
          "name": "_proposalId",
          "type": "bytes32"
        },
        {
          "indexed": true,
          "internalType": "address",
          "name": "_beneficiary",
          "type": "address"
        },
        {
          "indexed": false,
          "internalType": "uint256",
          "name": "_amount",
          "type": "uint256"
        }
      ],
      "name": "ExpirationCallBounty",
      "type": "event"
    },
    {
      "anonymous": false,
      "inputs": [
        {
          "indexed": true,
          "internalType": "bytes32",
          "name": "_proposalId",
          "type": "bytes32"
        },
        {
          "indexed": false,
          "internalType": "enum GenesisProtocolLogic.ExecutionState",
          "name": "_executionState",
          "type": "uint8"
        }
      ],
      "name": "GPExecuteProposal",
      "type": "event"
    },
    {
      "anonymous": false,
      "inputs": [
        {
          "indexed": true,
          "internalType": "bytes32",
          "name": "_proposalId",
          "type": "bytes32"
        },
        {
          "indexed": true,
          "internalType": "address",
          "name": "_organization",
          "type": "address"
        },
        {
          "indexed": false,
          "internalType": "uint256",
          "name": "_numOfChoices",
          "type": "uint256"
        },
        {
          "indexed": false,
          "internalType": "address",
          "name": "_proposer",
          "type": "address"
        },
        {
          "indexed": false,
          "internalType": "bytes32",
          "name": "_paramsHash",
          "type": "bytes32"
        }
      ],
      "name": "NewProposal",
      "type": "event"
    },
    {
      "anonymous": false,
      "inputs": [
        {
          "indexed": true,
          "internalType": "bytes32",
          "name": "_proposalId",
          "type": "bytes32"
        },
        {
          "indexed": true,
          "internalType": "address",
          "name": "_organization",
          "type": "address"
        },
        {
          "indexed": true,
          "internalType": "address",
          "name": "_beneficiary",
          "type": "address"
        },
        {
          "indexed": false,
          "internalType": "uint256",
          "name": "_amount",
          "type": "uint256"
        }
      ],
      "name": "Redeem",
      "type": "event"
    },
    {
      "anonymous": false,
      "inputs": [
        {
          "indexed": true,
          "internalType": "bytes32",
          "name": "_proposalId",
          "type": "bytes32"
        },
        {
          "indexed": true,
          "internalType": "address",
          "name": "_organization",
          "type": "address"
        },
        {
          "indexed": true,
          "internalType": "address",
          "name": "_beneficiary",
          "type": "address"
        },
        {
          "indexed": false,
          "internalType": "uint256",
          "name": "_amount",
          "type": "uint256"
        }
      ],
      "name": "RedeemDaoBounty",
      "type": "event"
    },
    {
      "anonymous": false,
      "inputs": [
        {
          "indexed": true,
          "internalType": "bytes32",
          "name": "_proposalId",
          "type": "bytes32"
        },
        {
          "indexed": true,
          "internalType": "address",
          "name": "_organization",
          "type": "address"
        },
        {
          "indexed": true,
          "internalType": "address",
          "name": "_beneficiary",
          "type": "address"
        },
        {
          "indexed": false,
          "internalType": "uint256",
          "name": "_amount",
          "type": "uint256"
        }
      ],
      "name": "RedeemReputation",
      "type": "event"
    },
    {
      "anonymous": false,
      "inputs": [
        {
          "indexed": true,
          "internalType": "bytes32",
          "name": "_proposalId",
          "type": "bytes32"
        },
        {
          "indexed": true,
          "internalType": "address",
          "name": "_organization",
          "type": "address"
        },
        {
          "indexed": true,
          "internalType": "address",
          "name": "_staker",
          "type": "address"
        },
        {
          "indexed": false,
          "internalType": "uint256",
          "name": "_vote",
          "type": "uint256"
        },
        {
          "indexed": false,
          "internalType": "uint256",
          "name": "_amount",
          "type": "uint256"
        }
      ],
      "name": "Stake",
      "type": "event"
    },
    {
      "anonymous": false,
      "inputs": [
        {
          "indexed": true,
          "internalType": "bytes32",
          "name": "_proposalId",
          "type": "bytes32"
        },
        {
          "indexed": false,
          "internalType": "enum GenesisProtocolLogic.ProposalState",
          "name": "_proposalState",
          "type": "uint8"
        }
      ],
      "name": "StateChange",
      "type": "event"
    },
    {
      "anonymous": false,
      "inputs": [
        {
          "indexed": true,
          "internalType": "bytes32",
          "name": "_proposalId",
          "type": "bytes32"
        },
        {
          "indexed": true,
          "internalType": "address",
          "name": "_organization",
          "type": "address"
        },
        {
          "indexed": true,
          "internalType": "address",
          "name": "_voter",
          "type": "address"
        },
        {
          "indexed": false,
          "internalType": "uint256",
          "name": "_vote",
          "type": "uint256"
        },
        {
          "indexed": false,
          "internalType": "uint256",
          "name": "_reputation",
          "type": "uint256"
        }
      ],
      "name": "VoteProposal",
      "type": "event"
    },
    {
      "constant": true,
      "inputs": [],
      "name": "DELEGATION_HASH_EIP712",
      "outputs": [
        {
          "internalType": "bytes32",
          "name": "",
          "type": "bytes32"
        }
      ],
      "payable": false,
      "stateMutability": "view",
      "type": "function"
    },
    {
      "constant": true,
      "inputs": [],
      "name": "NO",
      "outputs": [
        {
          "internalType": "uint256",
          "name": "",
          "type": "uint256"
        }
      ],
      "payable": false,
      "stateMutability": "view",
      "type": "function"
    },
    {
      "constant": true,
      "inputs": [],
      "name": "NUM_OF_CHOICES",
      "outputs": [
        {
          "internalType": "uint256",
          "name": "",
          "type": "uint256"
        }
      ],
      "payable": false,
      "stateMutability": "view",
      "type": "function"
    },
    {
      "constant": true,
      "inputs": [],
      "name": "YES",
      "outputs": [
        {
          "internalType": "uint256",
          "name": "",
          "type": "uint256"
        }
      ],
      "payable": false,
      "stateMutability": "view",
      "type": "function"
    },
    {
      "constant": true,
      "inputs": [
        {
          "internalType": "bytes32",
          "name": "",
          "type": "bytes32"
        }
      ],
      "name": "averagesDownstakesOfBoosted",
      "outputs": [
        {
          "internalType": "uint256",
          "name": "",
          "type": "uint256"
        }
      ],
      "payable": false,
      "stateMutability": "view",
      "type": "function"
    },
    {
      "constant": true,
      "inputs": [
        {
          "internalType": "bytes32",
          "name": "_proposalId",
          "type": "bytes32"
        }
      ],
      "name": "calcExecuteCallBounty",
      "outputs": [
        {
          "internalType": "uint256",
          "name": "",
          "type": "uint256"
        }
      ],
      "payable": false,
      "stateMutability": "view",
      "type": "function"
    },
    {
      "constant": false,
      "inputs": [
        {
          "internalType": "bytes32",
          "name": "_proposalId",
          "type": "bytes32"
        }
      ],
      "name": "executeBoosted",
      "outputs": [
        {
          "internalType": "uint256",
          "name": "expirationCallBounty",
          "type": "uint256"
        }
      ],
      "payable": false,
      "stateMutability": "nonpayable",
      "type": "function"
    },
    {
      "constant": true,
      "inputs": [
        {
          "internalType": "uint256[11]",
          "name": "_params",
          "type": "uint256[11]"
        },
        {
          "internalType": "address",
          "name": "_voteOnBehalf",
          "type": "address"
        }
      ],
      "name": "getParametersHash",
      "outputs": [
        {
          "internalType": "bytes32",
          "name": "",
          "type": "bytes32"
        }
      ],
      "payable": false,
      "stateMutability": "pure",
      "type": "function"
    },
    {
      "constant": true,
      "inputs": [
        {
          "internalType": "bytes32",
          "name": "",
          "type": "bytes32"
        }
      ],
      "name": "orgBoostedProposalsCnt",
      "outputs": [
        {
          "internalType": "uint256",
          "name": "",
          "type": "uint256"
        }
      ],
      "payable": false,
      "stateMutability": "view",
      "type": "function"
    },
    {
      "constant": true,
      "inputs": [
        {
          "internalType": "bytes32",
          "name": "",
          "type": "bytes32"
        }
      ],
      "name": "organizations",
      "outputs": [
        {
          "internalType": "address",
          "name": "",
          "type": "address"
        }
      ],
      "payable": false,
      "stateMutability": "view",
      "type": "function"
    },
    {
      "constant": true,
      "inputs": [
        {
          "internalType": "bytes32",
          "name": "",
          "type": "bytes32"
        }
      ],
      "name": "parameters",
      "outputs": [
        {
          "internalType": "uint256",
          "name": "queuedVoteRequiredPercentage",
          "type": "uint256"
        },
        {
          "internalType": "uint256",
          "name": "queuedVotePeriodLimit",
          "type": "uint256"
        },
        {
          "internalType": "uint256",
          "name": "boostedVotePeriodLimit",
          "type": "uint256"
        },
        {
          "internalType": "uint256",
          "name": "preBoostedVotePeriodLimit",
          "type": "uint256"
        },
        {
          "internalType": "uint256",
          "name": "thresholdConst",
          "type": "uint256"
        },
        {
          "internalType": "uint256",
          "name": "limitExponentValue",
          "type": "uint256"
        },
        {
          "internalType": "uint256",
          "name": "quietEndingPeriod",
          "type": "uint256"
        },
        {
          "internalType": "uint256",
          "name": "proposingRepReward",
          "type": "uint256"
        },
        {
          "internalType": "uint256",
          "name": "votersReputationLossRatio",
          "type": "uint256"
        },
        {
          "internalType": "uint256",
          "name": "minimumDaoBounty",
          "type": "uint256"
        },
        {
          "internalType": "uint256",
          "name": "daoBountyConst",
          "type": "uint256"
        },
        {
          "internalType": "uint256",
          "name": "activationTime",
          "type": "uint256"
        },
        {
          "internalType": "address",
          "name": "voteOnBehalf",
          "type": "address"
        }
      ],
      "payable": false,
      "stateMutability": "view",
      "type": "function"
    },
    {
      "constant": true,
      "inputs": [
        {
          "internalType": "bytes32",
          "name": "",
          "type": "bytes32"
        }
      ],
      "name": "proposals",
      "outputs": [
        {
          "internalType": "bytes32",
          "name": "organizationId",
          "type": "bytes32"
        },
        {
          "internalType": "address",
          "name": "callbacks",
          "type": "address"
        },
        {
          "internalType": "enum GenesisProtocolLogic.ProposalState",
          "name": "state",
          "type": "uint8"
        },
        {
          "internalType": "uint256",
          "name": "winningVote",
          "type": "uint256"
        },
        {
          "internalType": "address",
          "name": "proposer",
          "type": "address"
        },
        {
          "internalType": "uint256",
          "name": "currentBoostedVotePeriodLimit",
          "type": "uint256"
        },
        {
          "internalType": "bytes32",
          "name": "paramsHash",
          "type": "bytes32"
        },
        {
          "internalType": "uint256",
          "name": "daoBountyRemain",
          "type": "uint256"
        },
        {
          "internalType": "uint256",
          "name": "daoBounty",
          "type": "uint256"
        },
        {
          "internalType": "uint256",
          "name": "totalStakes",
          "type": "uint256"
        },
        {
          "internalType": "uint256",
          "name": "confidenceThreshold",
          "type": "uint256"
        },
        {
          "internalType": "uint256",
          "name": "secondsFromTimeOutTillExecuteBoosted",
          "type": "uint256"
        },
        {
          "internalType": "bool",
          "name": "daoRedeemItsWinnings",
          "type": "bool"
        }
      ],
      "payable": false,
      "stateMutability": "view",
      "type": "function"
    },
    {
      "constant": true,
      "inputs": [],
      "name": "proposalsCnt",
      "outputs": [
        {
          "internalType": "uint256",
          "name": "",
          "type": "uint256"
        }
      ],
      "payable": false,
      "stateMutability": "view",
      "type": "function"
    },
    {
      "constant": false,
      "inputs": [
        {
          "internalType": "uint256",
          "name": "",
          "type": "uint256"
        },
        {
          "internalType": "bytes32",
          "name": "_paramsHash",
          "type": "bytes32"
        },
        {
          "internalType": "address",
          "name": "_proposer",
          "type": "address"
        },
        {
          "internalType": "address",
          "name": "_organization",
          "type": "address"
        }
      ],
      "name": "propose",
      "outputs": [
        {
          "internalType": "bytes32",
          "name": "",
          "type": "bytes32"
        }
      ],
      "payable": false,
      "stateMutability": "nonpayable",
      "type": "function"
    },
    {
      "constant": false,
      "inputs": [
        {
          "internalType": "bytes32",
          "name": "_proposalId",
          "type": "bytes32"
        },
        {
          "internalType": "address",
          "name": "_beneficiary",
          "type": "address"
        }
      ],
      "name": "redeem",
      "outputs": [
        {
          "internalType": "uint256[3]",
          "name": "rewards",
          "type": "uint256[3]"
        }
      ],
      "payable": false,
      "stateMutability": "nonpayable",
      "type": "function"
    },
    {
      "constant": false,
      "inputs": [
        {
          "internalType": "bytes32",
          "name": "_proposalId",
          "type": "bytes32"
        },
        {
          "internalType": "address",
          "name": "_beneficiary",
          "type": "address"
        }
      ],
      "name": "redeemDaoBounty",
      "outputs": [
        {
          "internalType": "uint256",
          "name": "redeemedAmount",
          "type": "uint256"
        },
        {
          "internalType": "uint256",
          "name": "potentialAmount",
          "type": "uint256"
        }
      ],
      "payable": false,
      "stateMutability": "nonpayable",
      "type": "function"
    },
    {
      "constant": false,
      "inputs": [
        {
          "internalType": "uint256[11]",
          "name": "_params",
          "type": "uint256[11]"
        },
        {
          "internalType": "address",
          "name": "_voteOnBehalf",
          "type": "address"
        }
      ],
      "name": "setParameters",
      "outputs": [
        {
          "internalType": "bytes32",
          "name": "",
          "type": "bytes32"
        }
      ],
      "payable": false,
      "stateMutability": "nonpayable",
      "type": "function"
    },
    {
      "constant": true,
      "inputs": [
        {
          "internalType": "bytes32",
          "name": "_proposalId",
          "type": "bytes32"
        }
      ],
      "name": "shouldBoost",
      "outputs": [
        {
          "internalType": "bool",
          "name": "",
          "type": "bool"
        }
      ],
      "payable": false,
      "stateMutability": "view",
      "type": "function"
    },
    {
      "constant": true,
      "inputs": [
        {
          "internalType": "address",
          "name": "",
          "type": "address"
        }
      ],
      "name": "stakesNonce",
      "outputs": [
        {
          "internalType": "uint256",
          "name": "",
          "type": "uint256"
        }
      ],
      "payable": false,
      "stateMutability": "view",
      "type": "function"
    },
    {
      "constant": true,
      "inputs": [],
      "name": "stakingToken",
      "outputs": [
        {
          "internalType": "contract IERC20",
          "name": "",
          "type": "address"
        }
      ],
      "payable": false,
      "stateMutability": "view",
      "type": "function"
    },
    {
      "constant": true,
      "inputs": [
        {
          "internalType": "bytes32",
          "name": "_paramsHash",
          "type": "bytes32"
        },
        {
          "internalType": "bytes32",
          "name": "_organizationId",
          "type": "bytes32"
        }
      ],
      "name": "threshold",
      "outputs": [
        {
          "internalType": "uint256",
          "name": "",
          "type": "uint256"
        }
      ],
      "payable": false,
      "stateMutability": "view",
      "type": "function"
    },
    {
      "constant": false,
      "inputs": [
        {
          "internalType": "bytes32",
          "name": "_proposalId",
          "type": "bytes32"
        },
        {
          "internalType": "uint256",
          "name": "_vote",
          "type": "uint256"
        },
        {
          "internalType": "uint256",
          "name": "_amount",
          "type": "uint256"
        }
      ],
      "name": "stake",
      "outputs": [
        {
          "internalType": "bool",
          "name": "",
          "type": "bool"
        }
      ],
      "payable": false,
      "stateMutability": "nonpayable",
      "type": "function"
    },
    {
      "constant": false,
      "inputs": [
        {
          "internalType": "bytes32",
          "name": "_proposalId",
          "type": "bytes32"
        },
        {
          "internalType": "uint256",
          "name": "_vote",
          "type": "uint256"
        },
        {
          "internalType": "uint256",
          "name": "_amount",
          "type": "uint256"
        },
        {
          "internalType": "uint256",
          "name": "_nonce",
          "type": "uint256"
        },
        {
          "internalType": "uint256",
          "name": "_signatureType",
          "type": "uint256"
        },
        {
          "internalType": "bytes",
          "name": "_signature",
          "type": "bytes"
        }
      ],
      "name": "stakeWithSignature",
      "outputs": [
        {
          "internalType": "bool",
          "name": "",
          "type": "bool"
        }
      ],
      "payable": false,
      "stateMutability": "nonpayable",
      "type": "function"
    },
    {
      "constant": false,
      "inputs": [
        {
          "internalType": "bytes32",
          "name": "_proposalId",
          "type": "bytes32"
        },
        {
          "internalType": "uint256",
          "name": "_vote",
          "type": "uint256"
        },
        {
          "internalType": "uint256",
          "name": "_amount",
          "type": "uint256"
        },
        {
          "internalType": "address",
          "name": "_voter",
          "type": "address"
        }
      ],
      "name": "vote",
      "outputs": [
        {
          "internalType": "bool",
          "name": "",
          "type": "bool"
        }
      ],
      "payable": false,
      "stateMutability": "nonpayable",
      "type": "function"
    },
    {
      "constant": false,
      "inputs": [
        {
          "internalType": "bytes32",
          "name": "_proposalId",
          "type": "bytes32"
        }
      ],
      "name": "cancelVote",
      "outputs": [],
      "payable": false,
      "stateMutability": "nonpayable",
      "type": "function"
    },
    {
      "constant": false,
      "inputs": [
        {
          "internalType": "bytes32",
          "name": "_proposalId",
          "type": "bytes32"
        }
      ],
      "name": "execute",
      "outputs": [
        {
          "internalType": "bool",
          "name": "",
          "type": "bool"
        }
      ],
      "payable": false,
      "stateMutability": "nonpayable",
      "type": "function"
    },
    {
      "constant": true,
      "inputs": [
        {
          "internalType": "bytes32",
          "name": "",
          "type": "bytes32"
        }
      ],
      "name": "getNumberOfChoices",
      "outputs": [
        {
          "internalType": "uint256",
          "name": "",
          "type": "uint256"
        }
      ],
      "payable": false,
      "stateMutability": "view",
      "type": "function"
    },
    {
      "constant": true,
      "inputs": [
        {
          "internalType": "bytes32",
          "name": "_proposalId",
          "type": "bytes32"
        }
      ],
      "name": "getProposalTimes",
      "outputs": [
        {
          "internalType": "uint256[3]",
          "name": "times",
          "type": "uint256[3]"
        }
      ],
      "payable": false,
      "stateMutability": "view",
      "type": "function"
    },
    {
      "constant": true,
      "inputs": [
        {
          "internalType": "bytes32",
          "name": "_proposalId",
          "type": "bytes32"
        },
        {
          "internalType": "address",
          "name": "_voter",
          "type": "address"
        }
      ],
      "name": "voteInfo",
      "outputs": [
        {
          "internalType": "uint256",
          "name": "",
          "type": "uint256"
        },
        {
          "internalType": "uint256",
          "name": "",
          "type": "uint256"
        }
      ],
      "payable": false,
      "stateMutability": "view",
      "type": "function"
    },
    {
      "constant": true,
      "inputs": [
        {
          "internalType": "bytes32",
          "name": "_proposalId",
          "type": "bytes32"
        },
        {
          "internalType": "uint256",
          "name": "_choice",
          "type": "uint256"
        }
      ],
      "name": "voteStatus",
      "outputs": [
        {
          "internalType": "uint256",
          "name": "",
          "type": "uint256"
        }
      ],
      "payable": false,
      "stateMutability": "view",
      "type": "function"
    },
    {
      "constant": true,
      "inputs": [
        {
          "internalType": "bytes32",
          "name": "_proposalId",
          "type": "bytes32"
        }
      ],
      "name": "isVotable",
      "outputs": [
        {
          "internalType": "bool",
          "name": "",
          "type": "bool"
        }
      ],
      "payable": false,
      "stateMutability": "view",
      "type": "function"
    },
    {
      "constant": true,
      "inputs": [
        {
          "internalType": "bytes32",
          "name": "_proposalId",
          "type": "bytes32"
        }
      ],
      "name": "proposalStatus",
      "outputs": [
        {
          "internalType": "uint256",
          "name": "",
          "type": "uint256"
        },
        {
          "internalType": "uint256",
          "name": "",
          "type": "uint256"
        },
        {
          "internalType": "uint256",
          "name": "",
          "type": "uint256"
        },
        {
          "internalType": "uint256",
          "name": "",
          "type": "uint256"
        }
      ],
      "payable": false,
      "stateMutability": "view",
      "type": "function"
    },
    {
      "constant": true,
      "inputs": [
        {
          "internalType": "bytes32",
          "name": "_proposalId",
          "type": "bytes32"
        }
      ],
      "name": "getProposalOrganization",
      "outputs": [
        {
          "internalType": "bytes32",
          "name": "",
          "type": "bytes32"
        }
      ],
      "payable": false,
      "stateMutability": "view",
      "type": "function"
    },
    {
      "constant": true,
      "inputs": [
        {
          "internalType": "bytes32",
          "name": "_proposalId",
          "type": "bytes32"
        },
        {
          "internalType": "address",
          "name": "_staker",
          "type": "address"
        }
      ],
      "name": "getStaker",
      "outputs": [
        {
          "internalType": "uint256",
          "name": "",
          "type": "uint256"
        },
        {
          "internalType": "uint256",
          "name": "",
          "type": "uint256"
        }
      ],
      "payable": false,
      "stateMutability": "view",
      "type": "function"
    },
    {
      "constant": true,
      "inputs": [
        {
          "internalType": "bytes32",
          "name": "_proposalId",
          "type": "bytes32"
        },
        {
          "internalType": "uint256",
          "name": "_vote",
          "type": "uint256"
        }
      ],
      "name": "voteStake",
      "outputs": [
        {
          "internalType": "uint256",
          "name": "",
          "type": "uint256"
        }
      ],
      "payable": false,
      "stateMutability": "view",
      "type": "function"
    },
    {
      "constant": true,
      "inputs": [
        {
          "internalType": "bytes32",
          "name": "_proposalId",
          "type": "bytes32"
        }
      ],
      "name": "winningVote",
      "outputs": [
        {
          "internalType": "uint256",
          "name": "",
          "type": "uint256"
        }
      ],
      "payable": false,
      "stateMutability": "view",
      "type": "function"
    },
    {
      "constant": true,
      "inputs": [
        {
          "internalType": "bytes32",
          "name": "_proposalId",
          "type": "bytes32"
        }
      ],
      "name": "state",
      "outputs": [
        {
          "internalType": "enum GenesisProtocolLogic.ProposalState",
          "name": "",
          "type": "uint8"
        }
      ],
      "payable": false,
      "stateMutability": "view",
      "type": "function"
    },
    {
      "constant": true,
      "inputs": [],
      "name": "isAbstainAllow",
      "outputs": [
        {
          "internalType": "bool",
          "name": "",
          "type": "bool"
        }
      ],
      "payable": false,
      "stateMutability": "pure",
      "type": "function"
    },
    {
      "constant": true,
      "inputs": [],
      "name": "getAllowedRangeOfChoices",
      "outputs": [
        {
          "internalType": "uint256",
          "name": "min",
          "type": "uint256"
        },
        {
          "internalType": "uint256",
          "name": "max",
          "type": "uint256"
        }
      ],
      "payable": false,
      "stateMutability": "pure",
      "type": "function"
    },
    {
      "constant": true,
      "inputs": [
        {
          "internalType": "bytes32",
          "name": "_proposalId",
          "type": "bytes32"
        }
      ],
      "name": "score",
      "outputs": [
        {
          "internalType": "uint256",
          "name": "",
          "type": "uint256"
        }
      ],
      "payable": false,
      "stateMutability": "view",
      "type": "function"
    }
  ],
  "bytecode": "0x60806040523480156200001157600080fd5b506040516200435338038062004353833981810160405260208110156200003757600080fd5b5051806200006573543ff227f64aa17ea132bf9886cab5db55dcaddf620000bb602090811b620040ca17901c565b156200009757600680546001600160a01b03191673543ff227f64aa17ea132bf9886cab5db55dcaddf179055620000b3565b600680546001600160a01b0319166001600160a01b0383161790555b5050620000f8565b6000813f7fc5d2460186f7233c927e7db2dcc703c0e500b653ca82273b7bfad8045d85a4708115801590620000f05750808214155b949350505050565b61424b80620001086000396000f3fe608060405234801561001057600080fd5b50600436106101d85760003560e01c806302506804146101dd57806307b4e1e3146102685780630d483442146102d7578063119ce91b146102df57806316db5172146103245780631702ef0c1461035057806321b4b3dc1461036d5780632d598e58146103755780632daedd521461039857806330ca0a53146103d557806332ed5b12146103dd578063359afa491461048b5780633c133818146104c357806340474873146104e0578063488c65fc146104fd5780635142bc1e1461058a57806351d997b21461059257806361d585da1461059a5780636359036b146105db578063707437681461060757806372f702f31461062a57806379a1c1f61461064e57806380f5e0a11461069157806388737b5e146106ae5780638894c41b146106e85780639525c0cc146107145780639bc5689d146102d7578063a003651d14610733578063a05ea6e414610750578063b2449d6514610776578063b45129131461077e578063ba51b14e146107a1578063bb5a05ed146107be578063beda8015146107db578063c0835106146107f8578063c8f526e814610815578063cc3bf9e91461086a578063e5af18c514610896578063e751f271146108b3578063fb6c0cbb146108d0575b600080fd5b6101fa600480360360208110156101f357600080fd5b50356108ed565b604080519d8e5260208e019c909c528c8c019a909a5260608c019890985260808b019690965260a08a019490945260c089019290925260e08801526101008701526101208601526101408501526101608401526001600160a01b031661018083015251908190036101a00190f35b6102c5600480360361018081101561027f57600080fd5b81019080806101600190600b806020026040519081016040528092919082600b602002808284376000920191909152509194505050356001600160a01b0316905061095d565b60408051918252519081900360200190f35b6102c5610a6e565b61030b600480360360408110156102f557600080fd5b50803590602001356001600160a01b0316610a73565b6040805192835260208301919091528051918290030190f35b61030b6004803603604081101561033a57600080fd5b50803590602001356001600160a01b0316610ad6565b6102c56004803603602081101561036657600080fd5b5035610b07565b6102c5610b19565b6102c56004803603604081101561038b57600080fd5b5080359060200135610b1f565b6103c1600480360360608110156103ae57600080fd5b5080359060208101359060400135610b6c565b604080519115158252519081900360200190f35b6102c5610b82565b6103fa600480360360208110156103f357600080fd5b5035610c1c565b604080518e81526001600160a01b038e1660208201529081018c600681111561041f57fe5b60ff168152602081019b909b52506001600160a01b039098166040808b019190915260608a0197909752608089019590955260a088019390935260c087019190915260e08601526101008501526101208401529015156101408301525190819003610160019350915050f35b6103c1600480360360808110156104a157600080fd5b50803590602081013590604081013590606001356001600160a01b0316610c8a565b6102c5600480360360208110156104d957600080fd5b5035610daf565b6102c5600480360360208110156104f657600080fd5b5035610dc4565b6103c1600480360360c081101561051357600080fd5b8135916020810135916040820135916060810135916080820135919081019060c0810160a0820135600160201b81111561054c57600080fd5b82018360208201111561055e57600080fd5b803590602001918460018302840111600160201b8311171561057f57600080fd5b509092509050610e34565b61030b6110bb565b6103c16110c3565b6105b7600480360360208110156105b057600080fd5b50356110c9565b604051808260068111156105c757fe5b60ff16815260200191505060405180910390f35b61030b600480360360408110156105f157600080fd5b50803590602001356001600160a01b03166110e9565b6102c56004803603604081101561061d57600080fd5b5080359060200135611364565b610632611385565b604080516001600160a01b039092168252519081900360200190f35b61066b6004803603602081101561066457600080fd5b5035611394565b604080519485526020850193909352838301919091526060830152519081900360800190f35b6103c1600480360360208110156106a757600080fd5b50356113d7565b6102c5600480360360808110156106c457600080fd5b508035906020810135906001600160a01b0360408201358116916060013516611514565b6102c560048036036101808110156106ff57600080fd5b506001600160a01b03610160820135166118c7565b6107316004803603602081101561072a57600080fd5b5035611cb3565b005b6102c56004803603602081101561074957600080fd5b5035611cca565b6102c56004803603602081101561076657600080fd5b50356001600160a01b0316611cd0565b6102c5611ce2565b6102c56004803603604081101561079457600080fd5b5080359060200135611ce7565b610632600480360360208110156107b757600080fd5b5035611d08565b6102c5600480360360208110156107d457600080fd5b5035611d23565b6102c5600480360360208110156107f157600080fd5b5035611d35565b6103c16004803603602081101561080e57600080fd5b5035611f78565b6108326004803603602081101561082b57600080fd5b5035611f83565b6040518082606080838360005b8381101561085757818101518382015260200161083f565b5050505090500191505060405180910390f35b6108326004803603604081101561088057600080fd5b50803590602001356001600160a01b0316611fd2565b6102c5600480360360208110156108ac57600080fd5b5035612743565b6103c1600480360360208110156108c957600080fd5b503561274e565b6102c5600480360360208110156108e657600080fd5b5035612773565b600060208190529081526040902080546001820154600283015460038401546004850154600586015460068701546007880154600889015460098a0154600a8b0154600b8c0154600c909c01549a9b999a989997989697959694959394929391929091906001600160a01b03168d565b60008281602002015183600160200201518460026020020151856003602002015186600460200201518760056020020151886006602002015189600760200201518a600860200201518b600960200201518c600a6020020151604051602001808c81526020018b81526020018a81526020018981526020018881526020018781526020018681526020018581526020018481526020018381526020018281526020019b505050505050505050505050604051602081830303815290604052805190602001208260405160200180838152602001826001600160a01b03166001600160a01b031660601b8152601401925050506040516020818303038152906040528051906020012090505b92915050565b600281565b600080610a7e613f3f565b50505060009182526001602081815260408085206001600160a01b039490941685526011909301815292829020825160608101845281548082529282015494810185905260029091015460ff16151592019190915291565b60009182526001602081815260408085206001600160a01b0394909416855260139093019052912080549101549091565b60009081526001602052604090205490565b60055481565b6000818152600260209081526040808320548584529183905282206005810154821115610b4e57806005015491505b6004810154610b63908363ffffffff61278516565b95945050505050565b6000610b7a848484336127cd565b949350505050565b604080516000805160206141d783398151915260208083019190915271189e5d195ccccc88141c9bdc1bdcd85b125960721b603e8301526b75696e7432353620566f746560a01b60508301527475696e7432353620416d6f756e74546f5374616b6560581b605c8301526c75696e74323536204e6f6e636560981b60718301528251605e818403018152607e909201909252805191012081565b600160208190526000918252604090912080549181015460028201546003830154600484015460058501546006860154600787015460088801546009890154600a8a0154600e909a01546001600160a01b03808b169b60ff600160a01b909c048c169b99909116989091168d565b600084610c9681612bc5565b610c9f57600080fd5b6000868152600160205260409020610cb5613f62565b5060058082015460009081526020818152604080832081516101a0810183528154815260018201549381019390935260028101549183019190915260038101546060830152600481015460808301529283015460a0820152600683015460c0820152600783015460e082015260088301546101008201526009830154610120820152600a830154610140820152600b830154610160820152600c909201546001600160a01b0316610180830181905215610d93578161018001516001600160a01b0316336001600160a01b031614610d8c57600080fd5b5084610d96565b50335b610da289828a8a612c38565b9998505050505050505050565b60009081526001602052604090206002015490565b6000818152600160205260408120600a01546105dc908290610ded90839063ffffffff61325b16565b600085815260016020818152604080842092845260129092019052902054909150610b7a90600a840290610e2890849063ffffffff61327116565b9063ffffffff6132ca16565b6000808460021415610f455750604080516000805160206141d783398151915260208083019190915271189e5d195ccccc88141c9bdc1bdcd85b125960721b603e8301526b75696e7432353620566f746560a01b60508301527475696e7432353620416d6f756e74546f5374616b6560581b605c8301526c75696e74323536204e6f6e636560981b60718301528251605e818403018152607e830184528051908201203060601b609e84015260b283018c905260d283018b905260f283018a90526101128084018a9052845180850390910181526101328401855280519083012061015284019190915261017280840191909152835180840390910181526101929092019092528051910120610f96565b604080513060601b602080830191909152603482018c9052605482018b9052607482018a905260948083018a90528351808403909101815260b49092019092528051910120610f9390613309565b90505b6000610fe085858080601f016020809104026020016040519081016040528093929190818152602001838380828437600092019190915250869392505063ffffffff613359169050565b90506001600160a01b03811661103a576040805162461bcd60e51b815260206004820152601a60248201527907374616b657220616464726573732063616e6e6f7420626520360341b604482015290519081900360640190fd5b6001600160a01b038116600090815260076020526040902054871461105e57600080fd5b6001600160a01b03811660009081526007602052604090205461108890600163ffffffff61343d16565b6001600160a01b0382166000908152600760205260409020556110ad8a8a8a846127cd565b9a9950505050505050505050565b600160029091565b60005b90565b60009081526001602081905260409091200154600160a01b900460ff1690565b6000828152600160205260408120819060026001820154600160a01b900460ff16600681111561111557fe5b1461111f57600080fd5b60028082015460009081526012830160209081526040808320546001600160a01b0389168452601386019092529091209182015490919015801590611168575060028301548154145b8015611178575060018360020154145b801561118357508115155b1561119f578183600701548260020154028161119b57fe5b0493505b83158015906112345750600183015460065460408051636b8eb40360e01b81526001600160a01b039283166004820152602481018b9052905187939290921691636b8eb40391604480820192602092909190829003018186803b15801561120557600080fd5b505afa158015611219573d6000803e3d6000fd5b505050506040513d602081101561122f57600080fd5b505110155b1561135a57600060028201556006830154611255908563ffffffff61349516565b60068085019190915560018401549054604080516317d4ebe560e31b81526001600160a01b039283166004820152898316602482015260448101889052606481018b90529051919092169163bea75f289160848083019260209291908290030181600087803b1580156112c757600080fd5b505af11580156112db573d6000803e3d6000fd5b505050506040513d60208110156112f157600080fd5b50516112fc57600080fd5b8254600090815260036020908152604091829020548251878152925196975087966001600160a01b03808b16949216928b927fb4a37163ec93e05e09b62e52f7f2ea8cfde431802edede7dfebe53d2ad969dbb929081900390910190a45b5050509250929050565b60009182526001602090815260408084209284526012909201905290205490565b6006546001600160a01b031681565b6000908152600160208181526040808420838552601081018352818520546002808752838720549587526012909201909352818520549085529320549093919291565b60006113e1613fd3565b60008381526001602081815260409283902083516101c08101855281548152928101546001600160a01b038116928401929092529192830190600160a01b900460ff16600681111561142f57fe5b600681111561143a57fe5b8152600282015460208201526003808301546001600160a01b0316604080840191909152600484015460608085019190915260058501546080850152600685015460a0850152600785015460c0850152600885015460e08501526009850154610100850152600a8501546101208501528151908101918290526101409093019291600b85019182845b8154815260200190600101908083116114c3575050509183525050600e919091015460ff16151560209091015260c0810151815191925061150391610b1f565b61150c846134d7565b119392505050565b6000838152602081905260408120600b0154421161156a576040805162461bcd60e51b815260206004820152600e60248201526d1b9bdd081858dd1a5d99481e595d60921b604482015290519081900360640190fd5b6000848152602081905260409020546032111561158657600080fd5b600554604080513060601b60208083019190915260348083018590528351808403909101815260549092019092528051910120906115cb90600163ffffffff61343d16565b6005556115d6613fd3565b33602082810182905260408051606093841b818401526001600160601b031988851b16603482015281516028818303018152604890910182528051908301208452600381850181905261018085015142905260008a815280845282812060029081015460a08801526001600160a01b038b811660808901529587015260c086018b9052855181529252902054166116c4576001600160a01b03841661169a578051600090815260036020526040902080546001600160a01b031916331790556116c4565b8051600090815260036020526040902080546001600160a01b0319166001600160a01b0386161790555b8051600090815260046020908152604080832054898452918390528220600a01546116fb91606491610e289163ffffffff61327116565b60008881526020819052604090206009015490915061172190829063ffffffff61351816565b60e0830152600083815260016020818152604092839020855181559085015191810180546001600160a01b0319166001600160a01b03909316929092178083559285015185939192909160ff60a01b1916600160a01b83600681111561178357fe5b0217905550606082015160028201556080820151600380830180546001600160a01b0319166001600160a01b039093169290921790915560a0830151600483015560c0830151600583015560e08301516006830155610100830151600783015561012083015160088301556101408301516009830155610160830151600a83015561018083015161181991600b84019190614054565b506101a09190910151600e909101805460ff191691151591909117905560e08201516000848152600160209081526040808320600280855260129091018352818420949094558551835260038252918290205482519384526001600160a01b038a8116928501929092528383018b9052915191169185917f75b4ff136cc5de5957574c797de3334eb1c141271922b825eb071e0487ba2c5c916060908290030190a350909695505050505050565b600060648335118015906118dd57506032833510155b6119185760405162461bcd60e51b815260040180806020018281038252602981526020018061415a6029913960400191505060405180910390fd5b613e8060808401351180159061193357506103e86080840135115b611984576040805162461bcd60e51b815260206004820152601e60248201527f31303030203c207468726573686f6c64436f6e7374203c3d2031363030300000604482015290519081900360640190fd5b606460e084013511156119de576040805162461bcd60e51b815260206004820181905260248201527f766f7465727352657075746174696f6e4c6f7373526174696f203c3d20313030604482015290519081900360640190fd5b60a083013560408401351015611a255760405162461bcd60e51b815260040180806020018281038252602b81526020018061412f602b913960400191505060405180910390fd5b610100830135611a7c576040805162461bcd60e51b815260206004820152601e60248201527f6d696e696d756d44616f426f756e74792073686f756c64206265203e20300000604482015290519081900360640190fd5b610120830135611ad2576040805162461bcd60e51b815260206004820152601c60248201527b064616f426f756e7479436f6e73742073686f756c64206265203e20360241b604482015290519081900360640190fd5b6000611b0884600b806020026040519081016040528092919082600b6020028082843760009201919091525086915061095d9050565b905060ac60026107d05b613e80811015611b5a57608087013581108015611b36575060028102608088013511155b15611b4c57818381611b4457fe5b049250611b5a565b600190910190600202611b12565b50604080516101a0810182528735815260208089013590820152878201359181019190915260608088013590820152608080820190611ba7908901356001600160d81b03166103e8613528565b81526020810184905260a088810135604083015260c0808a0135606084015260e0808b013560808501526101008b0135928401929092526101208a0135908301520187600a6020908102919091013582526001600160a01b03978816918101919091526000858152808252604090819020835181559183015160018301558201516002820155606082015160038201556080820151600482015560a0820151600582015560c0820151600682015560e0820151600782015561010082015160088201556101208201516009820155610140820151600a820155610160820151600b82015561018090910151600c90910180546001600160a01b0319169190961617909455509392505050565b80611cbd81612bc5565b611cc657600080fd5b5050565b50600290565b60076020526000908152604090205481565b600181565b6000918252600160209081526040808420928452600f909201905290205490565b6003602052600090815260409020546001600160a01b031681565b60046020526000908152604090205481565b600081815260016020526040812060056001820154600160a01b900460ff166006811115611d5f57fe5b1480611d84575060066001820154600160a01b900460ff166006811115611d8257fe5b145b611dbf5760405162461bcd60e51b81526004018080602001828103825260338152602001806141a46033913960400191505060405180910390fd5b611dc883613549565b611e13576040805162461bcd60e51b815260206004820152601760248201527670726f706f73616c206e65656420746f2065787069726560481b604482015290519081900360640190fd5b611e3f611e32600b83016001015460048401549063ffffffff61343d16565b429063ffffffff61349516565b600a820155611e4d83610dc4565b6008820154909250611e65908363ffffffff61349516565b60088201556006546040805163a9059cbb60e01b81523360048201526024810185905290516001600160a01b039092169163a9059cbb916044808201926020929091908290030181600087803b158015611ebe57600080fd5b505af1158015611ed2573d6000803e3d6000fd5b505050506040513d6020811015611ee857600080fd5b5051611f3b576040805162461bcd60e51b815260206004820152601d60248201527f7472616e7366657220746f206d73672e73656e646572206661696c6564000000604482015290519081900360640190fd5b604080518381529051339185917f7468017f6ff596af88244327e88fe691ac48cc1db88b033d11c335f2c7ccdd039181900360200190a350919050565b6000610a6882612bc5565b611f8b614092565b60008281526001602052604090819020815160608101909252600b0160038282826020028201915b815481526020019060010190808311611fb35750505050509050919050565b611fda614092565b600083815260016020526040902060026001820154600160a01b900460ff16600681111561200457fe5b14806120285750600180820154600160a01b900460ff16600681111561202657fe5b145b6120635760405162461bcd60e51b815260040180806020018281038252602d815260200180614102602d913960400191505060405180910390fd5b61206b613f62565b5060058082015460009081526020818152604080832081516101a081018352815481526001820154818501526002808301548285015260038301546060830152600483015460808301529582015460a0820152600682015460c0820152600782015460e082015260088201546101008201526009820154610120820152600a820154610140820152600b820154610160820152600c909101546001600160a01b03908116610180830152881684526013860183528184209486015484526012860190925282205490929161217761214189610dc4565b60016000908152601288016020526040808220546002835291205461216b9163ffffffff61343d16565b9063ffffffff61349516565b60018401549091501561224257600180860154600160a01b900460ff16600681111561219f57fe5b14156121b1576001830154865261223a565b60028501548354141561223a578254600114156122185780856007015410156122135760006121ed86600701548361349590919063ffffffff16565b90508261220782866001015461327190919063ffffffff16565b8161220e57fe5b048752505b61223a565b6001830154829061222f908363ffffffff61327116565b8161223657fe5b0486525b600060018401555b600e85015460ff16158015612272575084546000908152600360205260409020546001600160a01b038881169116145b80156122975750600180860154600160a01b900460ff16600681111561229457fe5b14155b80156122a7575060028560020154145b156122f85760078501546122e69061216b846122c9838663ffffffff61327116565b816122d057fe5b048960005b60200201519063ffffffff61343d16565b8652600e8501805460ff191660011790555b6001600160a01b038716600090815260118601602052604090206001810154158015906123295750600281015460ff165b1561246857600180870154600160a01b900460ff16600681111561234957fe5b141561237f57606461236d866101000151836001015461327190919063ffffffff16565b8161237457fe5b046020880152612460565b8054600287015414156124605760006001876002015414156123b45750600260009081526010870160205260409020546123c9565b50600160009081526010870160205260409020545b60646123e38761010001518361327190919063ffffffff16565b816123ea57fe5b6002890154600090815260108a01602052604090205460018501549290910492506124599161241f908463ffffffff61327116565b8161242657fe5b046064612445896101000151866001015461327190919063ffffffff16565b8161244c57fe5b049063ffffffff61343d16565b6020890152505b600060018201555b60038601546001600160a01b03898116911614801561248b575060018660020154145b80156124a3575060038601546001600160a01b031615155b156124c55760e085015160408801526003860180546001600160a01b03191690555b86511561261257865160088701546124dc91613495565b600887015560065487516040805163a9059cbb60e01b81526001600160a01b038c8116600483015260248201939093529051919092169163a9059cbb9160448083019260209291908290030181600087803b15801561253a57600080fd5b505af115801561254e573d6000803e3d6000fd5b505050506040513d602081101561256457600080fd5b50516125b7576040805162461bcd60e51b815260206004820152601e60248201527f7472616e7366657220746f2062656e6566696369617279206661696c65640000604482015290519081900360640190fd5b8554600090815260036020908152604091829020548951835190815292516001600160a01b038c8116949216928d927f6d26871c9f457d104b2122485f659f126f7a0cf6938cf20482c03f49794a2fbf929081900390910190a45b6040870151612623908860016122d5565b156127375760018601546001600160a01b031663d29b5d2f61264e89600260200201518a60016122d5565b8a8c6040518463ffffffff1660e01b815260040180848152602001836001600160a01b03166001600160a01b031681526020018281526020019350505050602060405180830381600087803b1580156126a657600080fd5b505af11580156126ba573d6000803e3d6000fd5b505050506040513d60208110156126d057600080fd5b505085546000908152600360205260409020546001600160a01b03808a1691168a7f7419b736daacf66d5c1645948c956fca2b83be1e2e02d486d65713f289d683b86127258b600260200201518c60016122d5565b60408051918252519081900360200190a45b50505050505092915050565b6000610a68826134d7565b60008161275a81612bc5565b61276357600080fd5b61276c83613549565b9392505050565b60026020526000908152604090205481565b60008282600160281b5b8115610b635781600116600114156127ae576127ab8184613dc6565b90505b60019190911c9081156127c8576127c58384613dc6565b92505b61278f565b6000600284111580156127e05750600084115b612824576040805162461bcd60e51b815260206004820152601060248201526f77726f6e6720766f74652076616c756560801b604482015290519081900360640190fd5b60008311612877576040805162461bcd60e51b815260206004820152601b60248201527a07374616b696e6720616d6f756e742073686f756c64206265203e3602c1b604482015290519081900360640190fd5b61288085613549565b1561288d57506001610b7a565b600085815260016020526040902060046001820154600160a01b900460ff1660068111156128b757fe5b141580156128df575060036001820154600160a01b900460ff1660068111156128dc57fe5b14155b156128ee576000915050610b7a565b6001600160a01b0383166000908152601382016020526040902060018101541580159061291c575080548614155b1561292c57600092505050610b7a565b600654604080516323b872dd60e01b81526001600160a01b038781166004830152306024830152604482018990529151889392909216916323b872dd916064808201926020929091908290030181600087803b15801561298b57600080fd5b505af115801561299f573d6000803e3d6000fd5b505050506040513d60208110156129b557600080fd5b5051612a04576040805162461bcd60e51b81526020600482015260196024820152783330b4b6103a3930b739b332b910333937b69039ba30b5b2b960391b604482015290519081900360640190fd5b6008830154612a19908263ffffffff61343d16565b60088401556001820154612a33908263ffffffff61343d16565b60018301819055600160801b1015612a8f576040805162461bcd60e51b815260206004820152601a6024820152790e6e8c2d6d2dcce40c2dadeeadce840d2e640e8dede40d0d2ced60331b604482015290519081900360640190fd5b6006830154612aa990600160801b9063ffffffff61349516565b83600801541115612afc576040805162461bcd60e51b81526020600482015260186024820152770e8dee8c2d840e6e8c2d6cae640d2e640e8dede40d0d2ced60431b604482015290519081900360640190fd5b6001871415612b20576002820154612b1a908263ffffffff61343d16565b60028301555b8682556000878152601284016020526040902054612b4590829063ffffffff61343d16565b60008881526012850160209081526040808320939093558554825260038152908290205482518a815291820189905282516001600160a01b03808a16949216928c927fd0239d7d4acf51def4507fa173be466927de5d75d8b10d840cd6994d6e10231092918290030190a4612bb988613549565b98975050505050505050565b600081815260016020819052604082200154600160a01b900460ff166004816006811115612bef57fe5b1480612c0657506005816006811115612c0457fe5b145b80612c1c57506006816006811115612c1a57fe5b145b8061276c57506003816006811115612c3057fe5b149392505050565b600060028311158015612c4b5750600083115b612c8d576040805162461bcd60e51b815260206004820152600e60248201526d18101e102fbb37ba32901e1e901960911b604482015290519081900360640190fd5b612c9685613549565b15612ca357506001610b7a565b612cab613f62565b506000858152600160208181526040808420600580820154865285845282862083516101a0810185528154815281870154818701526002820154818601526003820154606082015260048083015460808301529282015460a0820152600682015460c0820152600782015460e082015260088201546101008201526009820154610120820152600a820154610140820152600b820154610160820152600c909101546001600160a01b039081166101808301528c8852868652958301548451634ac41bc760e11b81528c881693810193909352602483018d905293519096929592949390921692639588378e92604480840193829003018186803b158015612db257600080fd5b505afa158015612dc6573d6000803e3d6000fd5b505050506040513d6020811015612ddc57600080fd5b5051905080612e30576040805162461bcd60e51b815260206004820152601b60248201527a2fbb37ba32b91036bab9ba103430bb32903932b83aba30ba34b7b760291b604482015290519081900360640190fd5b84811015612e7a576040805162461bcd60e51b8152602060048201526012602482015271072657075746174696f6e203e3d205f7265760741b604482015290519081900360640190fd5b8480612e835750805b6001600160a01b038816600090815260118401602052604090206001015415612eb3576000945050505050610b7a565b6000878152600f84016020526040902054612ed590829063ffffffff61343d16565b6000888152600f8501602052604080822083905560028601548252812054908990521080612f2d57506002808401546000908152600f8501602052604080822054928252902054148015612f2d575060018360020154145b1561302a5760056001840154600160a01b900460ff166006811115612f4e57fe5b148015612f6e575060c0840151604085015103600b840160010154420310155b80612f92575060066001840154600160a01b900460ff166006811115612f9057fe5b145b156130225760066001840154600160a01b900460ff166006811115612fb357fe5b1461301b5760c0840151600484015560018301805460ff60a01b1916600360a11b17908190556040518a916000805160206141f783398151915291600160a01b90910460ff16908082600681111561300757fe5b60ff16815260200191505060405180910390a25b42600c8401555b600283018790555b604080516060810182528881526020810183905290810160046001860154600160a01b900460ff16600681111561305d57fe5b1480613082575060036001860154600160a01b900460ff16600681111561308057fe5b145b151590526001600160a01b0389166000908152601185016020908152604091829020835181559083015160018201559101516002909101805460ff191691151591909117905560046001840154600160a01b900460ff1660068111156130e457fe5b1480613109575060036001840154600160a01b900460ff16600681111561310757fe5b145b156131f657600087815260108401602052604090205461313090829063ffffffff61343d16565b600088815260108501602052604081209190915561010085015160649061315d908463ffffffff61327116565b8161316457fe5b600186015460408051637c0fc5fb60e11b815293909204600484018190526001600160a01b038d81166024860152604485018f9052925190945091169163f81f8bf69160648083019260209291908290030181600087803b1580156131c857600080fd5b505af11580156131dc573d6000803e3d6000fd5b505050506040513d60208110156131f257600080fd5b5050505b82546000908152600360209081526040918290205482518a815291820184905282516001600160a01b03808d16949216928d927f066c061a3792cb3eb64a441a928655fcbafb4a54b49725fe9cd2951df5e7189e92918290030190a4610da289613549565b600081831061326a578161276c565b5090919050565b60008261328057506000610a68565b8282028284828161328d57fe5b041461276c5760405162461bcd60e51b81526004018080602001828103825260218152602001806141836021913960400191505060405180910390fd5b600061276c83836040518060400160405280601a815260200179536166654d6174683a206469766973696f6e206279207a65726f60301b815250613e2a565b604080517b0ca2ba3432b932bab69029b4b3b732b21026b2b9b9b0b3b29d05199960211b602080830191909152603c8083019490945282518083039094018452605c909101909152815191012090565b6000815160411461336c57506000610a68565b60208201516040830151606084015160001a6fa2a8918ca85bafe22016d0b997e4df60600160ff1b038211156133a85760009350505050610a68565b8060ff16601b141580156133c057508060ff16601c14155b156133d15760009350505050610a68565b6040805160008152602080820180845289905260ff8416828401526060820186905260808201859052915160019260a0808401939192601f1981019281900390910190855afa158015613428573d6000803e3d6000fd5b5050604051601f190151979650505050505050565b60008282018381101561276c576040805162461bcd60e51b815260206004820152601b60248201527a536166654d6174683a206164646974696f6e206f766572666c6f7760281b604482015290519081900360640190fd5b600061276c83836040518060400160405280601e81526020017f536166654d6174683a207375627472616374696f6e206f766572666c6f770000815250613ecc565b6000818152600160208181526040808420600285526012810190925280842054928452832054909161276c916001600160d81b03169063ffffffff61352816565b60008183101561326a578161276c565b600061276c6001600160d81b03808516600160281b90810291851602613f26565b60008161355581612bc5565b61355e57600080fd5b6000838152600160205260409020613574613f62565b506005808201546000908152602081815260409182902082516101a0810184528154815260018201549281019290925260028101549282019290925260038201546060820152600482015460808201529181015460a0830152600681015460c0830152600781015460e083015260088101546101008301526009810154610120830152600a810154610140830152600b810154610160830152600c01546001600160a01b0316610180820152613628613fd3565b604080516101c0810182528454815260018501546001600160a01b03811660208301529091859190830190600160a01b900460ff16600681111561366857fe5b600681111561367357fe5b8152600282015460208201526003808301546001600160a01b0316604080840191909152600484015460608085019190915260058501546080850152600685015460a0850152600785015460c0850152600885015460e08501526009850154610100850152600a8501546101208501528151908101918290526101409093019291600b85019182845b8154815260200190600101908083116136fc575050509183525050600e919091015460ff16151560209182015260018501546040805163b551c37360e01b8152600481018b905290519394506000936001600160a01b039092169263b551c37392602480840193829003018186803b15801561377757600080fd5b505afa15801561378b573d6000803e3d6000fd5b505050506040513d60208110156137a157600080fd5b5051835160028601546000908152600f8701602052604081205492935060648404909102918190819084101561384e5760036001890154600160a01b900460ff1660068111156137ed57fe5b14156137fc576001925061382c565b60046001890154600160a01b900460ff16600681111561381857fe5b1415613827576003925061382c565b600592505b6001880180546002919060ff60a01b1916600160a01b835b0217905550613a95565b60036001890154600160a01b900460ff16600681111561386a57fe5b14156138ec576020870151600b8901544203106138a55760018801805460ff60a01b1916600160a01b179055600280890181905592506138ec565b6138b788600501548960000154610b1f565b9050806138c38c6134d7565b11156138ec5760018801805460ff60a01b1916600160a21b17905542600d890155600988018190555b60046001890154600160a01b900460ff16600681111561390857fe5b1415613a955761392088600501548960000154610b1f565b6060880151909150600b890160020154420310613a0657806139418c6134d7565b11156139e557875460009081526002602052604090205461100011156139e0576001888101805460ff60a01b1916600560a01b17905542600c8a01558854600090815260026020818152604080842080549095019094558b54835260048152838320548282528484205492845260128d01909152929091205491935090839003816139c857fe5b89546000908152600460205260409020919005830190555b613a01565b6001880180546003919060ff60a01b1916600160a01b83613844565b613a95565b6000613a118c6134d7565b60098a0154909150613a29908363ffffffff61325b16565b8111613a495760018901805460ff60a01b1916600360a01b179055613a93565b8089600901541115613a9357600989018290556040805183815290518d917fad767d61af51c7895fa3cc0497dde01afb610c74e55ee4d8a71fa5e3ee136d54919081900360200190a25b505b60056001890154600160a01b900460ff166006811115613ab157fe5b1480613ad6575060066001890154600160a01b900460ff166006811115613ad457fe5b145b15613b06576004880154600c890154420310613b065760018801805460ff60a01b1916600160a11b179055600492505b6000836005811115613b1457fe5b14613d32576004836005811115613b2757fe5b1480613b3e57506005836005811115613b3c57fe5b145b15613bf9578551600090815260026020526040902054613b6590600163ffffffff61349516565b86516000908152600260205260408082209290925587518152205480613b9b578854600090815260046020526040812055613bf7565b88546000908152600460209081526040808320546002845260128d01909252909120549093508190613bda9061216b866001850163ffffffff61327116565b81613be157fe5b8a54600090815260046020526040902091900490555b505b87546000908152600360209081526040918290205460028b0154835190815291820188905282516001600160a01b03909116928e927f37471b9c9d295ffb1309ad070b8964700bfb7b555e8e8292d0b6cbc7dba35d10929081900390910190a38a7f46a713b994c752c68fbefa9048bec9a0010cc7d933ad95a3c3dbb25931a167e78460405180826005811115613c8c57fe5b60ff16815260200191505060405180910390a26001880154600289015460408051639d4c162d60e01b8152600481018f90526024810192909252516001600160a01b0390921691639d4c162d916044808201926020929091908290030181600087803b158015613cfb57600080fd5b505af1158015613d0f573d6000803e3d6000fd5b505050506040513d6020811015613d2557600080fd5b5050600688015460078901555b6001880154600160a01b900460ff166006811115613d4c57fe5b86604001516006811115613d5c57fe5b14613da7578a6000805160206141f78339815191528960010160149054906101000a900460ff1660405180826006811115613d9357fe5b60ff16815260200191505060405180910390a25b6000836005811115613db557fe5b14159b9a5050505050505050505050565b600082820282848281613dd557fe5b0414613e20576040805162461bcd60e51b81526020600482015260156024820152745265616c4d617468206d756c206f766572666c6f7760581b604482015290519081900360640190fd5b60281c9392505050565b60008183613eb65760405162461bcd60e51b81526004018080602001828103825283818151815260200191508051906020019080838360005b83811015613e7b578181015183820152602001613e63565b50505050905090810190601f168015613ea85780820380516001836020036101000a031916815260200191505b509250505060405180910390fd5b506000838581613ec257fe5b0495945050505050565b60008184841115613f1e5760405162461bcd60e51b8152602060048201818152835160248401528351909283926044909101919085019080838360008315613e7b578181015183820152602001613e63565b505050900390565b600081600160281b840281613f3757fe5b049392505050565b604051806060016040528060008152602001600081526020016000151581525090565b604051806101a0016040528060008152602001600081526020016000815260200160008152602001600081526020016000815260200160008152602001600081526020016000815260200160008152602001600081526020016000815260200160006001600160a01b031681525090565b604080516101c081018252600080825260208201819052909182019081526020016000815260200160006001600160a01b0316815260200160008152602001600080191681526020016000815260200160008152602001600081526020016000815260200160008152602001614047614092565b8152600060209091015290565b8260038101928215614082579160200282015b82811115614082578251825591602001919060010190614067565b5061408e9291506140b0565b5090565b60405180606001604052806003906020820280388339509192915050565b6110c691905b8082111561408e57600081556001016140b6565b6000813f7fc5d2460186f7233c927e7db2dcc703c0e500b653ca82273b7bfad8045d85a4708115801590610b7a575014159291505056fe50726f706f73616c2073686f756c64206265204578656375746564206f722045787069726564496e5175657565626f6f73746564566f7465506572696f644c696d6974203e3d207175696574456e64696e67506572696f643530203c3d20717565756564566f7465526571756972656450657263656e74616765203c3d20313030536166654d6174683a206d756c7469706c69636174696f6e206f766572666c6f7770726f706f73616c20737461746520696e206e6f7420426f6f73746564206e6f72205175696574456e64696e67506572696f64616464726573732047656e6573697350726f746f636f6c41646472657373000021aca7f0285ccddeca2935074d3e36b5ab8fea0327f84cbbf12cf1b6d1a749f9a265627a7a723158204798b7395754ccd778ac3e674f5c71c9b123897c0dd1df38c077d3c17fa4104964736f6c634300050d0032",
  "source": "pragma solidity 0.5.13;\n\nimport \"openzeppelin-solidity/contracts/cryptography/ECDSA.sol\";\nimport \"./GenesisProtocolLogic.sol\";\n\n\n/**\n * @title GenesisProtocol implementation -an organization's voting machine scheme.\n */\ncontract GenesisProtocol is IntVoteInterface, GenesisProtocolLogic {\n    using ECDSA for bytes32;\n\n    // Digest describing the data the user signs according EIP 712.\n    // Needs to match what is passed to Metamask.\n    bytes32 public constant DELEGATION_HASH_EIP712 =\n    keccak256(abi.encodePacked(\n    \"address GenesisProtocolAddress\",\n    \"bytes32 ProposalId\",\n    \"uint256 Vote\",\n    \"uint256 AmountToStake\",\n    \"uint256 Nonce\"\n    ));\n\n    mapping(address=>uint256) public stakesNonce; //stakes Nonce\n\n    /**\n     * @dev Constructor\n     */\n    constructor(IERC20 _stakingToken)\n    public\n    // solhint-disable-next-line no-empty-blocks\n    GenesisProtocolLogic(_stakingToken) {\n    }\n\n    /**\n     * @dev staking function\n     * @param _proposalId id of the proposal\n     * @param _vote  NO(2) or YES(1).\n     * @param _amount the betting amount\n     * @return bool true - the proposal has been executed\n     *              false - otherwise.\n     */\n    function stake(bytes32 _proposalId, uint256 _vote, uint256 _amount) external returns(bool) {\n        return _stake(_proposalId, _vote, _amount, msg.sender);\n    }\n\n    /**\n     * @dev stakeWithSignature function\n     * @param _proposalId id of the proposal\n     * @param _vote  NO(2) or YES(1).\n     * @param _amount the betting amount\n     * @param _nonce nonce value ,it is part of the signature to ensure that\n              a signature can be received only once.\n     * @param _signatureType signature type\n              1 - for web3.eth.sign\n              2 - for eth_signTypedData according to EIP #712.\n     * @param _signature  - signed data by the staker\n     * @return bool true - the proposal has been executed\n     *              false - otherwise.\n     */\n    function stakeWithSignature(\n        bytes32 _proposalId,\n        uint256 _vote,\n        uint256 _amount,\n        uint256 _nonce,\n        uint256 _signatureType,\n        bytes calldata _signature\n        )\n        external\n        returns(bool)\n        {\n        // Recreate the digest the user signed\n        bytes32 delegationDigest;\n        if (_signatureType == 2) {\n            delegationDigest = keccak256(\n                abi.encodePacked(\n                    DELEGATION_HASH_EIP712, keccak256(\n                        abi.encodePacked(\n                        address(this),\n                        _proposalId,\n                        _vote,\n                        _amount,\n                        _nonce)\n                    )\n                )\n            );\n        } else {\n            delegationDigest = keccak256(\n                        abi.encodePacked(\n                        address(this),\n                        _proposalId,\n                        _vote,\n                        _amount,\n                        _nonce)\n                    ).toEthSignedMessageHash();\n        }\n        address staker = delegationDigest.recover(_signature);\n        //a garbage staker address due to wrong signature will revert due to lack of approval and funds.\n        require(staker != address(0), \"staker address cannot be 0\");\n        require(stakesNonce[staker] == _nonce);\n        stakesNonce[staker] = stakesNonce[staker].add(1);\n        return _stake(_proposalId, _vote, _amount, staker);\n    }\n\n    /**\n     * @dev voting function\n     * @param _proposalId id of the proposal\n     * @param _vote NO(2) or YES(1).\n     * @param _amount the reputation amount to vote with . if _amount == 0 it will use all voter reputation.\n     * @param _voter voter address\n     * @return bool true - the proposal has been executed\n     *              false - otherwise.\n     */\n    function vote(bytes32 _proposalId, uint256 _vote, uint256 _amount, address _voter)\n    external\n    votable(_proposalId)\n    returns(bool) {\n        Proposal storage proposal = proposals[_proposalId];\n        Parameters memory params = parameters[proposal.paramsHash];\n        address voter;\n        if (params.voteOnBehalf != address(0)) {\n            require(msg.sender == params.voteOnBehalf);\n            voter = _voter;\n        } else {\n            voter = msg.sender;\n        }\n        return internalVote(_proposalId, voter, _vote, _amount);\n    }\n\n  /**\n   * @dev Cancel the vote of the msg.sender.\n   * cancel vote is not allow in genesisProtocol so this function doing nothing.\n   * This function is here in order to comply to the IntVoteInterface .\n   */\n    function cancelVote(bytes32 _proposalId) external votable(_proposalId) {\n       //this is not allowed\n        return;\n    }\n\n    /**\n      * @dev execute check if the proposal has been decided, and if so, execute the proposal\n      * @param _proposalId the id of the proposal\n      * @return bool true - the proposal has been executed\n      *              false - otherwise.\n     */\n    function execute(bytes32 _proposalId) external votable(_proposalId) returns(bool) {\n        return _execute(_proposalId);\n    }\n\n  /**\n    * @dev getNumberOfChoices returns the number of choices possible in this proposal\n    * @return uint256 that contains number of choices\n    */\n    function getNumberOfChoices(bytes32) external view returns(uint256) {\n        return NUM_OF_CHOICES;\n    }\n\n    /**\n      * @dev getProposalTimes returns proposals times variables.\n      * @param _proposalId id of the proposal\n      * @return proposals times array\n      */\n    function getProposalTimes(bytes32 _proposalId) external view returns(uint[3] memory times) {\n        return proposals[_proposalId].times;\n    }\n\n    /**\n     * @dev voteInfo returns the vote and the amount of reputation of the user committed to this proposal\n     * @param _proposalId the ID of the proposal\n     * @param _voter the address of the voter\n     * @return uint256 vote - the voters vote\n     *        uint256 reputation - amount of reputation committed by _voter to _proposalId\n     */\n    function voteInfo(bytes32 _proposalId, address _voter) external view returns(uint, uint) {\n        Voter memory voter = proposals[_proposalId].voters[_voter];\n        return (voter.vote, voter.reputation);\n    }\n\n    /**\n    * @dev voteStatus returns the reputation voted for a proposal for a specific voting choice.\n    * @param _proposalId the ID of the proposal\n    * @param _choice the index in the\n    * @return voted reputation for the given choice\n    */\n    function voteStatus(bytes32 _proposalId, uint256 _choice) external view returns(uint256) {\n        return proposals[_proposalId].votes[_choice];\n    }\n\n    /**\n    * @dev isVotable check if the proposal is votable\n    * @param _proposalId the ID of the proposal\n    * @return bool true or false\n    */\n    function isVotable(bytes32 _proposalId) external view returns(bool) {\n        return _isVotable(_proposalId);\n    }\n\n    /**\n    * @dev proposalStatus return the total votes and stakes for a given proposal\n    * @param _proposalId the ID of the proposal\n    * @return uint256 preBoostedVotes YES\n    * @return uint256 preBoostedVotes NO\n    * @return uint256 total stakes YES\n    * @return uint256 total stakes NO\n    */\n    function proposalStatus(bytes32 _proposalId) external view returns(uint256, uint256, uint256, uint256) {\n        return (\n                proposals[_proposalId].preBoostedVotes[YES],\n                proposals[_proposalId].preBoostedVotes[NO],\n                proposals[_proposalId].stakes[YES],\n                proposals[_proposalId].stakes[NO]\n        );\n    }\n\n  /**\n    * @dev getProposalOrganization return the organizationId for a given proposal\n    * @param _proposalId the ID of the proposal\n    * @return bytes32 organization identifier\n    */\n    function getProposalOrganization(bytes32 _proposalId) external view returns(bytes32) {\n        return (proposals[_proposalId].organizationId);\n    }\n\n    /**\n      * @dev getStaker return the vote and stake amount for a given proposal and staker\n      * @param _proposalId the ID of the proposal\n      * @param _staker staker address\n      * @return uint256 vote\n      * @return uint256 amount\n    */\n    function getStaker(bytes32 _proposalId, address _staker) external view returns(uint256, uint256) {\n        return (proposals[_proposalId].stakers[_staker].vote, proposals[_proposalId].stakers[_staker].amount);\n    }\n\n    /**\n      * @dev voteStake return the amount stakes for a given proposal and vote\n      * @param _proposalId the ID of the proposal\n      * @param _vote vote number\n      * @return uint256 stake amount\n    */\n    function voteStake(bytes32 _proposalId, uint256 _vote) external view returns(uint256) {\n        return proposals[_proposalId].stakes[_vote];\n    }\n\n  /**\n    * @dev voteStake return the winningVote for a given proposal\n    * @param _proposalId the ID of the proposal\n    * @return uint256 winningVote\n    */\n    function winningVote(bytes32 _proposalId) external view returns(uint256) {\n        return proposals[_proposalId].winningVote;\n    }\n\n    /**\n      * @dev voteStake return the state for a given proposal\n      * @param _proposalId the ID of the proposal\n      * @return ProposalState proposal state\n    */\n    function state(bytes32 _proposalId) external view returns(ProposalState) {\n        return proposals[_proposalId].state;\n    }\n\n   /**\n    * @dev isAbstainAllow returns if the voting machine allow abstain (0)\n    * @return bool true or false\n    */\n    function isAbstainAllow() external pure returns(bool) {\n        return false;\n    }\n\n    /**\n     * @dev getAllowedRangeOfChoices returns the allowed range of choices for a voting machine.\n     * @return min - minimum number of choices\n               max - maximum number of choices\n     */\n    function getAllowedRangeOfChoices() external pure returns(uint256 min, uint256 max) {\n        return (YES, NO);\n    }\n\n    /**\n     * @dev score return the proposal score\n     * @param _proposalId the ID of the proposal\n     * @return uint256 proposal score.\n     */\n    function score(bytes32 _proposalId) public view returns(uint256) {\n        return  _score(_proposalId);\n    }\n}\n",
  "sourcePath": "@daostack/infra/contracts/votingMachines/GenesisProtocol.sol",
  "compiler": {
    "name": "solc",
    "version": "0.5.13+commit.5b0b510c.Emscripten.clang"
  },
  "schemaVersion": "3.2.2",
  "updatedAt": "2020-07-19T21:26:26.794Z",
  "devdoc": {
    "methods": {
      "calcExecuteCallBounty(bytes32)": {
        "details": "calcExecuteCallBounty calculate the execute boosted call bounty",
        "params": {
          "_proposalId": "the ID of the proposal"
        },
        "return": "uint256 executeCallBounty"
      },
      "cancelVote(bytes32)": {
        "details": "Cancel the vote of the msg.sender. cancel vote is not allow in genesisProtocol so this function doing nothing. This function is here in order to comply to the IntVoteInterface ."
      },
      "constructor": {
        "details": "Constructor"
      },
      "execute(bytes32)": {
        "details": "execute check if the proposal has been decided, and if so, execute the proposal",
        "params": {
          "_proposalId": "the id of the proposal"
        },
        "return": "bool true - the proposal has been executed             false - otherwise."
      },
      "executeBoosted(bytes32)": {
        "details": "executeBoosted try to execute a boosted or QuietEndingPeriod proposal if it is expired it rewards the msg.sender with P % of the proposal's upstakes upon a successful call to this function. P = t/150, where t is the number of seconds passed since the the proposal's timeout. P is capped by 10%.",
        "params": {
          "_proposalId": "the id of the proposal"
        },
        "return": "uint256 expirationCallBounty the bounty amount for the expiration call"
      },
      "getAllowedRangeOfChoices()": {
        "details": "getAllowedRangeOfChoices returns the allowed range of choices for a voting machine.",
        "return": "min - minimum number of choices max - maximum number of choices"
      },
      "getNumberOfChoices(bytes32)": {
        "details": "getNumberOfChoices returns the number of choices possible in this proposal",
        "return": "uint256 that contains number of choices"
      },
      "getParametersHash(uint256[11],address)": {
        "details": "hashParameters returns a hash of the given parameters"
      },
      "getProposalOrganization(bytes32)": {
        "details": "getProposalOrganization return the organizationId for a given proposal",
        "params": {
          "_proposalId": "the ID of the proposal"
        },
        "return": "bytes32 organization identifier"
      },
      "getProposalTimes(bytes32)": {
        "details": "getProposalTimes returns proposals times variables.",
        "params": {
          "_proposalId": "id of the proposal"
        },
        "return": "proposals times array"
      },
      "getStaker(bytes32,address)": {
        "details": "getStaker return the vote and stake amount for a given proposal and staker",
        "params": {
          "_proposalId": "the ID of the proposal",
          "_staker": "staker address"
        },
        "return": "uint256 voteuint256 amount"
      },
      "isAbstainAllow()": {
        "details": "isAbstainAllow returns if the voting machine allow abstain (0)",
        "return": "bool true or false"
      },
      "isVotable(bytes32)": {
        "details": "isVotable check if the proposal is votable",
        "params": {
          "_proposalId": "the ID of the proposal"
        },
        "return": "bool true or false"
      },
      "proposalStatus(bytes32)": {
        "details": "proposalStatus return the total votes and stakes for a given proposal",
        "params": {
          "_proposalId": "the ID of the proposal"
        },
        "return": "uint256 preBoostedVotes YESuint256 preBoostedVotes NOuint256 total stakes YESuint256 total stakes NO"
      },
      "propose(uint256,bytes32,address,address)": {
        "details": "register a new proposal with the given parameters. Every proposal has a unique ID which is being generated by calculating keccak256 of a incremented counter.",
        "params": {
          "_organization": "address",
          "_paramsHash": "parameters hash",
          "_proposer": "address"
        }
      },
      "redeem(bytes32,address)": {
        "details": "redeem a reward for a successful stake, vote or proposing. The function use a beneficiary address as a parameter (and not msg.sender) to enable users to redeem on behalf of someone else.",
        "params": {
          "_beneficiary": "- the beneficiary address",
          "_proposalId": "the ID of the proposal"
        },
        "return": "rewards -          [0] stakerTokenReward          [1] voterReputationReward          [2] proposerReputationReward"
      },
      "redeemDaoBounty(bytes32,address)": {
        "details": "redeemDaoBounty a reward for a successful stake. The function use a beneficiary address as a parameter (and not msg.sender) to enable users to redeem on behalf of someone else.",
        "params": {
          "_beneficiary": "- the beneficiary address",
          "_proposalId": "the ID of the proposal"
        },
        "return": "redeemedAmount - redeem token amountpotentialAmount - potential redeem token amount(if there is enough tokens bounty at the organization )"
      },
      "score(bytes32)": {
        "details": "score return the proposal score",
        "params": {
          "_proposalId": "the ID of the proposal"
        },
        "return": "uint256 proposal score."
      },
      "setParameters(uint256[11],address)": {
        "details": "hash the parameters, save them if necessary, and return the hash value",
        "params": {
          "_params": "a parameters array   _params[0] - _queuedVoteRequiredPercentage,   _params[1] - _queuedVotePeriodLimit, //the time limit for a proposal to be in an absolute voting mode.   _params[2] - _boostedVotePeriodLimit, //the time limit for a proposal to be in an relative voting mode.   _params[3] - _preBoostedVotePeriodLimit, //the time limit for a proposal to be in an preparation                 state (stable) before boosted.   _params[4] -_thresholdConst   _params[5] -_quietEndingPeriod   _params[6] -_proposingRepReward   _params[7] -_votersReputationLossRatio   _params[8] -_minimumDaoBounty   _params[9] -_daoBountyConst   _params[10] -_activationTime",
          "_voteOnBehalf": "- authorized to vote on behalf of others."
        }
      },
      "shouldBoost(bytes32)": {
        "details": "shouldBoost check if a proposal should be shifted to boosted phase.",
        "params": {
          "_proposalId": "the ID of the proposal"
        },
        "return": "bool true or false."
      },
      "stake(bytes32,uint256,uint256)": {
        "details": "staking function",
        "params": {
          "_amount": "the betting amount",
          "_proposalId": "id of the proposal",
          "_vote": "NO(2) or YES(1)."
        },
        "return": "bool true - the proposal has been executed             false - otherwise."
      },
      "stakeWithSignature(bytes32,uint256,uint256,uint256,uint256,bytes)": {
        "details": "stakeWithSignature function",
        "params": {
          "_amount": "the betting amount",
          "_nonce": "nonce value ,it is part of the signature to ensure that a signature can be received only once.",
          "_proposalId": "id of the proposal",
          "_signature": "- signed data by the staker",
          "_signatureType": "signature type 1 - for web3.eth.sign 2 - for eth_signTypedData according to EIP #712.",
          "_vote": "NO(2) or YES(1)."
        },
        "return": "bool true - the proposal has been executed             false - otherwise."
      },
      "state(bytes32)": {
        "details": "voteStake return the state for a given proposal",
        "params": {
          "_proposalId": "the ID of the proposal"
        },
        "return": "ProposalState proposal state"
      },
      "threshold(bytes32,bytes32)": {
        "details": "threshold return the organization's score threshold which required by a proposal to shift to boosted state. This threshold is dynamically set and it depend on the number of boosted proposal.",
        "params": {
          "_organizationId": "the organization identifier",
          "_paramsHash": "the organization parameters hash"
        },
        "return": "uint256 organization's score threshold as real number."
      },
      "vote(bytes32,uint256,uint256,address)": {
        "details": "voting function",
        "params": {
          "_amount": "the reputation amount to vote with . if _amount == 0 it will use all voter reputation.",
          "_proposalId": "id of the proposal",
          "_vote": "NO(2) or YES(1).",
          "_voter": "voter address"
        },
        "return": "bool true - the proposal has been executed             false - otherwise."
      },
      "voteInfo(bytes32,address)": {
        "details": "voteInfo returns the vote and the amount of reputation of the user committed to this proposal",
        "params": {
          "_proposalId": "the ID of the proposal",
          "_voter": "the address of the voter"
        },
        "return": "uint256 vote - the voters vote       uint256 reputation - amount of reputation committed by _voter to _proposalId"
      },
      "voteStake(bytes32,uint256)": {
        "details": "voteStake return the amount stakes for a given proposal and vote",
        "params": {
          "_proposalId": "the ID of the proposal",
          "_vote": "vote number"
        },
        "return": "uint256 stake amount"
      },
      "voteStatus(bytes32,uint256)": {
        "details": "voteStatus returns the reputation voted for a proposal for a specific voting choice.",
        "params": {
          "_choice": "the index in the",
          "_proposalId": "the ID of the proposal"
        },
        "return": "voted reputation for the given choice"
      },
      "winningVote(bytes32)": {
        "details": "voteStake return the winningVote for a given proposal",
        "params": {
          "_proposalId": "the ID of the proposal"
        },
        "return": "uint256 winningVote"
      }
    },
    "title": "GenesisProtocol implementation -an organization's voting machine scheme."
  },
  "userdoc": {
    "methods": {}
  }
}