{
  "contractName": "DaoCreator",
  "abi": [
    {
      "inputs": [
        {
          "internalType": "contract ControllerCreator",
          "name": "_controllerCreator",
          "type": "address"
        },
        {
          "internalType": "contract DAOTracker",
          "name": "_daoTracker",
          "type": "address"
        }
      ],
      "payable": false,
      "stateMutability": "nonpayable",
      "type": "constructor"
    },
    {
      "anonymous": false,
      "inputs": [
        {
          "indexed": false,
          "internalType": "address",
          "name": "_avatar",
          "type": "address"
        }
      ],
      "name": "InitialSchemesSet",
      "type": "event"
    },
    {
      "anonymous": false,
      "inputs": [
        {
          "indexed": false,
          "internalType": "address",
          "name": "_avatar",
          "type": "address"
        }
      ],
      "name": "NewOrg",
      "type": "event"
    },
    {
      "constant": true,
      "inputs": [
        {
          "internalType": "address",
          "name": "",
          "type": "address"
        }
      ],
      "name": "locks",
      "outputs": [
        {
          "internalType": "address",
          "name": "",
          "type": "address"
        }
      ],
      "payable": false,
      "stateMutability": "view",
      "type": "function"
    },
    {
      "constant": false,
      "inputs": [
        {
          "internalType": "contract Avatar",
          "name": "_avatar",
          "type": "address"
        },
        {
          "internalType": "address[]",
          "name": "_founders",
          "type": "address[]"
        },
        {
          "internalType": "uint256[]",
          "name": "_foundersTokenAmount",
          "type": "uint256[]"
        },
        {
          "internalType": "uint256[]",
          "name": "_foundersReputationAmount",
          "type": "uint256[]"
        }
      ],
      "name": "addFounders",
      "outputs": [
        {
          "internalType": "bool",
          "name": "",
          "type": "bool"
        }
      ],
      "payable": false,
      "stateMutability": "nonpayable",
      "type": "function"
    },
    {
      "constant": false,
      "inputs": [
        {
          "internalType": "string",
          "name": "_orgName",
          "type": "string"
        },
        {
          "internalType": "string",
          "name": "_tokenName",
          "type": "string"
        },
        {
          "internalType": "string",
          "name": "_tokenSymbol",
          "type": "string"
        },
        {
          "internalType": "address[]",
          "name": "_founders",
          "type": "address[]"
        },
        {
          "internalType": "uint256[]",
          "name": "_foundersTokenAmount",
          "type": "uint256[]"
        },
        {
          "internalType": "uint256[]",
          "name": "_foundersReputationAmount",
          "type": "uint256[]"
        },
        {
          "internalType": "uint256",
          "name": "_cap",
          "type": "uint256"
        }
      ],
      "name": "forgeOrg",
      "outputs": [
        {
          "internalType": "address",
          "name": "",
          "type": "address"
        }
      ],
      "payable": false,
      "stateMutability": "nonpayable",
      "type": "function"
    },
    {
      "constant": false,
      "inputs": [
        {
          "internalType": "contract Avatar",
          "name": "_avatar",
          "type": "address"
        },
        {
          "internalType": "address[]",
          "name": "_schemes",
          "type": "address[]"
        },
        {
          "internalType": "bytes32[]",
          "name": "_params",
          "type": "bytes32[]"
        },
        {
          "internalType": "bytes4[]",
          "name": "_permissions",
          "type": "bytes4[]"
        },
        {
          "internalType": "string",
          "name": "_metaData",
          "type": "string"
        }
      ],
      "name": "setSchemes",
      "outputs": [],
      "payable": false,
      "stateMutability": "nonpayable",
      "type": "function"
    }
  ],
  "bytecode": "0x608060405234801561001057600080fd5b506040516147d93803806147d98339818101604052604081101561003357600080fd5b5080516020909101516001600160a01b03821661004f57600080fd5b6001600160a01b03811661006257600080fd5b600180546001600160a01b039384166001600160a01b0319918216179091556002805492909316911617905561473c8061009d6000396000f3fe60806040523480156200001157600080fd5b5060043610620000525760003560e01c8063064bf386146200005757806328e697cc14620001d6578063571084bd14620004055780635de9a1371462000543575b600080fd5b620001d4600480360360a08110156200006f57600080fd5b6001600160a01b038235169190810190604081016020820135600160201b8111156200009a57600080fd5b820183602082011115620000ad57600080fd5b803590602001918460208302840111600160201b83111715620000cf57600080fd5b919390929091602081019035600160201b811115620000ed57600080fd5b8201836020820111156200010057600080fd5b803590602001918460208302840111600160201b831117156200012257600080fd5b919390929091602081019035600160201b8111156200014057600080fd5b8201836020820111156200015357600080fd5b803590602001918460208302840111600160201b831117156200017557600080fd5b919390929091602081019035600160201b8111156200019357600080fd5b820183602082011115620001a657600080fd5b803590602001918460018302840111600160201b83111715620001c857600080fd5b5090925090506200056c565b005b620003e9600480360360e0811015620001ee57600080fd5b810190602081018135600160201b8111156200020957600080fd5b8201836020820111156200021c57600080fd5b803590602001918460018302840111600160201b831117156200023e57600080fd5b919390929091602081019035600160201b8111156200025c57600080fd5b8201836020820111156200026f57600080fd5b803590602001918460018302840111600160201b831117156200029157600080fd5b919390929091602081019035600160201b811115620002af57600080fd5b820183602082011115620002c257600080fd5b803590602001918460018302840111600160201b83111715620002e457600080fd5b919390929091602081019035600160201b8111156200030257600080fd5b8201836020820111156200031557600080fd5b803590602001918460208302840111600160201b831117156200033757600080fd5b919390929091602081019035600160201b8111156200035557600080fd5b8201836020820111156200036857600080fd5b803590602001918460208302840111600160201b831117156200038a57600080fd5b919390929091602081019035600160201b811115620003a857600080fd5b820183602082011115620003bb57600080fd5b803590602001918460208302840111600160201b83111715620003dd57600080fd5b919350915035620008b9565b604080516001600160a01b039092168252519081900360200190f35b6200052f600480360360808110156200041d57600080fd5b6001600160a01b038235169190810190604081016020820135600160201b8111156200044857600080fd5b8201836020820111156200045b57600080fd5b803590602001918460208302840111600160201b831117156200047d57600080fd5b919390929091602081019035600160201b8111156200049b57600080fd5b820183602082011115620004ae57600080fd5b803590602001918460208302840111600160201b83111715620004d057600080fd5b919390929091602081019035600160201b811115620004ee57600080fd5b8201836020820111156200050157600080fd5b803590602001918460208302840111600160201b831117156200052357600080fd5b50909250905062000a3e565b604080519115158252519081900360200190f35b620003e9600480360360208110156200055b57600080fd5b50356001600160a01b031662000d9e565b6001600160a01b038981166000908152602081905260409020541633146200059357600080fd5b6000896001600160a01b0316638da5cb5b6040518163ffffffff1660e01b815260040160206040518083038186803b158015620005cf57600080fd5b505afa158015620005e4573d6000803e3d6000fd5b505050506040513d6020811015620005fb57600080fd5b5051905060005b888110156200072557816001600160a01b031663e869d45f8b8b848181106200062757fe5b905060200201356001600160a01b03168a8a858181106200064457fe5b905060200201358989868181106200065857fe5b905060200201356001600160e01b0319168f6040518563ffffffff1660e01b815260040180856001600160a01b03166001600160a01b03168152602001848152602001836001600160e01b0319166001600160e01b0319168152602001826001600160a01b03166001600160a01b03168152602001945050505050602060405180830381600087803b158015620006ee57600080fd5b505af115801562000703573d6000803e3d6000fd5b505050506040513d60208110156200071a57600080fd5b505060010162000602565b506040805163c9b62eb160e01b81526001600160a01b038c81166024830152600482019283526044820185905283169163c9b62eb191869186918f91908190606401858580828437600081840152601f19601f820116905080830192505050945050505050602060405180830381600087803b158015620007a557600080fd5b505af1158015620007ba573d6000803e3d6000fd5b505050506040513d6020811015620007d157600080fd5b50506040805163039de01d60e01b81523060048201526001600160a01b038c8116602483015291519183169163039de01d916044808201926020929091908290030181600087803b1580156200082657600080fd5b505af11580156200083b573d6000803e3d6000fd5b505050506040513d60208110156200085257600080fd5b50506001600160a01b038a166000818152602081815260409182902080546001600160a01b0319169055815192835290517f9007c9042f12be953f7dbe3909f56c3f088e9fe294dbebbef4a67afa63462b6a9281900390910190a150505050505050505050565b600062000a2c8e8e8080601f016020809104026020016040519081016040528093929190818152602001838380828437600081840152601f19601f820116905080830192505050505050508d8d8080601f016020809104026020016040519081016040528093929190818152602001838380828437600081840152601f19601f820116905080830192505050505050508c8c8080601f016020809104026020016040519081016040528093929190818152602001838380828437600081840152601f19601f820116905080830192505050505050508b8b8080602002602001604051908101604052809392919081815260200183836020028082843760009201919091525050604080516020808f0282810182019093528e82529093508e92508d91829185019084908082843760009201919091525050604080516020808e0282810182019093528d82529093508d92508c9182918501908490808284376000920191909152508b925062000db9915050565b9e9d5050505050505050505050505050565b600085841462000a4d57600080fd5b85821462000a5a57600080fd5b8562000a6557600080fd5b6001600160a01b0388811660009081526020819052604090205416331462000a8c57600080fd5b60005b8681101562000d8f57600088888381811062000aa757fe5b905060200201356001600160a01b03166001600160a01b0316141562000acc57600080fd5b600086868381811062000adb57fe5b90506020020135111562000c2957886001600160a01b0316638da5cb5b6040518163ffffffff1660e01b815260040160206040518083038186803b15801562000b2357600080fd5b505afa15801562000b38573d6000803e3d6000fd5b505050506040513d602081101562000b4f57600080fd5b50516001600160a01b0316636407e43287878481811062000b6c57fe5b905060200201358a8a8581811062000b8057fe5b905060200201356001600160a01b03168c6040518463ffffffff1660e01b815260040180848152602001836001600160a01b03166001600160a01b03168152602001826001600160a01b03166001600160a01b031681526020019350505050602060405180830381600087803b15801562000bfa57600080fd5b505af115801562000c0f573d6000803e3d6000fd5b505050506040513d602081101562000c2657600080fd5b50505b600084848381811062000c3857fe5b90506020020135111562000d8657886001600160a01b0316638da5cb5b6040518163ffffffff1660e01b815260040160206040518083038186803b15801562000c8057600080fd5b505afa15801562000c95573d6000803e3d6000fd5b505050506040513d602081101562000cac57600080fd5b50516001600160a01b031663eaf994b285858481811062000cc957fe5b905060200201358a8a8581811062000cdd57fe5b905060200201356001600160a01b03168c6040518463ffffffff1660e01b815260040180848152602001836001600160a01b03166001600160a01b03168152602001826001600160a01b03166001600160a01b031681526020019350505050602060405180830381600087803b15801562000d5757600080fd5b505af115801562000d6c573d6000803e3d6000fd5b505050506040513d602081101562000d8357600080fd5b50505b60010162000a8f565b50600198975050505050505050565b6000602081905290815260409020546001600160a01b031681565b6000835185511462000dca57600080fd5b825185511462000dd957600080fd5b600085511162000de857600080fd5b600087878460405162000dfb906200149b565b60408101829052606080825284519082015283518190602080830191608084019188019080838360005b8381101562000e3f57818101518382015260200162000e25565b50505050905090810190601f16801562000e6d5780820380516001836020036101000a031916815260200191505b50838103825285518152855160209182019187019080838360005b8381101562000ea257818101518382015260200162000e88565b50505050905090810190601f16801562000ed05780820380516001836020036101000a031916815260200191505b5095505050505050604051809103906000f08015801562000ef5573d6000803e3d6000fd5b509050600060405162000f0890620014a9565b604051809103906000f08015801562000f25573d6000803e3d6000fd5b50905060008a838360405162000f3b90620014b7565b6001600160a01b03808416602080840191909152908316604083015260608083528551908301528451829160808301919087019080838360005b8381101562000f8f57818101518382015260200162000f75565b50505050905090810190601f16801562000fbd5780820380516001836020036101000a031916815260200191505b50945050505050604051809103906000f08015801562000fe1573d6000803e3d6000fd5b50905060005b8851811015620011db5760006001600160a01b03168982815181106200100957fe5b60200260200101516001600160a01b031614156200102657600080fd5b60008882815181106200103557fe5b60200260200101511115620010fc57836001600160a01b03166340c10f198a83815181106200106057fe5b60200260200101518a84815181106200107557fe5b60200260200101516040518363ffffffff1660e01b815260040180836001600160a01b03166001600160a01b0316815260200182815260200192505050602060405180830381600087803b158015620010cd57600080fd5b505af1158015620010e2573d6000803e3d6000fd5b505050506040513d6020811015620010f957600080fd5b50505b60008782815181106200110b57fe5b60200260200101511115620011d257826001600160a01b03166340c10f198a83815181106200113657fe5b60200260200101518984815181106200114b57fe5b60200260200101516040518363ffffffff1660e01b815260040180836001600160a01b03166001600160a01b0316815260200182815260200192505050602060405180830381600087803b158015620011a357600080fd5b505af1158015620011b8573d6000803e3d6000fd5b505050506040513d6020811015620011cf57600080fd5b50505b60010162000fe7565b50600154604080516313db266360e31b81526001600160a01b03848116600483015291516000939290921691639ed933189160248082019260209290919082900301818787803b1580156200122f57600080fd5b505af115801562001244573d6000803e3d6000fd5b505050506040513d60208110156200125b57600080fd5b50516002546040805163a807dd3360e01b81526001600160a01b03868116600483015280851660248301526060604483015260006064830181905292519495509092169263a807dd339260a480820193929182900301818387803b158015620012c357600080fd5b505af1158015620012d8573d6000803e3d6000fd5b50505050816001600160a01b031663f2fde38b826040518263ffffffff1660e01b815260040180826001600160a01b03166001600160a01b03168152602001915050600060405180830381600087803b1580156200133557600080fd5b505af11580156200134a573d6000803e3d6000fd5b50505050836001600160a01b031663f2fde38b826040518263ffffffff1660e01b815260040180826001600160a01b03166001600160a01b03168152602001915050600060405180830381600087803b158015620013a757600080fd5b505af1158015620013bc573d6000803e3d6000fd5b50505050826001600160a01b031663f2fde38b826040518263ffffffff1660e01b815260040180826001600160a01b03166001600160a01b03168152602001915050600060405180830381600087803b1580156200141957600080fd5b505af11580156200142e573d6000803e3d6000fd5b5050506001600160a01b0383166000818152602081815260409182902080546001600160a01b03191633179055815192835290517f244496352f5e67e59ce96b4a53ef9ea7cb88b7db33eb13dc5e771bd04385a60e9350918290030190a1509a9950505050505050505050565b61137380620014c683390190565b610a2a806200283983390190565b6114a580620032638339019056fe60806040523480156200001157600080fd5b506040516200137338038062001373833981810160405260608110156200003757600080fd5b81019080805160405193929190846401000000008211156200005857600080fd5b9083019060208201858111156200006e57600080fd5b82516401000000008111828201881017156200008957600080fd5b82525081516020918201929091019080838360005b83811015620000b85781810151838201526020016200009e565b50505050905090810190601f168015620000e65780820380516001836020036101000a031916815260200191505b50604052602001805160405193929190846401000000008211156200010a57600080fd5b9083019060208201858111156200012057600080fd5b82516401000000008111828201881017156200013b57600080fd5b82525081516020918201929091019080838360005b838110156200016a57818101518382015260200162000150565b50505050905090810190601f168015620001985780820380516001836020036101000a031916815260200191505b50604052602001519150620001b790506001600160e01b036200023b16565b600380546001600160a01b0319166001600160a01b0392831617908190556040519116906000907f8be0079c531659141344cd1fd0a4f28419497f9722a3daafe3b4186f6b6457e0908290a382516200021890600490602086019062000240565b5081516200022e90600590602085019062000240565b5060065550620002e29050565b335b90565b828054600181600116156101000203166002900490600052602060002090601f016020900481019282601f106200028357805160ff1916838001178555620002b3565b82800160010185558215620002b3579182015b82811115620002b357825182559160200191906001019062000296565b50620002c1929150620002c5565b5090565b6200023d91905b80821115620002c15760008155600101620002cc565b61108180620002f26000396000f3fe608060405234801561001057600080fd5b50600436106100f15760003560e01c806306fdde03146100f6578063095ea7b31461017357806318160ddd146101b357806323b872dd146101cd578063313ce56714610203578063355274ea14610221578063395093511461022957806340c10f191461025557806342966c681461028157806370a08231146102a0578063715018a6146102c657806379cc6790146102ce5780638da5cb5b146102fa5780638f32d59b1461031e57806395d89b4114610326578063a457c2d71461032e578063a9059cbb1461035a578063dd62ed3e14610386578063f2fde38b146103b4575b600080fd5b6100fe6103da565b6040805160208082528351818301528351919283929083019185019080838360005b83811015610138578181015183820152602001610120565b50505050905090810190601f1680156101655780820380516001836020036101000a031916815260200191505b509250505060405180910390f35b61019f6004803603604081101561018957600080fd5b506001600160a01b038135169060200135610468565b604080519115158252519081900360200190f35b6101bb610485565b60408051918252519081900360200190f35b61019f600480360360608110156101e357600080fd5b506001600160a01b0381358116916020810135909116906040013561048b565b61020b610518565b6040805160ff9092168252519081900360200190f35b6101bb61051d565b61019f6004803603604081101561023f57600080fd5b506001600160a01b038135169060200135610523565b61019f6004803603604081101561026b57600080fd5b506001600160a01b038135169060200135610577565b61029e6004803603602081101561029757600080fd5b50356105f8565b005b6101bb600480360360208110156102b657600080fd5b50356001600160a01b031661060c565b61029e610627565b61029e600480360360408110156102e457600080fd5b506001600160a01b0381351690602001356106a6565b6103026106b4565b604080516001600160a01b039092168252519081900360200190f35b61019f6106c3565b6100fe6106e9565b61019f6004803603604081101561034457600080fd5b506001600160a01b038135169060200135610744565b61019f6004803603604081101561037057600080fd5b506001600160a01b0381351690602001356107b2565b6101bb6004803603604081101561039c57600080fd5b506001600160a01b03813581169160200135166107c6565b61029e600480360360208110156103ca57600080fd5b50356001600160a01b03166107f1565b6004805460408051602060026001851615610100026000190190941693909304601f810184900484028201840190925281815292918301828280156104605780601f1061043557610100808354040283529160200191610460565b820191906000526020600020905b81548152906001019060200180831161044357829003601f168201915b505050505081565b600061047c610475610841565b8484610845565b50600192915050565b60025490565b6000610498848484610931565b61050e846104a4610841565b61050985604051806060016040528060288152602001610f12602891396001600160a01b038a166000908152600160205260408120906104e2610841565b6001600160a01b03168152602081019190915260400160002054919063ffffffff610a7b16565b610845565b5060019392505050565b601281565b60065481565b600061047c610530610841565b846105098560016000610541610841565b6001600160a01b03908116825260208083019390935260409182016000908120918c16815292529020549063ffffffff610b1216565b60006105816106c3565b6105c0576040805162461bcd60e51b81526020600482018190526024820152600080516020610f3a833981519152604482015290519081900360640190fd5b600654156105ee576006546105e3836105d7610485565b9063ffffffff610b1216565b11156105ee57600080fd5b61047c8383610b71565b610609610603610841565b82610c4f565b50565b6001600160a01b031660009081526020819052604090205490565b61062f6106c3565b61066e576040805162461bcd60e51b81526020600482018190526024820152600080516020610f3a833981519152604482015290519081900360640190fd5b6003546040516000916001600160a01b031690600080516020610f5a833981519152908390a3600380546001600160a01b0319169055565b6106b08282610d39565b5050565b6003546001600160a01b031690565b6003546000906001600160a01b03166106da610841565b6001600160a01b031614905090565b6005805460408051602060026001851615610100026000190190941693909304601f810184900484028201840190925281815292918301828280156104605780601f1061043557610100808354040283529160200191610460565b600061047c610751610841565b8461050985604051806060016040528060258152602001611028602591396001600061077b610841565b6001600160a01b03908116825260208083019390935260409182016000908120918d1681529252902054919063ffffffff610a7b16565b600061047c6107bf610841565b8484610931565b6001600160a01b03918216600090815260016020908152604080832093909416825291909152205490565b6107f96106c3565b610838576040805162461bcd60e51b81526020600482018190526024820152600080516020610f3a833981519152604482015290519081900360640190fd5b61060981610d8d565b3390565b6001600160a01b03831661088a5760405162461bcd60e51b81526004018080602001828103825260248152602001806110046024913960400191505060405180910390fd5b6001600160a01b0382166108cf5760405162461bcd60e51b8152600401808060200182810382526022815260200180610eca6022913960400191505060405180910390fd5b6001600160a01b03808416600081815260016020908152604080832094871680845294825291829020859055815185815291517f8c5be1e5ebec7d5bd14f71427d1e84f3dd0314c0f7b2291e5b200ac8c7c3b9259281900390910190a3505050565b6001600160a01b0383166109765760405162461bcd60e51b8152600401808060200182810382526025815260200180610fdf6025913960400191505060405180910390fd5b6001600160a01b0382166109bb5760405162461bcd60e51b8152600401808060200182810382526023815260200180610e5f6023913960400191505060405180910390fd5b6109fe81604051806060016040528060268152602001610eec602691396001600160a01b038616600090815260208190526040902054919063ffffffff610a7b16565b6001600160a01b038085166000908152602081905260408082209390935590841681522054610a33908263ffffffff610b1216565b6001600160a01b03808416600081815260208181526040918290209490945580518581529051919392871692600080516020610f9e83398151915292918290030190a3505050565b60008184841115610b0a5760405162461bcd60e51b81526004018080602001828103825283818151815260200191508051906020019080838360005b83811015610acf578181015183820152602001610ab7565b50505050905090810190601f168015610afc5780820380516001836020036101000a031916815260200191505b509250505060405180910390fd5b505050900390565b600082820183811015610b6a576040805162461bcd60e51b815260206004820152601b60248201527a536166654d6174683a206164646974696f6e206f766572666c6f7760281b604482015290519081900360640190fd5b9392505050565b6001600160a01b038216610bcc576040805162461bcd60e51b815260206004820152601f60248201527f45524332303a206d696e7420746f20746865207a65726f206164647265737300604482015290519081900360640190fd5b600254610bdf908263ffffffff610b1216565b6002556001600160a01b038216600090815260208190526040902054610c0b908263ffffffff610b1216565b6001600160a01b038316600081815260208181526040808320949094558351858152935192939192600080516020610f9e8339815191529281900390910190a35050565b6001600160a01b038216610c945760405162461bcd60e51b8152600401808060200182810382526021815260200180610fbe6021913960400191505060405180910390fd5b610cd781604051806060016040528060228152602001610e82602291396001600160a01b038516600090815260208190526040902054919063ffffffff610a7b16565b6001600160a01b038316600090815260208190526040902055600254610d03908263ffffffff610e1c16565b6002556040805182815290516000916001600160a01b03851691600080516020610f9e8339815191529181900360200190a35050565b610d438282610c4f565b6106b082610d4f610841565b61050984604051806060016040528060248152602001610f7a602491396001600160a01b0388166000908152600160205260408120906104e2610841565b6001600160a01b038116610dd25760405162461bcd60e51b8152600401808060200182810382526026815260200180610ea46026913960400191505060405180910390fd5b6003546040516001600160a01b03808416921690600080516020610f5a83398151915290600090a3600380546001600160a01b0319166001600160a01b0392909216919091179055565b6000610b6a83836040518060400160405280601e81526020017f536166654d6174683a207375627472616374696f6e206f766572666c6f770000815250610a7b56fe45524332303a207472616e7366657220746f20746865207a65726f206164647265737345524332303a206275726e20616d6f756e7420657863656564732062616c616e63654f776e61626c653a206e6577206f776e657220697320746865207a65726f206164647265737345524332303a20617070726f766520746f20746865207a65726f206164647265737345524332303a207472616e7366657220616d6f756e7420657863656564732062616c616e636545524332303a207472616e7366657220616d6f756e74206578636565647320616c6c6f77616e63654f776e61626c653a2063616c6c6572206973206e6f7420746865206f776e65728be0079c531659141344cd1fd0a4f28419497f9722a3daafe3b4186f6b6457e045524332303a206275726e20616d6f756e74206578636565647320616c6c6f77616e6365ddf252ad1be2c89b69c2b068fc378daa952ba7f163c4a11628f55a4df523b3ef45524332303a206275726e2066726f6d20746865207a65726f206164647265737345524332303a207472616e736665722066726f6d20746865207a65726f206164647265737345524332303a20617070726f76652066726f6d20746865207a65726f206164647265737345524332303a2064656372656173656420616c6c6f77616e63652062656c6f77207a65726fa265627a7a723158204330ffa7e2f4fcb934e8897e2c41a9bed9eac049d417979bf1d01a47142e697764736f6c634300050d003260806040526000805460ff60a01b19167412000000000000000000000000000000000000000017905561003061007d565b600080546001600160a01b0319166001600160a01b03928316178082556040519216917f8be0079c531659141344cd1fd0a4f28419497f9722a3daafe3b4186f6b6457e0908290a3610081565b3390565b61099a806100906000396000f3fe608060405234801561001057600080fd5b50600436106100995760003560e01c806318160ddd1461009e578063313ce567146100b857806340c10f19146100d65780634ee2cd7e1461011657806370a0823114610142578063715018a6146101685780638da5cb5b146101725780638f32d59b14610196578063981b24d01461019e5780639dc29fac146101bb578063f2fde38b146101e7575b600080fd5b6100a661020d565b60408051918252519081900360200190f35b6100c061021e565b6040805160ff9092168252519081900360200190f35b610102600480360360408110156100ec57600080fd5b506001600160a01b03813516906020013561022e565b604080519115158252519081900360200190f35b6100a66004803603604081101561012c57600080fd5b506001600160a01b03813516906020013561032b565b6100a66004803603602081101561015857600080fd5b50356001600160a01b03166103bb565b6101706103cf565b005b61017a61044e565b604080516001600160a01b039092168252519081900360200190f35b61010261045d565b6100a6600480360360208110156101b457600080fd5b5035610481565b610102600480360360408110156101d157600080fd5b506001600160a01b0381351690602001356104d3565b610170600480360360208110156101fd57600080fd5b50356001600160a01b03166105be565b600061021843610481565b90505b90565b600054600160a01b900460ff1681565b600061023861045d565b610277576040805162461bcd60e51b81526020600482018190526024820152600080516020610926833981519152604482015290519081900360640190fd5b600061028161020d565b905080838201101561029257600080fd5b600061029d856103bb565b90508084820110156102ae57600080fd5b6102bb6002858401610611565b6001600160a01b03851660009081526001602052604090206102df90828601610611565b6040805185815290516001600160a01b038716917f0f6798a560793a54c3bcfe86a93cde1e73087d944c0ea20544137d4121396885919081900360200190a26001925050505b92915050565b6001600160a01b038216600090815260016020526040812054158061038557506001600160a01b0383166000908152600160205260408120805484929061036e57fe5b6000918252602090912001546001600160801b0316115b1561039257506000610325565b6001600160a01b03831660009081526001602052604090206103b490836106f6565b9050610325565b60006103c7824361032b565b90505b919050565b6103d761045d565b610416576040805162461bcd60e51b81526020600482018190526024820152600080516020610926833981519152604482015290519081900360640190fd5b600080546040516001600160a01b0390911690600080516020610946833981519152908390a3600080546001600160a01b0319169055565b6000546001600160a01b031690565b600080546001600160a01b0316610472610826565b6001600160a01b031614905090565b60025460009015806104b4575081600260008154811061049d57fe5b6000918252602090912001546001600160801b0316115b156104c1575060006103ca565b6104cc6002836106f6565b90506103ca565b60006104dd61045d565b61051c576040805162461bcd60e51b81526020600482018190526024820152600080516020610926833981519152604482015290519081900360640190fd5b600061052661020d565b9050826000610534866103bb565b905081811015610542578091505b61054f6002838503610611565b6001600160a01b038616600090815260016020526040902061057390838303610611565b6040805183815290516001600160a01b038816917fcc16f5dbb4873280815c1ee09dbd06736cffcc184412cf7a71a0fdb75d397ca5919081900360200190a250600195945050505050565b6105c661045d565b610605576040805162461bcd60e51b81526020600482018190526024820152600080516020610926833981519152604482015290519081900360640190fd5b61060e8161082a565b50565b80816001600160801b03161461062657600080fd5b8154158061065a5750815443908390600019810190811061064357fe5b6000918252602090912001546001600160801b0316105b156106b8578154600090839061067382600183016108b8565b8154811061067d57fe5b600091825260209091200180546001600160801b03848116600160801b024382166001600160801b03199093169290921716179055506106f2565b8154600090839060001981019081106106cd57fe5b600091825260209091200180546001600160801b03808516600160801b029116179055505b5050565b815460009061070757506000610325565b82548390600019810190811061071957fe5b6000918252602090912001546001600160801b031682106107695782548390600019810190811061074657fe5b600091825260209091200154600160801b90046001600160801b03169050610325565b8260008154811061077657fe5b6000918252602090912001546001600160801b031682101561079a57506000610325565b8254600090600019015b818111156107f55760006002600183850101049050848682815481106107c657fe5b6000918252602090912001546001600160801b0316116107e8578092506107ef565b6001810391505b506107a4565b84828154811061080157fe5b600091825260209091200154600160801b90046001600160801b031695945050505050565b3390565b6001600160a01b03811661086f5760405162461bcd60e51b81526004018080602001828103825260268152602001806109006026913960400191505060405180910390fd5b600080546040516001600160a01b038085169392169160008051602061094683398151915291a3600080546001600160a01b0319166001600160a01b0392909216919091179055565b8154818355818111156108dc576000838152602090206108dc9181019083016108e1565b505050565b61021b91905b808211156108fb57600081556001016108e7565b509056fe4f776e61626c653a206e6577206f776e657220697320746865207a65726f20616464726573734f776e61626c653a2063616c6c6572206973206e6f7420746865206f776e65728be0079c531659141344cd1fd0a4f28419497f9722a3daafe3b4186f6b6457e0a265627a7a723158200d4bed22626090fd2226038a446a506dd04fe0bf23520a5c7a8ea1956d4093b864736f6c634300050d003260806040523480156200001157600080fd5b50604051620014a5380380620014a5833981810160405260608110156200003757600080fd5b81019080805160405193929190846401000000008211156200005857600080fd5b9083019060208201858111156200006e57600080fd5b82516401000000008111828201881017156200008957600080fd5b82525081516020918201929091019080838360005b83811015620000b85781810151838201526020016200009e565b50505050905090810190601f168015620000e65780820380516001836020036101000a031916815260200191505b506040908152602082015191015190925090506200010c6001600160e01b036200019d16565b600080546001600160a01b0319166001600160a01b03928316178082556040519216917f8be0079c531659141344cd1fd0a4f28419497f9722a3daafe3b4186f6b6457e0908290a3825162000169906001906020860190620001a2565b50600280546001600160a01b039384166001600160a01b031991821617909155600380549290931691161790555062000244565b335b90565b828054600181600116156101000203166002900490600052602060002090601f016020900481019282601f10620001e557805160ff191683800117855562000215565b8280016001018555821562000215579182015b8281111562000215578251825591602001919060010190620001f8565b506200022392915062000227565b5090565b6200019f91905b808211156200022357600081556001016200022e565b61125180620002546000396000f3fe6080604052600436106100a25760003560e01c80631386dc2d146100da5780632bf1645814610164578063715018a6146102aa578063890ac46c146102c157806389ae1c90146103865780638da5cb5b146103b75780638f32d59b146103cc578063ab751f71146103e1578063b756d5a214610424578063cb16d4a21461046d578063dab0efff146104a6578063e1758bd8146104e9578063f2fde38b146104fe575b60408051348152905133917ff32a9f77675fd5917534c7746608fd3e309eac68fbdcbf5925e24ca97a704396919081900360200190a2005b3480156100e657600080fd5b506100ef610531565b6040805160208082528351818301528351919283929083019185019080838360005b83811015610129578181015183820152602001610111565b50505050905090810190601f1680156101565780820380516001836020036101000a031916815260200191505b509250505060405180910390f35b34801561017057600080fd5b506102276004803603606081101561018757600080fd5b6001600160a01b038235169190810190604081016020820135600160201b8111156101b157600080fd5b8201836020820111156101c357600080fd5b803590602001918460018302840111600160201b831117156101e457600080fd5b91908080601f01602080910402602001604051908101604052809392919081815260200183838082843760009201919091525092955050913592506105be915050565b604051808315151515815260200180602001828103825283818151815260200191508051906020019080838360005b8381101561026e578181015183820152602001610256565b50505050905090810190601f16801561029b5780820380516001836020036101000a031916815260200191505b50935050505060405180910390f35b3480156102b657600080fd5b506102bf610773565b005b3480156102cd57600080fd5b50610372600480360360208110156102e457600080fd5b810190602081018135600160201b8111156102fe57600080fd5b82018360208201111561031057600080fd5b803590602001918460018302840111600160201b8311171561033157600080fd5b91908080601f0160208091040260200160405190810160405280939291908181526020018383808284376000920191909152509295506107f2945050505050565b604080519115158252519081900360200190f35b34801561039257600080fd5b5061039b6108dc565b604080516001600160a01b039092168252519081900360200190f35b3480156103c357600080fd5b5061039b6108eb565b3480156103d857600080fd5b506103726108fa565b3480156103ed57600080fd5b506103726004803603606081101561040457600080fd5b506001600160a01b0381358116916020810135909116906040013561091e565b34801561043057600080fd5b506103726004803603608081101561044757600080fd5b506001600160a01b038135811691602081013582169160408201351690606001356109d1565b34801561047957600080fd5b506103726004803603604081101561049057600080fd5b50803590602001356001600160a01b0316610a8f565b3480156104b257600080fd5b50610372600480360360608110156104c957600080fd5b506001600160a01b03813581169160208101359091169060400135610b57565b3480156104f557600080fd5b5061039b610c0f565b34801561050a57600080fd5b506102bf6004803603602081101561052157600080fd5b50356001600160a01b0316610c1e565b60018054604080516020600284861615610100026000190190941693909304601f810184900484028201840190925281815292918301828280156105b65780601f1061058b576101008083540402835291602001916105b6565b820191906000526020600020905b81548152906001019060200180831161059957829003601f168201915b505050505081565b600060606105ca6108fa565b610609576040805162461bcd60e51b815260206004820181905260248201526000805160206111dd833981519152604482015290519081900360640190fd5b846001600160a01b031683856040518082805190602001908083835b602083106106445780518252601f199092019160209182019101610625565b6001836020036101000a03801982511681845116808217855250505050505090500191505060006040518083038185875af1925050503d80600081146106a6576040519150601f19603f3d011682016040523d82523d6000602084013e6106ab565b606091505b508092508193505050846001600160a01b03167f534b52c783549f909f9e743120524d0b7154058e4a54cdc895c2c0b587a1c7e0858585604051808060200184815260200183151515158152602001828103825285818151815260200191508051906020019080838360005b8381101561072f578181015183820152602001610717565b50505050905090810190601f16801561075c5780820380516001836020036101000a031916815260200191505b5094505050505060405180910390a2935093915050565b61077b6108fa565b6107ba576040805162461bcd60e51b815260206004820181905260248201526000805160206111dd833981519152604482015290519081900360640190fd5b600080546040516001600160a01b03909116906000805160206111fd833981519152908390a3600080546001600160a01b0319169055565b60006107fc6108fa565b61083b576040805162461bcd60e51b815260206004820181905260248201526000805160206111dd833981519152604482015290519081900360640190fd5b7ff9deba4938ba20070ec5a45ddf59bccba49cf83124215228ec1232182ef0ba2b826040518080602001828103825283818151815260200191508051906020019080838360005b8381101561089a578181015183820152602001610882565b50505050905090810190601f1680156108c75780820380516001836020036101000a031916815260200191505b509250505060405180910390a1506001919050565b6003546001600160a01b031681565b6000546001600160a01b031690565b600080546001600160a01b031661090f610c71565b6001600160a01b031614905090565b60006109286108fa565b610967576040805162461bcd60e51b815260206004820181905260248201526000805160206111dd833981519152604482015290519081900360640190fd5b6109816001600160a01b038516848463ffffffff610c7516565b604080516001600160a01b038581168252602082018590528251908716927f3a48a4d6253b30fd10e57a347c1f9bcb0604946481fae0b2fdad6e74f2a9cbb3928290030190a25060019392505050565b60006109db6108fa565b610a1a576040805162461bcd60e51b815260206004820181905260248201526000805160206111dd833981519152604482015290519081900360640190fd5b610a356001600160a01b03861685858563ffffffff610e8116565b604080516001600160a01b03868116825285811660208301528183018590529151918716917f179c15de44aa7ab84896301974328eb40b5b40fe01cfe0fee2924ea712c3e8439181900360600190a2506001949350505050565b6000610a996108fa565b610ad8576040805162461bcd60e51b815260206004820181905260248201526000805160206111dd833981519152604482015290519081900360640190fd5b6040516001600160a01b0383169084156108fc029085906000818181858888f19350505050158015610b0e573d6000803e3d6000fd5b506040805184815290516001600160a01b038416917f22fca66666089f39bc900dd6605b489df4aae6260cc8ea8257594cfb8c84926c919081900360200190a250600192915050565b6000610b616108fa565b610ba0576040805162461bcd60e51b815260206004820181905260248201526000805160206111dd833981519152604482015290519081900360640190fd5b610bba6001600160a01b038516848463ffffffff61100416565b826001600160a01b0316846001600160a01b03167f49dc2a60d2599a7b6932d78fb694c30dfc596fe4e0282b5d0fd184b52472c04d846040518082815260200191505060405180910390a35060019392505050565b6002546001600160a01b031681565b610c266108fa565b610c65576040805162461bcd60e51b815260206004820181905260248201526000805160206111dd833981519152604482015290519081900360640190fd5b610c6e816110c7565b50565b3390565b610c87836001600160a01b0316611155565b610c9057600080fd5b801580610d16575060408051636eb1769f60e11b81523060048201526001600160a01b03848116602483015291519185169163dd62ed3e91604480820192602092909190829003018186803b158015610ce857600080fd5b505afa158015610cfc573d6000803e3d6000fd5b505050506040513d6020811015610d1257600080fd5b5051155b610d1f57600080fd5b6040805180820182526018815277617070726f766528616464726573732c75696e743235362960401b60209182015281516001600160a01b0385811660248301526044808301869052845180840390910181526064909201845291810180516001600160e01b031663095ea7b360e01b1781529251815160009460609489169392918291908083835b60208310610dc75780518252601f199092019160209182019101610da8565b6001836020036101000a0380198251168184511680821785525050505050509050019150506000604051808303816000865af19150503d8060008114610e29576040519150601f19603f3d011682016040523d82523d6000602084013e610e2e565b606091505b509150915081610e3d57600080fd5b80511580610e71575080516020148015610e71575080601f81518110610e5f57fe5b01602001516001600160f81b03191615155b610e7a57600080fd5b5050505050565b610e93846001600160a01b0316611155565b610e9c57600080fd5b60006060856001600160a01b0316604051806060016040528060258152602001611192602591398051602091820120604080516001600160a01b03808b166024830152891660448201526064808201899052825180830390910181526084909101825292830180516001600160e01b03166001600160e01b0319909316929092178252518251909182918083835b60208310610f495780518252601f199092019160209182019101610f2a565b6001836020036101000a0380198251168184511680821785525050505050509050019150506000604051808303816000865af19150503d8060008114610fab576040519150601f19603f3d011682016040523d82523d6000602084013e610fb0565b606091505b509150915081610fbf57600080fd5b80511580610ff3575080516020148015610ff3575080601f81518110610fe157fe5b01602001516001600160f81b03191615155b610ffc57600080fd5b505050505050565b611016836001600160a01b0316611155565b61101f57600080fd5b60408051808201825260198152787472616e7366657228616464726573732c75696e743235362960381b60209182015281516001600160a01b0385811660248301526044808301869052845180840390910181526064909201845291810180516001600160e01b031663a9059cbb60e01b17815292518151600094606094891693929182919080838360208310610dc75780518252601f199092019160209182019101610da8565b6001600160a01b03811661110c5760405162461bcd60e51b81526004018080602001828103825260268152602001806111b76026913960400191505060405180910390fd5b600080546040516001600160a01b03808516939216916000805160206111fd83398151915291a3600080546001600160a01b0319166001600160a01b0392909216919091179055565b6000813f7fc5d2460186f7233c927e7db2dcc703c0e500b653ca82273b7bfad8045d85a47081158015906111895750808214155b94935050505056fe7472616e7366657246726f6d28616464726573732c616464726573732c75696e74323536294f776e61626c653a206e6577206f776e657220697320746865207a65726f20616464726573734f776e61626c653a2063616c6c6572206973206e6f7420746865206f776e65728be0079c531659141344cd1fd0a4f28419497f9722a3daafe3b4186f6b6457e0a265627a7a723158200ec4a1ebb1dfcb8df8e40fccf45d3dc60b8e9ce1d4620289b4838f2daa044d3864736f6c634300050d0032a265627a7a72315820ae91b6b33039fecc0bae385794f5dc4ec1766fb93602414463cc0b2ab47518ef64736f6c634300050d0032",
  "source": "pragma solidity 0.5.13;\n\nimport \"./UniversalScheme.sol\";\nimport \"../controller/Controller.sol\";\nimport \"../utils/DAOTracker.sol\";\n\n\n/**\n * @title ControllerCreator for creating a single controller.\n */\ncontract ControllerCreator {\n\n    function create(Avatar _avatar) public returns(address) {\n        Controller controller = new Controller(_avatar);\n        controller.registerScheme(msg.sender, bytes32(0), bytes4(0x0000001f), address(_avatar));\n        controller.unregisterScheme(address(this), address(_avatar));\n        return address(controller);\n    }\n}\n\n/**\n * @title Genesis Scheme that creates organizations\n */\ncontract DaoCreator {\n\n    mapping(address=>address) public locks;\n\n    event NewOrg (address _avatar);\n    event InitialSchemesSet (address _avatar);\n\n    ControllerCreator private controllerCreator;\n    DAOTracker private daoTracker;\n\n    constructor(ControllerCreator _controllerCreator, DAOTracker _daoTracker) public {\n        require(_controllerCreator != ControllerCreator(0));\n        require(_daoTracker != DAOTracker(0));\n        controllerCreator = _controllerCreator;\n        daoTracker = _daoTracker;\n    }\n\n    /**\n      * @dev addFounders add founders to the organization.\n      *      this function can be called only after forgeOrg and before setSchemes\n      * @param _avatar the organization avatar\n      * @param _founders An array with the addresses of the founders of the organization\n      * @param _foundersTokenAmount An array of amount of tokens that the founders\n      *  receive in the new organization\n      * @param _foundersReputationAmount An array of amount of reputation that the\n      *   founders receive in the new organization\n      * @return bool true or false\n      */\n    function addFounders (\n        Avatar _avatar,\n        address[] calldata _founders,\n        uint[] calldata _foundersTokenAmount,\n        uint[] calldata _foundersReputationAmount\n    )\n    external\n    returns(bool)\n    {\n        require(_founders.length == _foundersTokenAmount.length);\n        require(_founders.length == _foundersReputationAmount.length);\n        require(_founders.length > 0);\n        require(locks[address(_avatar)] == msg.sender);\n        // Mint token and reputation for founders:\n        for (uint256 i = 0; i < _founders.length; i++) {\n            require(_founders[i] != address(0));\n            if (_foundersTokenAmount[i] > 0) {\n                Controller(\n                _avatar.owner()).mintTokens(_foundersTokenAmount[i], _founders[i], address(_avatar));\n            }\n            if (_foundersReputationAmount[i] > 0) {\n                Controller(\n                _avatar.owner()).mintReputation(_foundersReputationAmount[i], _founders[i], address(_avatar));\n            }\n        }\n        return true;\n    }\n\n  /**\n    * @dev Create a new organization\n    * @param _orgName The name of the new organization\n    * @param _tokenName The name of the token associated with the organization\n    * @param _tokenSymbol The symbol of the token\n    * @param _founders An array with the addresses of the founders of the organization\n    * @param _foundersTokenAmount An array of amount of tokens that the founders\n    *  receive in the new organization\n    * @param _foundersReputationAmount An array of amount of reputation that the\n    *   founders receive in the new organization\n    * @param  _cap token cap - 0 for no cap.\n    * @return The address of the avatar of the controller\n    */\n    function forgeOrg (\n        string calldata _orgName,\n        string calldata _tokenName,\n        string calldata _tokenSymbol,\n        address[] calldata _founders,\n        uint[] calldata _foundersTokenAmount,\n        uint[] calldata _foundersReputationAmount,\n        uint256 _cap\n    )\n    external\n    returns(address)\n    {\n        //The call for the private function is needed to bypass a deep stack issues\n        return _forgeOrg(\n            _orgName,\n            _tokenName,\n            _tokenSymbol,\n            _founders,\n            _foundersTokenAmount,\n            _foundersReputationAmount,\n            _cap);\n    }\n\n     /**\n      * @dev Set initial schemes for the organization.\n      * @param _avatar organization avatar (returns from forgeOrg)\n      * @param _schemes the schemes to register for the organization\n      * @param _params the schemes's params\n      * @param _permissions the schemes permissions.\n      * @param _metaData dao meta data hash\n      */\n    function setSchemes (\n        Avatar _avatar,\n        address[] calldata _schemes,\n        bytes32[] calldata _params,\n        bytes4[] calldata _permissions,\n        string calldata _metaData\n    )\n        external\n    {\n        // this action can only be executed by the account that holds the lock\n        // for this controller\n        require(locks[address(_avatar)] == msg.sender);\n        // register initial schemes:\n        Controller controller = Controller(_avatar.owner());\n        for (uint256 i = 0; i < _schemes.length; i++) {\n            controller.registerScheme(_schemes[i], _params[i], _permissions[i], address(_avatar));\n        }\n        controller.metaData(_metaData, _avatar);\n        // Unregister self:\n        controller.unregisterScheme(address(this), address(_avatar));\n        // Remove lock:\n        delete locks[address(_avatar)];\n        emit InitialSchemesSet(address(_avatar));\n    }\n\n    /**\n     * @dev Create a new organization\n     * @param _orgName The name of the new organization\n     * @param _tokenName The name of the token associated with the organization\n     * @param _tokenSymbol The symbol of the token\n     * @param _founders An array with the addresses of the founders of the organization\n     * @param _foundersTokenAmount An array of amount of tokens that the founders\n     *  receive in the new organization\n     * @param _foundersReputationAmount An array of amount of reputation that the\n     *   founders receive in the new organization\n     * @param  _cap token cap - 0 for no cap.\n     * @return The address of the avatar of the controller\n     */\n    function _forgeOrg (\n        string memory _orgName,\n        string memory _tokenName,\n        string memory _tokenSymbol,\n        address[] memory _founders,\n        uint[] memory _foundersTokenAmount,\n        uint[] memory _foundersReputationAmount,\n        uint256 _cap\n    ) private returns(address)\n    {\n        // Create Token, Reputation and Avatar:\n        require(_founders.length == _foundersTokenAmount.length);\n        require(_founders.length == _foundersReputationAmount.length);\n        require(_founders.length > 0);\n        DAOToken nativeToken = new DAOToken(_tokenName, _tokenSymbol, _cap);\n        Reputation nativeReputation = new Reputation();\n        Avatar avatar = new Avatar(_orgName, nativeToken, nativeReputation);\n\n\n        // Mint token and reputation for founders:\n        for (uint256 i = 0; i < _founders.length; i++) {\n            require(_founders[i] != address(0));\n            if (_foundersTokenAmount[i] > 0) {\n                nativeToken.mint(_founders[i], _foundersTokenAmount[i]);\n            }\n            if (_foundersReputationAmount[i] > 0) {\n                nativeReputation.mint(_founders[i], _foundersReputationAmount[i]);\n            }\n        }\n\n        Controller controller = Controller(controllerCreator.create(avatar));\n\n        // Add the DAO to the tracking registry\n        daoTracker.track(avatar, controller, \"\");\n\n        // Transfer ownership:\n        avatar.transferOwnership(address(controller));\n        nativeToken.transferOwnership(address(controller));\n        nativeReputation.transferOwnership(address(controller));\n\n        locks[address(avatar)] = msg.sender;\n\n        emit NewOrg (address(avatar));\n        return (address(avatar));\n    }\n}\n",
  "sourcePath": "@daostack/arc/contracts/universalSchemes/DaoCreator.sol",
  "compiler": {
    "name": "solc",
    "version": "0.5.13+commit.5b0b510c.Emscripten.clang"
  },
  "schemaVersion": "3.2.2",
  "updatedAt": "2020-07-19T21:26:26.711Z",
  "devdoc": {
    "methods": {
      "addFounders(address,address[],uint256[],uint256[])": {
        "details": "addFounders add founders to the organization.     this function can be called only after forgeOrg and before setSchemes",
        "params": {
          "_avatar": "the organization avatar",
          "_founders": "An array with the addresses of the founders of the organization",
          "_foundersReputationAmount": "An array of amount of reputation that the  founders receive in the new organization",
          "_foundersTokenAmount": "An array of amount of tokens that the founders receive in the new organization"
        },
        "return": "bool true or false"
      },
      "forgeOrg(string,string,string,address[],uint256[],uint256[],uint256)": {
        "details": "Create a new organization",
        "params": {
          "_cap": "token cap - 0 for no cap.",
          "_founders": "An array with the addresses of the founders of the organization",
          "_foundersReputationAmount": "An array of amount of reputation that the  founders receive in the new organization",
          "_foundersTokenAmount": "An array of amount of tokens that the founders receive in the new organization",
          "_orgName": "The name of the new organization",
          "_tokenName": "The name of the token associated with the organization",
          "_tokenSymbol": "The symbol of the token"
        },
        "return": "The address of the avatar of the controller"
      },
      "setSchemes(address,address[],bytes32[],bytes4[],string)": {
        "details": "Set initial schemes for the organization.",
        "params": {
          "_avatar": "organization avatar (returns from forgeOrg)",
          "_metaData": "dao meta data hash",
          "_params": "the schemes's params",
          "_permissions": "the schemes permissions.",
          "_schemes": "the schemes to register for the organization"
        }
      }
    },
    "title": "Genesis Scheme that creates organizations"
  },
  "userdoc": {
    "methods": {}
  }
}