{
  "contractName": "Reputation",
  "abi": [
    {
      "anonymous": false,
      "inputs": [
        {
          "indexed": true,
          "internalType": "address",
          "name": "_from",
          "type": "address"
        },
        {
          "indexed": false,
          "internalType": "uint256",
          "name": "_amount",
          "type": "uint256"
        }
      ],
      "name": "Burn",
      "type": "event"
    },
    {
      "anonymous": false,
      "inputs": [
        {
          "indexed": true,
          "internalType": "address",
          "name": "_to",
          "type": "address"
        },
        {
          "indexed": false,
          "internalType": "uint256",
          "name": "_amount",
          "type": "uint256"
        }
      ],
      "name": "Mint",
      "type": "event"
    },
    {
      "anonymous": false,
      "inputs": [
        {
          "indexed": true,
          "internalType": "address",
          "name": "previousOwner",
          "type": "address"
        },
        {
          "indexed": true,
          "internalType": "address",
          "name": "newOwner",
          "type": "address"
        }
      ],
      "name": "OwnershipTransferred",
      "type": "event"
    },
    {
      "constant": true,
      "inputs": [],
      "name": "decimals",
      "outputs": [
        {
          "internalType": "uint8",
          "name": "",
          "type": "uint8"
        }
      ],
      "payable": false,
      "stateMutability": "view",
      "type": "function"
    },
    {
      "constant": true,
      "inputs": [],
      "name": "isOwner",
      "outputs": [
        {
          "internalType": "bool",
          "name": "",
          "type": "bool"
        }
      ],
      "payable": false,
      "stateMutability": "view",
      "type": "function"
    },
    {
      "constant": true,
      "inputs": [],
      "name": "owner",
      "outputs": [
        {
          "internalType": "address",
          "name": "",
          "type": "address"
        }
      ],
      "payable": false,
      "stateMutability": "view",
      "type": "function"
    },
    {
      "constant": false,
      "inputs": [],
      "name": "renounceOwnership",
      "outputs": [],
      "payable": false,
      "stateMutability": "nonpayable",
      "type": "function"
    },
    {
      "constant": false,
      "inputs": [
        {
          "internalType": "address",
          "name": "newOwner",
          "type": "address"
        }
      ],
      "name": "transferOwnership",
      "outputs": [],
      "payable": false,
      "stateMutability": "nonpayable",
      "type": "function"
    },
    {
      "constant": false,
      "inputs": [
        {
          "internalType": "address",
          "name": "_user",
          "type": "address"
        },
        {
          "internalType": "uint256",
          "name": "_amount",
          "type": "uint256"
        }
      ],
      "name": "mint",
      "outputs": [
        {
          "internalType": "bool",
          "name": "",
          "type": "bool"
        }
      ],
      "payable": false,
      "stateMutability": "nonpayable",
      "type": "function"
    },
    {
      "constant": false,
      "inputs": [
        {
          "internalType": "address",
          "name": "_user",
          "type": "address"
        },
        {
          "internalType": "uint256",
          "name": "_amount",
          "type": "uint256"
        }
      ],
      "name": "burn",
      "outputs": [
        {
          "internalType": "bool",
          "name": "",
          "type": "bool"
        }
      ],
      "payable": false,
      "stateMutability": "nonpayable",
      "type": "function"
    },
    {
      "constant": true,
      "inputs": [],
      "name": "totalSupply",
      "outputs": [
        {
          "internalType": "uint256",
          "name": "",
          "type": "uint256"
        }
      ],
      "payable": false,
      "stateMutability": "view",
      "type": "function"
    },
    {
      "constant": true,
      "inputs": [
        {
          "internalType": "address",
          "name": "_owner",
          "type": "address"
        }
      ],
      "name": "balanceOf",
      "outputs": [
        {
          "internalType": "uint256",
          "name": "balance",
          "type": "uint256"
        }
      ],
      "payable": false,
      "stateMutability": "view",
      "type": "function"
    },
    {
      "constant": true,
      "inputs": [
        {
          "internalType": "uint256",
          "name": "_blockNumber",
          "type": "uint256"
        }
      ],
      "name": "totalSupplyAt",
      "outputs": [
        {
          "internalType": "uint256",
          "name": "",
          "type": "uint256"
        }
      ],
      "payable": false,
      "stateMutability": "view",
      "type": "function"
    },
    {
      "constant": true,
      "inputs": [
        {
          "internalType": "address",
          "name": "_owner",
          "type": "address"
        },
        {
          "internalType": "uint256",
          "name": "_blockNumber",
          "type": "uint256"
        }
      ],
      "name": "balanceOfAt",
      "outputs": [
        {
          "internalType": "uint256",
          "name": "",
          "type": "uint256"
        }
      ],
      "payable": false,
      "stateMutability": "view",
      "type": "function"
    }
  ],
  "bytecode": "0x60806040526000805460ff60a01b19167412000000000000000000000000000000000000000017905561003061007d565b600080546001600160a01b0319166001600160a01b03928316178082556040519216917f8be0079c531659141344cd1fd0a4f28419497f9722a3daafe3b4186f6b6457e0908290a3610081565b3390565b61099a806100906000396000f3fe608060405234801561001057600080fd5b50600436106100995760003560e01c806318160ddd1461009e578063313ce567146100b857806340c10f19146100d65780634ee2cd7e1461011657806370a0823114610142578063715018a6146101685780638da5cb5b146101725780638f32d59b14610196578063981b24d01461019e5780639dc29fac146101bb578063f2fde38b146101e7575b600080fd5b6100a661020d565b60408051918252519081900360200190f35b6100c061021e565b6040805160ff9092168252519081900360200190f35b610102600480360360408110156100ec57600080fd5b506001600160a01b03813516906020013561022e565b604080519115158252519081900360200190f35b6100a66004803603604081101561012c57600080fd5b506001600160a01b03813516906020013561032b565b6100a66004803603602081101561015857600080fd5b50356001600160a01b03166103bb565b6101706103cf565b005b61017a61044e565b604080516001600160a01b039092168252519081900360200190f35b61010261045d565b6100a6600480360360208110156101b457600080fd5b5035610481565b610102600480360360408110156101d157600080fd5b506001600160a01b0381351690602001356104d3565b610170600480360360208110156101fd57600080fd5b50356001600160a01b03166105be565b600061021843610481565b90505b90565b600054600160a01b900460ff1681565b600061023861045d565b610277576040805162461bcd60e51b81526020600482018190526024820152600080516020610926833981519152604482015290519081900360640190fd5b600061028161020d565b905080838201101561029257600080fd5b600061029d856103bb565b90508084820110156102ae57600080fd5b6102bb6002858401610611565b6001600160a01b03851660009081526001602052604090206102df90828601610611565b6040805185815290516001600160a01b038716917f0f6798a560793a54c3bcfe86a93cde1e73087d944c0ea20544137d4121396885919081900360200190a26001925050505b92915050565b6001600160a01b038216600090815260016020526040812054158061038557506001600160a01b0383166000908152600160205260408120805484929061036e57fe5b6000918252602090912001546001600160801b0316115b1561039257506000610325565b6001600160a01b03831660009081526001602052604090206103b490836106f6565b9050610325565b60006103c7824361032b565b90505b919050565b6103d761045d565b610416576040805162461bcd60e51b81526020600482018190526024820152600080516020610926833981519152604482015290519081900360640190fd5b600080546040516001600160a01b0390911690600080516020610946833981519152908390a3600080546001600160a01b0319169055565b6000546001600160a01b031690565b600080546001600160a01b0316610472610826565b6001600160a01b031614905090565b60025460009015806104b4575081600260008154811061049d57fe5b6000918252602090912001546001600160801b0316115b156104c1575060006103ca565b6104cc6002836106f6565b90506103ca565b60006104dd61045d565b61051c576040805162461bcd60e51b81526020600482018190526024820152600080516020610926833981519152604482015290519081900360640190fd5b600061052661020d565b9050826000610534866103bb565b905081811015610542578091505b61054f6002838503610611565b6001600160a01b038616600090815260016020526040902061057390838303610611565b6040805183815290516001600160a01b038816917fcc16f5dbb4873280815c1ee09dbd06736cffcc184412cf7a71a0fdb75d397ca5919081900360200190a250600195945050505050565b6105c661045d565b610605576040805162461bcd60e51b81526020600482018190526024820152600080516020610926833981519152604482015290519081900360640190fd5b61060e8161082a565b50565b80816001600160801b03161461062657600080fd5b8154158061065a5750815443908390600019810190811061064357fe5b6000918252602090912001546001600160801b0316105b156106b8578154600090839061067382600183016108b8565b8154811061067d57fe5b600091825260209091200180546001600160801b03848116600160801b024382166001600160801b03199093169290921716179055506106f2565b8154600090839060001981019081106106cd57fe5b600091825260209091200180546001600160801b03808516600160801b029116179055505b5050565b815460009061070757506000610325565b82548390600019810190811061071957fe5b6000918252602090912001546001600160801b031682106107695782548390600019810190811061074657fe5b600091825260209091200154600160801b90046001600160801b03169050610325565b8260008154811061077657fe5b6000918252602090912001546001600160801b031682101561079a57506000610325565b8254600090600019015b818111156107f55760006002600183850101049050848682815481106107c657fe5b6000918252602090912001546001600160801b0316116107e8578092506107ef565b6001810391505b506107a4565b84828154811061080157fe5b600091825260209091200154600160801b90046001600160801b031695945050505050565b3390565b6001600160a01b03811661086f5760405162461bcd60e51b81526004018080602001828103825260268152602001806109006026913960400191505060405180910390fd5b600080546040516001600160a01b038085169392169160008051602061094683398151915291a3600080546001600160a01b0319166001600160a01b0392909216919091179055565b8154818355818111156108dc576000838152602090206108dc9181019083016108e1565b505050565b61021b91905b808211156108fb57600081556001016108e7565b509056fe4f776e61626c653a206e6577206f776e657220697320746865207a65726f20616464726573734f776e61626c653a2063616c6c6572206973206e6f7420746865206f776e65728be0079c531659141344cd1fd0a4f28419497f9722a3daafe3b4186f6b6457e0a265627a7a723158200d4bed22626090fd2226038a446a506dd04fe0bf23520a5c7a8ea1956d4093b864736f6c634300050d0032",
  "source": "pragma solidity 0.5.13;\n\nimport \"openzeppelin-solidity/contracts/ownership/Ownable.sol\";\n\n\n/**\n * @title Reputation system\n * @dev A DAO has Reputation System which allows peers to rate other peers in order to build trust .\n * A reputation is use to assign influence measure to a DAO'S peers.\n * Reputation is similar to regular tokens but with one crucial difference: It is non-transferable.\n * The Reputation contract maintain a map of address to reputation value.\n * It provides an onlyOwner functions to mint and burn reputation _to (or _from) a specific address.\n */\ncontract Reputation is Ownable {\n\n    uint8 public decimals = 18;             //Number of decimals of the smallest unit\n    // Event indicating minting of reputation to an address.\n    event Mint(address indexed _to, uint256 _amount);\n    // Event indicating burning of reputation for an address.\n    event Burn(address indexed _from, uint256 _amount);\n\n      /// @dev `Checkpoint` is the structure that attaches a block number to a\n      ///  given value, the block number attached is the one that last changed the\n      ///  value\n    struct Checkpoint {\n\n    // `fromBlock` is the block number that the value was generated from\n        uint128 fromBlock;\n\n          // `value` is the amount of reputation at a specific block number\n        uint128 value;\n    }\n\n      // `balances` is the map that tracks the balance of each address, in this\n      //  contract when the balance changes the block number that the change\n      //  occurred is also included in the map\n    mapping (address => Checkpoint[]) private balances;\n\n      // Tracks the history of the `totalSupply` of the reputation\n    Checkpoint[] private totalSupplyHistory;\n\n      /// @notice Generates `_amount` reputation that are assigned to `_owner`\n      /// @param _user The address that will be assigned the new reputation\n      /// @param _amount The quantity of reputation generated\n      /// @return True if the reputation are generated correctly\n    function mint(address _user, uint256 _amount) public onlyOwner returns (bool) {\n        uint256 curTotalSupply = totalSupply();\n        require(curTotalSupply + _amount >= curTotalSupply); // Check for overflow\n        uint256 previousBalanceTo = balanceOf(_user);\n        require(previousBalanceTo + _amount >= previousBalanceTo); // Check for overflow\n        updateValueAtNow(totalSupplyHistory, curTotalSupply + _amount);\n        updateValueAtNow(balances[_user], previousBalanceTo + _amount);\n        emit Mint(_user, _amount);\n        return true;\n    }\n\n      /// @notice Burns `_amount` reputation from `_owner`\n      /// @param _user The address that will lose the reputation\n      /// @param _amount The quantity of reputation to burn\n      /// @return True if the reputation are burned correctly\n    function burn(address _user, uint256 _amount) public onlyOwner returns (bool) {\n        uint256 curTotalSupply = totalSupply();\n        uint256 amountBurned = _amount;\n        uint256 previousBalanceFrom = balanceOf(_user);\n        if (previousBalanceFrom < amountBurned) {\n            amountBurned = previousBalanceFrom;\n        }\n        updateValueAtNow(totalSupplyHistory, curTotalSupply - amountBurned);\n        updateValueAtNow(balances[_user], previousBalanceFrom - amountBurned);\n        emit Burn(_user, amountBurned);\n        return true;\n    }\n\n    /// @dev This function makes it easy to get the total number of reputation\n    /// @return The total number of reputation\n    function totalSupply() public view returns (uint256) {\n        return totalSupplyAt(block.number);\n    }\n\n    ////////////////\n    // Query balance and totalSupply in History\n    ////////////////\n    /**\n    * @dev return the reputation amount of a given owner\n    * @param _owner an address of the owner which we want to get his reputation\n    */\n    function balanceOf(address _owner) public view returns (uint256 balance) {\n        return balanceOfAt(_owner, block.number);\n    }\n\n    /// @notice Total amount of reputation at a specific `_blockNumber`.\n    /// @param _blockNumber The block number when the totalSupply is queried\n    /// @return The total amount of reputation at `_blockNumber`\n    function totalSupplyAt(uint256 _blockNumber) public view returns(uint256) {\n        if ((totalSupplyHistory.length == 0) || (totalSupplyHistory[0].fromBlock > _blockNumber)) {\n            return 0;\n          // This will return the expected totalSupply during normal situations\n        } else {\n            return getValueAt(totalSupplyHistory, _blockNumber);\n        }\n    }\n\n  /// @dev Queries the balance of `_owner` at a specific `_blockNumber`\n  /// @param _owner The address from which the balance will be retrieved\n  /// @param _blockNumber The block number when the balance is queried\n  /// @return The balance at `_blockNumber`\n    function balanceOfAt(address _owner, uint256 _blockNumber)\n    public view returns (uint256)\n    {\n        if ((balances[_owner].length == 0) || (balances[_owner][0].fromBlock > _blockNumber)) {\n            return 0;\n        // This will return the expected balance during normal situations\n        } else {\n            return getValueAt(balances[_owner], _blockNumber);\n        }\n    }\n  ////////////////\n  // Internal helper functions to query and set a value in a snapshot array\n  ////////////////\n\n      /// @dev `getValueAt` retrieves the number of reputation at a given block number\n      /// @param checkpoints The history of values being queried\n      /// @param _block The block number to retrieve the value at\n      /// @return The number of reputation being queried\n    function getValueAt(Checkpoint[] storage checkpoints, uint256 _block) internal view returns (uint256) {\n        if (checkpoints.length == 0) {\n            return 0;\n        }\n\n          // Shortcut for the actual value\n        if (_block >= checkpoints[checkpoints.length-1].fromBlock) {\n            return checkpoints[checkpoints.length-1].value;\n        }\n        if (_block < checkpoints[0].fromBlock) {\n            return 0;\n        }\n\n          // Binary search of the value in the array\n        uint256 min = 0;\n        uint256 max = checkpoints.length-1;\n        while (max > min) {\n            uint256 mid = (max + min + 1) / 2;\n            if (checkpoints[mid].fromBlock <= _block) {\n                min = mid;\n            } else {\n                max = mid-1;\n            }\n        }\n        return checkpoints[min].value;\n    }\n\n      /// @dev `updateValueAtNow` used to update the `balances` map and the\n      ///  `totalSupplyHistory`\n      /// @param checkpoints The history of data being updated\n      /// @param _value The new number of reputation\n    function updateValueAtNow(Checkpoint[] storage checkpoints, uint256 _value) internal {\n        require(uint128(_value) == _value); //check value is in the 128 bits bounderies\n        if ((checkpoints.length == 0) || (checkpoints[checkpoints.length - 1].fromBlock < block.number)) {\n            Checkpoint storage newCheckPoint = checkpoints[checkpoints.length++];\n            newCheckPoint.fromBlock = uint128(block.number);\n            newCheckPoint.value = uint128(_value);\n        } else {\n            Checkpoint storage oldCheckPoint = checkpoints[checkpoints.length-1];\n            oldCheckPoint.value = uint128(_value);\n        }\n    }\n}\n",
  "sourcePath": "@daostack/infra/contracts/Reputation.sol",
  "compiler": {
    "name": "solc",
    "version": "0.5.13+commit.5b0b510c.Emscripten.clang"
  },
  "schemaVersion": "3.2.2",
  "updatedAt": "2020-07-19T21:26:26.746Z",
  "devdoc": {
    "details": "A DAO has Reputation System which allows peers to rate other peers in order to build trust . A reputation is use to assign influence measure to a DAO'S peers. Reputation is similar to regular tokens but with one crucial difference: It is non-transferable. The Reputation contract maintain a map of address to reputation value. It provides an onlyOwner functions to mint and burn reputation _to (or _from) a specific address.",
    "methods": {
      "balanceOf(address)": {
        "details": "return the reputation amount of a given owner",
        "params": {
          "_owner": "an address of the owner which we want to get his reputation"
        }
      },
      "balanceOfAt(address,uint256)": {
        "details": "Queries the balance of `_owner` at a specific `_blockNumber`",
        "params": {
          "_blockNumber": "The block number when the balance is queried",
          "_owner": "The address from which the balance will be retrieved"
        },
        "return": "The balance at `_blockNumber`"
      },
      "burn(address,uint256)": {
        "params": {
          "_amount": "The quantity of reputation to burn",
          "_user": "The address that will lose the reputation"
        },
        "return": "True if the reputation are burned correctly"
      },
      "isOwner()": {
        "details": "Returns true if the caller is the current owner."
      },
      "mint(address,uint256)": {
        "params": {
          "_amount": "The quantity of reputation generated",
          "_user": "The address that will be assigned the new reputation"
        },
        "return": "True if the reputation are generated correctly"
      },
      "owner()": {
        "details": "Returns the address of the current owner."
      },
      "renounceOwnership()": {
        "details": "Leaves the contract without owner. It will not be possible to call `onlyOwner` functions anymore. Can only be called by the current owner.     * NOTE: Renouncing ownership will leave the contract without an owner, thereby removing any functionality that is only available to the owner."
      },
      "totalSupply()": {
        "details": "This function makes it easy to get the total number of reputation",
        "return": "The total number of reputation"
      },
      "totalSupplyAt(uint256)": {
        "params": {
          "_blockNumber": "The block number when the totalSupply is queried"
        },
        "return": "The total amount of reputation at `_blockNumber`"
      },
      "transferOwnership(address)": {
        "details": "Transfers ownership of the contract to a new account (`newOwner`). Can only be called by the current owner."
      }
    },
    "title": "Reputation system"
  },
  "userdoc": {
    "methods": {
      "burn(address,uint256)": {
        "notice": "Burns `_amount` reputation from `_owner`"
      },
      "mint(address,uint256)": {
        "notice": "Generates `_amount` reputation that are assigned to `_owner`"
      },
      "totalSupplyAt(uint256)": {
        "notice": "Total amount of reputation at a specific `_blockNumber`."
      }
    }
  }
}