{
  "contractName": "TestTarget",
  "abi": [
    {
      "anonymous": false,
      "inputs": [
        {
          "indexed": false,
          "internalType": "string",
          "name": "param",
          "type": "string"
        }
      ],
      "name": "Test",
      "type": "event"
    },
    {
      "constant": true,
      "inputs": [],
      "name": "value",
      "outputs": [
        {
          "internalType": "string",
          "name": "",
          "type": "string"
        }
      ],
      "payable": false,
      "stateMutability": "view",
      "type": "function"
    },
    {
      "constant": false,
      "inputs": [
        {
          "internalType": "string",
          "name": "_param",
          "type": "string"
        }
      ],
      "name": "update",
      "outputs": [],
      "payable": false,
      "stateMutability": "nonpayable",
      "type": "function"
    }
  ],
  "bytecode": "0x608060405234801561001057600080fd5b506102f6806100206000396000f3fe608060405234801561001057600080fd5b50600436106100365760003560e01c80633d7403a31461003b5780633fa4f245146100ab575b600080fd5b6100a96004803603602081101561005157600080fd5b810190602081018135600160201b81111561006b57600080fd5b82018360208201111561007d57600080fd5b803590602001918460018302840111600160201b8311171561009e57600080fd5b509092509050610128565b005b6100b3610198565b6040805160208082528351818301528351919283929083019185019080838360005b838110156100ed5781810151838201526020016100d5565b50505050905090810190601f16801561011a5780820380516001836020036101000a031916815260200191505b509250505060405180910390f35b61013460008383610226565b507ecb39d6c2c520f0597db0021367767c48fef2964cf402d3c9e9d4df12e43964828260405180806020018281038252848482818152602001925080828437600083820152604051601f909101601f19169092018290039550909350505050a15050565b6000805460408051602060026001851615610100026000190190941693909304601f8101849004840282018401909252818152929183018282801561021e5780601f106101f35761010080835404028352916020019161021e565b820191906000526020600020905b81548152906001019060200180831161020157829003601f168201915b505050505081565b828054600181600116156101000203166002900490600052602060002090601f016020900481019282601f106102675782800160ff19823516178555610294565b82800160010185558215610294579182015b82811115610294578235825591602001919060010190610279565b506102a09291506102a4565b5090565b6102be91905b808211156102a057600081556001016102aa565b9056fea265627a7a72315820bdb1a7876589ecc55eac2ba77494b06f5a55e92d440d25df389593f02a77284a64736f6c634300050d0032",
  "source": "pragma solidity ^0.5.13;\n\n\ncontract TestTarget {\n\n    string public value;\n\n    event Test(string param);\n\n    function update(string calldata _param) external {\n      value = _param;\n      emit Test(_param);\n    }\n}\n",
  "sourcePath": "/Users/osarrouy/Code/@curvelabs/necDAO-uniswap/contracts/test/Test.sol",
  "compiler": {
    "name": "solc",
    "version": "0.5.13+commit.5b0b510c.Emscripten.clang"
  },
  "schemaVersion": "3.2.2",
  "updatedAt": "2020-07-19T21:26:26.627Z",
  "devdoc": {
    "methods": {}
  },
  "userdoc": {
    "methods": {}
  }
}