{
  "contractName": "UniswapScheme",
  "abi": [
    {
      "anonymous": false,
      "inputs": [
        {
          "indexed": true,
          "internalType": "bytes32",
          "name": "proposalId",
          "type": "bytes32"
        },
        {
          "indexed": false,
          "internalType": "enum UniswapScheme.ProposalKind",
          "name": "kind",
          "type": "uint8"
        }
      ],
      "name": "NewProposal",
      "type": "event"
    },
    {
      "anonymous": false,
      "inputs": [
        {
          "indexed": true,
          "internalType": "bytes32",
          "name": "proposalId",
          "type": "bytes32"
        },
        {
          "indexed": false,
          "internalType": "address",
          "name": "from",
          "type": "address"
        },
        {
          "indexed": false,
          "internalType": "address",
          "name": "to",
          "type": "address"
        },
        {
          "indexed": false,
          "internalType": "uint256",
          "name": "amount",
          "type": "uint256"
        },
        {
          "indexed": false,
          "internalType": "uint256",
          "name": "expected",
          "type": "uint256"
        }
      ],
      "name": "NewSwapProposal",
      "type": "event"
    },
    {
      "anonymous": false,
      "inputs": [
        {
          "indexed": false,
          "internalType": "address",
          "name": "pair",
          "type": "address"
        }
      ],
      "name": "Pair",
      "type": "event"
    },
    {
      "anonymous": false,
      "inputs": [
        {
          "indexed": true,
          "internalType": "bytes32",
          "name": "proposalId",
          "type": "bytes32"
        }
      ],
      "name": "ProposalDeleted",
      "type": "event"
    },
    {
      "anonymous": false,
      "inputs": [
        {
          "indexed": true,
          "internalType": "bytes32",
          "name": "proposalId",
          "type": "bytes32"
        },
        {
          "indexed": false,
          "internalType": "bytes",
          "name": "returnvalue",
          "type": "bytes"
        }
      ],
      "name": "ProposalExecuted",
      "type": "event"
    },
    {
      "anonymous": false,
      "inputs": [
        {
          "indexed": true,
          "internalType": "bytes32",
          "name": "proposalId",
          "type": "bytes32"
        },
        {
          "indexed": false,
          "internalType": "int256",
          "name": "decision",
          "type": "int256"
        }
      ],
      "name": "ProposalExecutedByVotingMachine",
      "type": "event"
    },
    {
      "constant": true,
      "inputs": [],
      "name": "avatar",
      "outputs": [
        {
          "internalType": "contract Avatar",
          "name": "",
          "type": "address"
        }
      ],
      "payable": false,
      "stateMutability": "view",
      "type": "function"
    },
    {
      "constant": true,
      "inputs": [
        {
          "internalType": "contract IERC20",
          "name": "_stakingToken",
          "type": "address"
        },
        {
          "internalType": "bytes32",
          "name": "_proposalId",
          "type": "bytes32"
        }
      ],
      "name": "balanceOfStakingToken",
      "outputs": [
        {
          "internalType": "uint256",
          "name": "",
          "type": "uint256"
        }
      ],
      "payable": false,
      "stateMutability": "view",
      "type": "function"
    },
    {
      "constant": false,
      "inputs": [
        {
          "internalType": "uint256",
          "name": "_amount",
          "type": "uint256"
        },
        {
          "internalType": "address",
          "name": "_beneficiary",
          "type": "address"
        },
        {
          "internalType": "bytes32",
          "name": "_proposalId",
          "type": "bytes32"
        }
      ],
      "name": "burnReputation",
      "outputs": [
        {
          "internalType": "bool",
          "name": "",
          "type": "bool"
        }
      ],
      "payable": false,
      "stateMutability": "nonpayable",
      "type": "function"
    },
    {
      "constant": true,
      "inputs": [],
      "name": "factory",
      "outputs": [
        {
          "internalType": "address",
          "name": "",
          "type": "address"
        }
      ],
      "payable": false,
      "stateMutability": "view",
      "type": "function"
    },
    {
      "constant": true,
      "inputs": [
        {
          "internalType": "bytes32",
          "name": "_proposalId",
          "type": "bytes32"
        }
      ],
      "name": "getTotalReputationSupply",
      "outputs": [
        {
          "internalType": "uint256",
          "name": "",
          "type": "uint256"
        }
      ],
      "payable": false,
      "stateMutability": "view",
      "type": "function"
    },
    {
      "constant": false,
      "inputs": [
        {
          "internalType": "uint256",
          "name": "_amount",
          "type": "uint256"
        },
        {
          "internalType": "address",
          "name": "_beneficiary",
          "type": "address"
        },
        {
          "internalType": "bytes32",
          "name": "_proposalId",
          "type": "bytes32"
        }
      ],
      "name": "mintReputation",
      "outputs": [
        {
          "internalType": "bool",
          "name": "",
          "type": "bool"
        }
      ],
      "payable": false,
      "stateMutability": "nonpayable",
      "type": "function"
    },
    {
      "constant": true,
      "inputs": [
        {
          "internalType": "bytes32",
          "name": "",
          "type": "bytes32"
        }
      ],
      "name": "proposals",
      "outputs": [
        {
          "internalType": "bool",
          "name": "exists",
          "type": "bool"
        },
        {
          "internalType": "bool",
          "name": "passed",
          "type": "bool"
        },
        {
          "internalType": "enum UniswapScheme.ProposalKind",
          "name": "kind",
          "type": "uint8"
        }
      ],
      "payable": false,
      "stateMutability": "view",
      "type": "function"
    },
    {
      "constant": true,
      "inputs": [
        {
          "internalType": "address",
          "name": "",
          "type": "address"
        },
        {
          "internalType": "bytes32",
          "name": "",
          "type": "bytes32"
        }
      ],
      "name": "proposalsInfo",
      "outputs": [
        {
          "internalType": "uint256",
          "name": "blockNumber",
          "type": "uint256"
        },
        {
          "internalType": "contract Avatar",
          "name": "avatar",
          "type": "address"
        }
      ],
      "payable": false,
      "stateMutability": "view",
      "type": "function"
    },
    {
      "constant": true,
      "inputs": [
        {
          "internalType": "address",
          "name": "_owner",
          "type": "address"
        },
        {
          "internalType": "bytes32",
          "name": "_proposalId",
          "type": "bytes32"
        }
      ],
      "name": "reputationOf",
      "outputs": [
        {
          "internalType": "uint256",
          "name": "",
          "type": "uint256"
        }
      ],
      "payable": false,
      "stateMutability": "view",
      "type": "function"
    },
    {
      "constant": false,
      "inputs": [
        {
          "internalType": "contract IERC20",
          "name": "_stakingToken",
          "type": "address"
        },
        {
          "internalType": "address",
          "name": "_beneficiary",
          "type": "address"
        },
        {
          "internalType": "uint256",
          "name": "_amount",
          "type": "uint256"
        },
        {
          "internalType": "bytes32",
          "name": "_proposalId",
          "type": "bytes32"
        }
      ],
      "name": "stakingTokenTransfer",
      "outputs": [
        {
          "internalType": "bool",
          "name": "",
          "type": "bool"
        }
      ],
      "payable": false,
      "stateMutability": "nonpayable",
      "type": "function"
    },
    {
      "constant": true,
      "inputs": [],
      "name": "voteParams",
      "outputs": [
        {
          "internalType": "bytes32",
          "name": "",
          "type": "bytes32"
        }
      ],
      "payable": false,
      "stateMutability": "view",
      "type": "function"
    },
    {
      "constant": true,
      "inputs": [],
      "name": "votingMachine",
      "outputs": [
        {
          "internalType": "contract IntVoteInterface",
          "name": "",
          "type": "address"
        }
      ],
      "payable": false,
      "stateMutability": "view",
      "type": "function"
    },
    {
      "constant": false,
      "inputs": [
        {
          "internalType": "contract Avatar",
          "name": "_avatar",
          "type": "address"
        },
        {
          "internalType": "contract IntVoteInterface",
          "name": "_votingMachine",
          "type": "address"
        },
        {
          "internalType": "bytes32",
          "name": "_voteParams",
          "type": "bytes32"
        },
        {
          "internalType": "address",
          "name": "_factory",
          "type": "address"
        }
      ],
      "name": "initialize",
      "outputs": [],
      "payable": false,
      "stateMutability": "nonpayable",
      "type": "function"
    },
    {
      "constant": false,
      "inputs": [
        {
          "internalType": "address",
          "name": "_from",
          "type": "address"
        },
        {
          "internalType": "address",
          "name": "_to",
          "type": "address"
        },
        {
          "internalType": "uint256",
          "name": "_amount",
          "type": "uint256"
        },
        {
          "internalType": "uint256",
          "name": "_expected",
          "type": "uint256"
        }
      ],
      "name": "swap",
      "outputs": [
        {
          "internalType": "bytes32",
          "name": "",
          "type": "bytes32"
        }
      ],
      "payable": false,
      "stateMutability": "nonpayable",
      "type": "function"
    },
    {
      "constant": false,
      "inputs": [
        {
          "internalType": "address",
          "name": "_from",
          "type": "address"
        },
        {
          "internalType": "address",
          "name": "_to",
          "type": "address"
        }
      ],
      "name": "test",
      "outputs": [],
      "payable": false,
      "stateMutability": "nonpayable",
      "type": "function"
    },
    {
      "constant": false,
      "inputs": [
        {
          "internalType": "bytes32",
          "name": "_proposalId",
          "type": "bytes32"
        },
        {
          "internalType": "int256",
          "name": "_decision",
          "type": "int256"
        }
      ],
      "name": "executeProposal",
      "outputs": [
        {
          "internalType": "bool",
          "name": "",
          "type": "bool"
        }
      ],
      "payable": false,
      "stateMutability": "nonpayable",
      "type": "function"
    },
    {
      "constant": false,
      "inputs": [
        {
          "internalType": "bytes32",
          "name": "_proposalId",
          "type": "bytes32"
        }
      ],
      "name": "execute",
      "outputs": [],
      "payable": false,
      "stateMutability": "nonpayable",
      "type": "function"
    }
  ],
  "bytecode": "0x608060405234801561001057600080fd5b50611476806100206000396000f3fe608060405234801561001057600080fd5b50600436106100db5760003560e01c80632b6d0ceb146100e057806332ed5b12146101105780633edf7ca1146101635780635aef7de61461018757806360bdbb3f1461018f5780636b8eb403146101dc5780639588378e1461021a5780639d4c162d14610246578063a31ee5b01461027d578063b551c373146102b9578063bea75f28146102d6578063c45a015514610312578063d29b5d2f1461031a578063e5e211641461034c578063e751f27114610354578063f81f8bf614610371578063fe029156146103a3575b600080fd5b61010e600480360360408110156100f657600080fd5b506001600160a01b03813581169160200135166103df565b005b61012d6004803603602081101561012657600080fd5b503561043e565b604080518415158152831515602082015290810182600181111561014d57fe5b60ff168152602001935050505060405180910390f35b61016b610466565b604080516001600160a01b039092168252519081900360200190f35b61016b610475565b6101bb600480360360408110156101a557600080fd5b506001600160a01b038135169060200135610484565b604080519283526001600160a01b0390911660208301528051918290030190f35b610208600480360360408110156101f257600080fd5b506001600160a01b0381351690602001356104ae565b60408051918252519081900360200190f35b6102086004803603604081101561023057600080fd5b506001600160a01b03813516906020013561056e565b6102696004803603604081101561025c57600080fd5b508035906020013561067c565b604080519115158252519081900360200190f35b61010e6004803603608081101561029357600080fd5b506001600160a01b03813581169160208101358216916040820135916060013516610824565b610208600480360360208110156102cf57600080fd5b5035610869565b610269600480360360808110156102ec57600080fd5b506001600160a01b038135811691602081013590911690604081013590606001356109a3565b61016b610b45565b6102696004803603606081101561033057600080fd5b508035906001600160a01b036020820135169060400135610b54565b610208610ced565b61010e6004803603602081101561036a57600080fd5b5035610cf3565b6102696004803603606081101561038757600080fd5b508035906001600160a01b036020820135169060400135610efb565b610208600480360360808110156103b957600080fd5b506001600160a01b0381358116916020810135909116906040810135906060013561105c565b6004546000906103f9906001600160a01b03168484611223565b604080516001600160a01b038316815290519192507f7aefd1538c7143d938f2abce5a07d8790dad961e8ea97e92d422026cecc0acdb919081900360200190a1505050565b60056020526000908152604090205460ff808216916101008104821691620100009091041683565b6002546001600160a01b031681565b6001546001600160a01b031681565b6000602081815292815260408082209093529081522080546001909101546001600160a01b031682565b336000908152602081815260408083208484529091528120600101546001600160a01b0316806104e2576000915050610568565b836001600160a01b03166370a08231826040518263ffffffff1660e01b815260040180826001600160a01b03166001600160a01b0316815260200191505060206040518083038186803b15801561053857600080fd5b505afa15801561054c573d6000803e3d6000fd5b505050506040513d602081101561056257600080fd5b50519150505b92915050565b60006105786113bc565b5033600090815260208181526040808320858452825291829020825180840190935280548352600101546001600160a01b03169082018190526105bf576000915050610568565b80602001516001600160a01b03166389ae1c906040518163ffffffff1660e01b815260040160206040518083038186803b1580156105fc57600080fd5b505afa158015610610573d6000803e3d6000fd5b505050506040513d602081101561062657600080fd5b505181516040805163277166bf60e11b81526001600160a01b038881166004830152602482019390935290519190921691634ee2cd7e916044808301926020929190829003018186803b15801561053857600080fd5b3360009081526020818152604080832085845290915281206001015483906001600160a01b03166106e9576040805162461bcd60e51b81526020600482015260126024820152716f6e6c7920566f74696e674d616368696e6560701b604482015290519081900360640190fd5b6000848152600560205260409020805460ff16610747576040805162461bcd60e51b81526020600482015260176024820152761b5d5cdd0818994818481b1a5d99481c1c9bdc1bdcd85b604a1b604482015290519081900360640190fd5b8054610100900460ff161561079a576040805162461bcd60e51b815260206004820152601460248201527363616e6e6f74206578656375746520747769636560601b604482015290519081900360640190fd5b60408051858152905186917fe03a9047d2647ba513689fe86f20dfb187d4a3710aacc44cda022d7900a7f967919081900360200190a283600114156107eb57805461ff001916610100178155610819565b600085815260056020526040808220805462ffffff191690555186916000805160206113d483398151915291a25b506001949350505050565b600180546001600160a01b039586166001600160a01b031991821617909155600280549486169482169490941790935560039190915560048054919093169116179055565b60006108736113bc565b5033600090815260208181526040808320858452825291829020825180840190935280548352600101546001600160a01b03169082018190526108ba57600091505061099e565b80602001516001600160a01b03166389ae1c906040518163ffffffff1660e01b815260040160206040518083038186803b1580156108f757600080fd5b505afa15801561090b573d6000803e3d6000fd5b505050506040513d602081101561092157600080fd5b5051815160408051630981b24d60e41b81526004810192909252516001600160a01b039092169163981b24d091602480820192602092909190829003018186803b15801561096e57600080fd5b505afa158015610982573d6000803e3d6000fd5b505050506040513d602081101561099857600080fd5b50519150505b919050565b3360009081526020818152604080832084845290915281206001015482906001600160a01b0316610a10576040805162461bcd60e51b81526020600482015260126024820152716f6e6c7920566f74696e674d616368696e6560701b604482015290519081900360640190fd5b336000908152602081815260408083208684529091529020600101546001600160a01b031680610a44576000925050610b3c565b806001600160a01b0316638da5cb5b6040518163ffffffff1660e01b815260040160206040518083038186803b158015610a7d57600080fd5b505afa158015610a91573d6000803e3d6000fd5b505050506040513d6020811015610aa757600080fd5b50516040805163b9a04cdd60e01b81526001600160a01b038a8116600483015289811660248301526044820189905284811660648301529151919092169163b9a04cdd9160848083019260209291908290030181600087803b158015610b0c57600080fd5b505af1158015610b20573d6000803e3d6000fd5b505050506040513d6020811015610b3657600080fd5b50519250505b50949350505050565b6004546001600160a01b031681565b3360009081526020818152604080832084845290915281206001015482906001600160a01b0316610bc1576040805162461bcd60e51b81526020600482015260126024820152716f6e6c7920566f74696e674d616368696e6560701b604482015290519081900360640190fd5b336000908152602081815260408083208684529091529020600101546001600160a01b031680610bf5576000925050610ce5565b806001600160a01b0316638da5cb5b6040518163ffffffff1660e01b815260040160206040518083038186803b158015610c2e57600080fd5b505afa158015610c42573d6000803e3d6000fd5b505050506040513d6020811015610c5857600080fd5b50516040805163757cca5960e11b8152600481018990526001600160a01b03888116602483015284811660448301529151919092169163eaf994b29160648083019260209291908290030181600087803b158015610cb557600080fd5b505af1158015610cc9573d6000803e3d6000fd5b505050506040513d6020811015610cdf57600080fd5b50519250505b509392505050565b60035481565b60008181526005602052604081208054606092919060ff16610d56576040805162461bcd60e51b81526020600482015260176024820152761b5d5cdd0818994818481b1a5d99481c1c9bdc1bdcd85b604a1b604482015290519081900360640190fd5b8054610100900460ff16610d9b5760405162461bcd60e51b81526004018080602001828103825260298152602001806114196029913960400191505060405180910390fd5b805460ff1916815560015460408051638da5cb5b60e01b815290516000926001600160a01b031691638da5cb5b916004808301926020929190829003018186803b158015610de857600080fd5b505afa158015610dfc573d6000803e3d6000fd5b505050506040513d6020811015610e1257600080fd5b505190508215610ee857600085815260056020526040808220805462ffffff191690555186916000805160206113d483398151915291a2847fc647ba6bbb513ea3005ab955e9e8920be0c47f2427c5aabff8e98c18c1837da8856040518080602001828103825283818151815260200191508051906020019080838360005b83811015610ea9578181015183820152602001610e91565b50505050905090810190601f168015610ed65780820380516001836020036101000a031916815260200191505b509250505060405180910390a2610ef4565b815460ff191660011782555b5050505050565b3360009081526020818152604080832084845290915281206001015482906001600160a01b0316610f68576040805162461bcd60e51b81526020600482015260126024820152716f6e6c7920566f74696e674d616368696e6560701b604482015290519081900360640190fd5b336000908152602081815260408083208684529091529020600101546001600160a01b031680610f9c576000925050610ce5565b806001600160a01b0316638da5cb5b6040518163ffffffff1660e01b815260040160206040518083038186803b158015610fd557600080fd5b505afa158015610fe9573d6000803e3d6000fd5b505050506040513d6020811015610fff57600080fd5b505160408051630dd29a4f60e31b8152600481018990526001600160a01b038881166024830152848116604483015291519190921691636e94d2789160648083019260209291908290030181600087803b158015610cb557600080fd5b6002805460035460015460408051634439bdaf60e11b8152600481019590955260248501929092523360448501526001600160a01b0390811660648501529051600093849392909216916388737b5e91608480830192602092919082900301818787803b1580156110cc57600080fd5b505af11580156110e0573d6000803e3d6000fd5b505050506040513d60208110156110f657600080fd5b505160408051606081018252600181526000602082018190529293509190820152600082815260056020908152604091829020835181549285015115156101000261ff001991151560ff19909416939093171691909117808255918301519091829062ff000019166201000083600181111561116e57fe5b021790555050604080518082018252438152600180546001600160a01b0390811660208085019182526002548316600090815280825286812089825282528690209451855590519390920180546001600160a01b0319169382169390931790925582518a83168152918916908201528082018790526060810186905290518392507f3310690bc8a83a583debf1e7ce760041f809b1bf285389261c07171938fd23db916080908290030190a295945050505050565b600080600061123285856112de565b604080516001600160601b0319606094851b811660208084019190915293851b81166034830152825160288184030181526048830184528051908501206001600160f81b031960688401529a90941b9093166069840152607d8301989098527f96e8ac4277198ff8b6f785478aa9a39f403cb768dd02cbee326c3e7da348845f609d808401919091528851808403909101815260bd909201909752805196019590952095945050505050565b600080826001600160a01b0316846001600160a01b031614156113325760405162461bcd60e51b81526004018080602001828103825260258152602001806113f46025913960400191505060405180910390fd5b826001600160a01b0316846001600160a01b031610611352578284611355565b83835b90925090506001600160a01b0382166113b5576040805162461bcd60e51b815260206004820152601e60248201527f556e697377617056324c6962726172793a205a45524f5f414444524553530000604482015290519081900360640190fd5b9250929050565b60408051808201909152600080825260208201529056fe9e70f82b2c39ff8db1802828219639b786b0098beba2eb2a02ff366923ad9b2d556e697377617056324c6962726172793a204944454e544943414c5f41444452455353455370726f706f73616c206d7573742062652070617373656420627920766f74696e67206d616368696e65a265627a7a72315820802860b80d9f8a9ec459e4025bbf0e1f4947d9a51de44344b4475e87c2259cda64736f6c634300050d0032",
  "source": "pragma solidity >=0.5.13;\n\nimport \"@daostack/infra/contracts/votingMachines/ProposalExecuteInterface.sol\";\nimport \"@daostack/arc/contracts/votingMachines/VotingMachineCallbacks.sol\";\nimport '@uniswap/v2-core/contracts/interfaces/IUniswapV2Pair.sol';\nimport './uniswap/UniswapV2Library.sol';\nimport './uniswap/IUniswapV2Router02.sol';\nimport \"./test/Test.sol\";\n\n/**\n * @title A UniswapV2 scheme made with  for the necDAO folks\n * @dev   We'll tell when we know\n */\ncontract UniswapScheme is VotingMachineCallbacks, ProposalExecuteInterface {\n    enum ProposalKind { Swap, Seed }\n\n    struct Proposal {\n      bool         exists;\n      bool         passed;\n      ProposalKind kind;\n    }\n\n    Avatar                       public avatar;\n    IntVoteInterface             public votingMachine;\n    bytes32                      public voteParams;\n    address                      public factory;\n    mapping(bytes32 => Proposal) public proposals;\n\n    event NewProposal                    (bytes32 indexed proposalId, ProposalKind kind);\n    event ProposalExecutedByVotingMachine(bytes32 indexed proposalId, int256 decision);\n    event ProposalExecuted               (bytes32 indexed proposalId, bytes returnvalue);\n    event ProposalDeleted                (bytes32 indexed proposalId);\n    event NewSwapProposal                (bytes32 indexed proposalId, address from, address to, uint256 amount, uint256 expected);\n\n    function initialize(Avatar _avatar, IntVoteInterface _votingMachine, bytes32 _voteParams, address _factory) external {\n        avatar        = _avatar;\n        votingMachine = _votingMachine;\n        voteParams    = _voteParams;\n        factory       = _factory;\n    }\n\n    /**\n     * @dev             Submit a proposal to swap tokens.\n     * @param _from     The address of the token to swap from [address(0) for ETH].\n     * @param _to       The address of the token to swap to [address(0) for ETH].\n     * @param _amount   The amount of `_from` token to swap.\n     * @param _expected The minimum amount of `_to` token to expect in return for the swap [reverts otherwise]\n     */\n    function swap(address _from, address _to, uint256 _amount, uint256 _expected) public returns (bytes32) {\n      bytes32 proposalId = votingMachine.propose(2, voteParams, msg.sender, address(avatar));\n\n      proposals[proposalId] = Proposal({exists: true, passed: false, kind: ProposalKind.Swap });\n      proposalsInfo[address(votingMachine)][proposalId] = ProposalInfo({ blockNumber: block.number, avatar: avatar });\n\n      emit NewSwapProposal(proposalId, _from, _to, _amount, _expected);\n\n      return proposalId;\n    }\n\n    event Pair(address pair);\n\n    function test(address _from, address _to) external {\n      IUniswapV2Pair pair = IUniswapV2Pair(UniswapV2Library.pairFor(factory, _from, _to));\n\n      emit Pair(address(pair));\n    }\n\n    /**\n     * @dev               Update the state of the proposal depending on wether it has ben accepted or rejected by the voting machine. Can only be called by the voting machine in which the vote is held.\n     * @param _proposalId The id of the proposal in the voting machine.\n     * @param _decision   The voting result. 1 for 'yes' and 2 for 'no'.\n     * @return            True [reverts otherwise].\n     */\n    function executeProposal(bytes32 _proposalId, int256 _decision) external onlyVotingMachine(_proposalId) returns (bool) {\n      Proposal storage proposal = proposals[_proposalId];\n      require(proposal.exists,  \"must be a live proposal\");\n      require(!proposal.passed, \"cannot execute twice\");\n\n      emit ProposalExecutedByVotingMachine(_proposalId, _decision);\n\n      if (_decision == 1) {\n          proposal.passed = true;\n      } else {\n          delete proposals[_proposalId];\n          emit ProposalDeleted(_proposalId);\n      }\n\n      return true;\n    }\n\n    /**\n     * @dev              Execute the proposal if has been accepter by the voting machine and is still pending [reverts otherwise].\n     * @param _proposalId The id of the proposal in the voting machine.\n     */\n    function execute(bytes32 _proposalId) public {\n      // to be used later to store return values of `genericCall`\n      bytes memory returnValue;\n      bool success;\n      // fetch proposal\n      Proposal storage proposal = proposals[_proposalId];\n      // check whether proposal can be executed or nor\n      require(proposal.exists, \"must be a live proposal\");\n      require(proposal.passed, \"proposal must be passed by voting machine\");\n      // update states upfront to circumvent reentrancy attacks\n      proposal.exists = false;\n      // execute transaction on behalf of `avatar`\n      Controller controller = Controller(avatar.owner());\n      // (success, returnValue) = controller.genericCall(proposal.test, abi.encodeWithSelector(TestTarget(proposal.test).update.selector, proposal.description), avatar, 0);\n      // update state according to the success of the transaction\n      if (success) {\n          // delete proposal in case of success\n          delete proposals[_proposalId];\n          emit ProposalDeleted(_proposalId);\n          emit ProposalExecuted(_proposalId, returnValue);\n      } else {\n          // restore state in case of failure\n          proposal.exists = true;\n      }\n    }\n\n    function _swap(address _from, address _to, uint256 _amount, uint256 _expected) internal {\n\n    }\n}\n",
  "sourcePath": "/Users/osarrouy/Code/@curvelabs/necDAO-uniswap/contracts/UniswapScheme.sol",
  "compiler": {
    "name": "solc",
    "version": "0.5.13+commit.5b0b510c.Emscripten.clang"
  },
  "schemaVersion": "3.2.2",
  "updatedAt": "2020-07-20T10:15:52.046Z",
  "devdoc": {
    "details": "We'll tell when we know",
    "methods": {
      "execute(bytes32)": {
        "details": "Execute the proposal if has been accepter by the voting machine and is still pending [reverts otherwise].",
        "params": {
          "_proposalId": "The id of the proposal in the voting machine."
        }
      },
      "executeProposal(bytes32,int256)": {
        "details": "Update the state of the proposal depending on wether it has ben accepted or rejected by the voting machine. Can only be called by the voting machine in which the vote is held.",
        "params": {
          "_decision": "The voting result. 1 for 'yes' and 2 for 'no'.",
          "_proposalId": "The id of the proposal in the voting machine."
        },
        "return": "True [reverts otherwise]."
      },
      "swap(address,address,uint256,uint256)": {
        "details": "Submit a proposal to swap tokens.",
        "params": {
          "_amount": "The amount of `_from` token to swap.",
          "_expected": "The minimum amount of `_to` token to expect in return for the swap [reverts otherwise]",
          "_from": "The address of the token to swap from [address(0) for ETH].",
          "_to": "The address of the token to swap to [address(0) for ETH]."
        }
      }
    },
    "title": "A UniswapV2 scheme made with  for the necDAO folks"
  },
  "userdoc": {
    "methods": {}
  }
}