{
  "contractName": "VotingMachineCallbacks",
  "abi": [
    {
      "constant": true,
      "inputs": [
        {
          "internalType": "address",
          "name": "",
          "type": "address"
        },
        {
          "internalType": "bytes32",
          "name": "",
          "type": "bytes32"
        }
      ],
      "name": "proposalsInfo",
      "outputs": [
        {
          "internalType": "uint256",
          "name": "blockNumber",
          "type": "uint256"
        },
        {
          "internalType": "contract Avatar",
          "name": "avatar",
          "type": "address"
        }
      ],
      "payable": false,
      "stateMutability": "view",
      "type": "function"
    },
    {
      "constant": false,
      "inputs": [
        {
          "internalType": "uint256",
          "name": "_amount",
          "type": "uint256"
        },
        {
          "internalType": "address",
          "name": "_beneficiary",
          "type": "address"
        },
        {
          "internalType": "bytes32",
          "name": "_proposalId",
          "type": "bytes32"
        }
      ],
      "name": "mintReputation",
      "outputs": [
        {
          "internalType": "bool",
          "name": "",
          "type": "bool"
        }
      ],
      "payable": false,
      "stateMutability": "nonpayable",
      "type": "function"
    },
    {
      "constant": false,
      "inputs": [
        {
          "internalType": "uint256",
          "name": "_amount",
          "type": "uint256"
        },
        {
          "internalType": "address",
          "name": "_beneficiary",
          "type": "address"
        },
        {
          "internalType": "bytes32",
          "name": "_proposalId",
          "type": "bytes32"
        }
      ],
      "name": "burnReputation",
      "outputs": [
        {
          "internalType": "bool",
          "name": "",
          "type": "bool"
        }
      ],
      "payable": false,
      "stateMutability": "nonpayable",
      "type": "function"
    },
    {
      "constant": false,
      "inputs": [
        {
          "internalType": "contract IERC20",
          "name": "_stakingToken",
          "type": "address"
        },
        {
          "internalType": "address",
          "name": "_beneficiary",
          "type": "address"
        },
        {
          "internalType": "uint256",
          "name": "_amount",
          "type": "uint256"
        },
        {
          "internalType": "bytes32",
          "name": "_proposalId",
          "type": "bytes32"
        }
      ],
      "name": "stakingTokenTransfer",
      "outputs": [
        {
          "internalType": "bool",
          "name": "",
          "type": "bool"
        }
      ],
      "payable": false,
      "stateMutability": "nonpayable",
      "type": "function"
    },
    {
      "constant": true,
      "inputs": [
        {
          "internalType": "contract IERC20",
          "name": "_stakingToken",
          "type": "address"
        },
        {
          "internalType": "bytes32",
          "name": "_proposalId",
          "type": "bytes32"
        }
      ],
      "name": "balanceOfStakingToken",
      "outputs": [
        {
          "internalType": "uint256",
          "name": "",
          "type": "uint256"
        }
      ],
      "payable": false,
      "stateMutability": "view",
      "type": "function"
    },
    {
      "constant": true,
      "inputs": [
        {
          "internalType": "bytes32",
          "name": "_proposalId",
          "type": "bytes32"
        }
      ],
      "name": "getTotalReputationSupply",
      "outputs": [
        {
          "internalType": "uint256",
          "name": "",
          "type": "uint256"
        }
      ],
      "payable": false,
      "stateMutability": "view",
      "type": "function"
    },
    {
      "constant": true,
      "inputs": [
        {
          "internalType": "address",
          "name": "_owner",
          "type": "address"
        },
        {
          "internalType": "bytes32",
          "name": "_proposalId",
          "type": "bytes32"
        }
      ],
      "name": "reputationOf",
      "outputs": [
        {
          "internalType": "uint256",
          "name": "",
          "type": "uint256"
        }
      ],
      "payable": false,
      "stateMutability": "view",
      "type": "function"
    }
  ],
  "bytecode": "0x608060405234801561001057600080fd5b50610a14806100206000396000f3fe608060405234801561001057600080fd5b506004361061006d5760003560e01c806360bdbb3f146100725780636b8eb403146100bf5780639588378e146100fd578063b551c37314610129578063bea75f2814610146578063d29b5d2f14610196578063f81f8bf6146101c8575b600080fd5b61009e6004803603604081101561008857600080fd5b506001600160a01b0381351690602001356101fa565b604080519283526001600160a01b0390911660208301528051918290030190f35b6100eb600480360360408110156100d557600080fd5b506001600160a01b038135169060200135610224565b60408051918252519081900360200190f35b6100eb6004803603604081101561011357600080fd5b506001600160a01b0381351690602001356102e4565b6100eb6004803603602081101561013f57600080fd5b50356103f2565b6101826004803603608081101561015c57600080fd5b506001600160a01b0381358116916020810135909116906040810135906060013561052c565b604080519115158252519081900360200190f35b610182600480360360608110156101ac57600080fd5b508035906001600160a01b0360208201351690604001356106ce565b610182600480360360608110156101de57600080fd5b508035906001600160a01b036020820135169060400135610867565b6000602081815292815260408082209093529081522080546001909101546001600160a01b031682565b336000908152602081815260408083208484529091528120600101546001600160a01b0316806102585760009150506102de565b836001600160a01b03166370a08231826040518263ffffffff1660e01b815260040180826001600160a01b03166001600160a01b0316815260200191505060206040518083038186803b1580156102ae57600080fd5b505afa1580156102c2573d6000803e3d6000fd5b505050506040513d60208110156102d857600080fd5b50519150505b92915050565b60006102ee6109c8565b5033600090815260208181526040808320858452825291829020825180840190935280548352600101546001600160a01b03169082018190526103355760009150506102de565b80602001516001600160a01b03166389ae1c906040518163ffffffff1660e01b815260040160206040518083038186803b15801561037257600080fd5b505afa158015610386573d6000803e3d6000fd5b505050506040513d602081101561039c57600080fd5b505181516040805163277166bf60e11b81526001600160a01b038881166004830152602482019390935290519190921691634ee2cd7e916044808301926020929190829003018186803b1580156102ae57600080fd5b60006103fc6109c8565b5033600090815260208181526040808320858452825291829020825180840190935280548352600101546001600160a01b0316908201819052610443576000915050610527565b80602001516001600160a01b03166389ae1c906040518163ffffffff1660e01b815260040160206040518083038186803b15801561048057600080fd5b505afa158015610494573d6000803e3d6000fd5b505050506040513d60208110156104aa57600080fd5b5051815160408051630981b24d60e41b81526004810192909252516001600160a01b039092169163981b24d091602480820192602092909190829003018186803b1580156104f757600080fd5b505afa15801561050b573d6000803e3d6000fd5b505050506040513d602081101561052157600080fd5b50519150505b919050565b3360009081526020818152604080832084845290915281206001015482906001600160a01b0316610599576040805162461bcd60e51b81526020600482015260126024820152716f6e6c7920566f74696e674d616368696e6560701b604482015290519081900360640190fd5b336000908152602081815260408083208684529091529020600101546001600160a01b0316806105cd5760009250506106c5565b806001600160a01b0316638da5cb5b6040518163ffffffff1660e01b815260040160206040518083038186803b15801561060657600080fd5b505afa15801561061a573d6000803e3d6000fd5b505050506040513d602081101561063057600080fd5b50516040805163b9a04cdd60e01b81526001600160a01b038a8116600483015289811660248301526044820189905284811660648301529151919092169163b9a04cdd9160848083019260209291908290030181600087803b15801561069557600080fd5b505af11580156106a9573d6000803e3d6000fd5b505050506040513d60208110156106bf57600080fd5b50519250505b50949350505050565b3360009081526020818152604080832084845290915281206001015482906001600160a01b031661073b576040805162461bcd60e51b81526020600482015260126024820152716f6e6c7920566f74696e674d616368696e6560701b604482015290519081900360640190fd5b336000908152602081815260408083208684529091529020600101546001600160a01b03168061076f57600092505061085f565b806001600160a01b0316638da5cb5b6040518163ffffffff1660e01b815260040160206040518083038186803b1580156107a857600080fd5b505afa1580156107bc573d6000803e3d6000fd5b505050506040513d60208110156107d257600080fd5b50516040805163757cca5960e11b8152600481018990526001600160a01b03888116602483015284811660448301529151919092169163eaf994b29160648083019260209291908290030181600087803b15801561082f57600080fd5b505af1158015610843573d6000803e3d6000fd5b505050506040513d602081101561085957600080fd5b50519250505b509392505050565b3360009081526020818152604080832084845290915281206001015482906001600160a01b03166108d4576040805162461bcd60e51b81526020600482015260126024820152716f6e6c7920566f74696e674d616368696e6560701b604482015290519081900360640190fd5b336000908152602081815260408083208684529091529020600101546001600160a01b03168061090857600092505061085f565b806001600160a01b0316638da5cb5b6040518163ffffffff1660e01b815260040160206040518083038186803b15801561094157600080fd5b505afa158015610955573d6000803e3d6000fd5b505050506040513d602081101561096b57600080fd5b505160408051630dd29a4f60e31b8152600481018990526001600160a01b038881166024830152848116604483015291519190921691636e94d2789160648083019260209291908290030181600087803b15801561082f57600080fd5b60408051808201909152600080825260208201529056fea265627a7a7231582098d96676ae3fa39d4a41197f5eb662a9ffd88eb989addcda4e0817e1600d8a4a64736f6c634300050d0032",
  "source": "pragma solidity 0.5.13;\n\nimport \"../universalSchemes/UniversalScheme.sol\";\nimport \"@daostack/infra/contracts/votingMachines/GenesisProtocol.sol\";\n\n\ncontract VotingMachineCallbacks is VotingMachineCallbacksInterface {\n\n    struct ProposalInfo {\n        uint256 blockNumber; // the proposal's block number\n        Avatar avatar; // the proposal's avatar\n    }\n\n    modifier onlyVotingMachine(bytes32 _proposalId) {\n        require(proposalsInfo[msg.sender][_proposalId].avatar != Avatar(address(0)), \"only VotingMachine\");\n        _;\n    }\n\n    // VotingMaching  ->  proposalId  ->  ProposalInfo\n    mapping(address => mapping(bytes32 => ProposalInfo)) public proposalsInfo;\n\n    function mintReputation(uint256 _amount, address _beneficiary, bytes32 _proposalId)\n    external\n    onlyVotingMachine(_proposalId)\n    returns(bool)\n    {\n        Avatar avatar = proposalsInfo[msg.sender][_proposalId].avatar;\n        if (avatar == Avatar(0)) {\n            return false;\n        }\n        return Controller(avatar.owner()).mintReputation(_amount, _beneficiary, address(avatar));\n    }\n\n    function burnReputation(uint256 _amount, address _beneficiary, bytes32 _proposalId)\n    external\n    onlyVotingMachine(_proposalId)\n    returns(bool)\n    {\n        Avatar avatar = proposalsInfo[msg.sender][_proposalId].avatar;\n        if (avatar == Avatar(0)) {\n            return false;\n        }\n        return Controller(avatar.owner()).burnReputation(_amount, _beneficiary, address(avatar));\n    }\n\n    function stakingTokenTransfer(\n        IERC20 _stakingToken,\n        address _beneficiary,\n        uint256 _amount,\n        bytes32 _proposalId)\n    external\n    onlyVotingMachine(_proposalId)\n    returns(bool)\n    {\n        Avatar avatar = proposalsInfo[msg.sender][_proposalId].avatar;\n        if (avatar == Avatar(0)) {\n            return false;\n        }\n        return Controller(avatar.owner()).externalTokenTransfer(_stakingToken, _beneficiary, _amount, avatar);\n    }\n\n    function balanceOfStakingToken(IERC20 _stakingToken, bytes32 _proposalId) external view returns(uint256) {\n        Avatar avatar = proposalsInfo[msg.sender][_proposalId].avatar;\n        if (proposalsInfo[msg.sender][_proposalId].avatar == Avatar(0)) {\n            return 0;\n        }\n        return _stakingToken.balanceOf(address(avatar));\n    }\n\n    function getTotalReputationSupply(bytes32 _proposalId) external view returns(uint256) {\n        ProposalInfo memory proposal = proposalsInfo[msg.sender][_proposalId];\n        if (proposal.avatar == Avatar(0)) {\n            return 0;\n        }\n        return proposal.avatar.nativeReputation().totalSupplyAt(proposal.blockNumber);\n    }\n\n    function reputationOf(address _owner, bytes32 _proposalId) external view returns(uint256) {\n        ProposalInfo memory proposal = proposalsInfo[msg.sender][_proposalId];\n        if (proposal.avatar == Avatar(0)) {\n            return 0;\n        }\n        return proposal.avatar.nativeReputation().balanceOfAt(_owner, proposal.blockNumber);\n    }\n}\n",
  "sourcePath": "@daostack/arc/contracts/votingMachines/VotingMachineCallbacks.sol",
  "compiler": {
    "name": "solc",
    "version": "0.5.13+commit.5b0b510c.Emscripten.clang"
  },
  "schemaVersion": "3.2.2",
  "updatedAt": "2020-07-19T21:26:26.735Z",
  "devdoc": {
    "methods": {}
  },
  "userdoc": {
    "methods": {}
  }
}